:020000040000fa
:080000000002040000000000f2
:020000040000fa
:04000800840500006b
:020000040000fa
:04000c008405000067
:020000040000fa
:040010008405000063
:020000040000fa
:04001400840500005f
:020000040000fa
:04001800840500005b
:020000040000fa
:04001c008405000057
:020000040000fa
:040020008405000053
:020000040000fa
:04002400840500004f
:020000040000fa
:04002800cc02000006
:020000040000fa
:04002c008405000047
:020000040000fa
:040030008405000043
:020000040000fa
:04003400f8020000ce
:020000040000fa
:04003800d0040000f0
:020000040000fa
:04003c008405000037
:020000040000fa
:040040008405000033
:020000040000fa
:04004400840500002f
:020000040000fa
:04004800840500002b
:020000040000fa
:04004c008405000027
:020000040000fa
:040050008405000023
:020000040000fa
:04005400840500001f
:020000040000fa
:04005800840500001b
:020000040000fa
:04005c008405000017
:020000040000fa
:04006000d8040000c0
:020000040000fa
:04006400840500000f
:020000040000fa
:04006800840500000b
:020000040000fa
:04006c008405000007
:020000040000fa
:040070008405000003
:020000040000fa
:0400740084050000ff
:020000040000fa
:04007800d4020000ae
:020000040000fa
:04007c0084050000f7
:020000040000fa
:0400800084050000f3
:020000040000fa
:0400840084050000ef
:020000040000fa
:040088005805000017
:020000040000fa
:04008c0084050000e7
:020000040000fa
:0400900084050000e3
:020000040000fa
:0400940084050000df
:020000040000fa
:0400980084050000db
:020000040000fa
:04009c00e602000078
:020000040000fa
:0400a00084050000d3
:020000040000fa
:0400a40084050000cf
:020000040000fa
:0400a80084050000cb
:020000040000fa
:0400ac0084050000c7
:020000040000fa
:0400b00084050000c3
:020000040000fa
:0400b40084050000bf
:020000040000fa
:0400b80060050000df
:020000040000fa
:0400bc0084050000b7
:020000040000fa
:0400c00084050000b3
:020000040000fa
:0400c40084050000af
:020000040000fa
:0400c80084050000ab
:020000040000fa
:0400cc0084050000a7
:020000040000fa
:0400d00084050000a3
:020000040000fa
:0400d400840500009f
:020000040000fa
:0400d800840500009b
:020000040000fa
:0400dc008405000097
:020000040000fa
:0400e0008405000093
:020000040000fa
:0400e400840500008f
:020000040000fa
:0400e800840500008b
:020000040000fa
:0400ec008405000087
:020000040000fa
:0400f0008405000083
:020000040000fa
:0400f400840500007f
:020000040000fa
:0400f800840500007b
:020000040000fa
:0400fc008405000077
:020000040000fa
:040100008405000072
:020000040000fa
:04010400840500006e
:020000040000fa
:04010800840500006a
:020000040000fa
:04010c008405000066
:020000040000fa
:040110008405000062
:020000040000fa
:04011400840500005e
:020000040000fa
:04011800840500005a
:020000040000fa
:04011c008405000056
:020000040000fa
:040120008405000052
:020000040000fa
:04012400840500004e
:020000040000fa
:04012800840500004a
:020000040000fa
:04012c008405000046
:020000040000fa
:040130008405000042
:020000040000fa
:04013400840500003e
:020000040000fa
:04013800840500003a
:020000040000fa
:04013c008405000036
:020000040000fa
:040140008405000032
:020000040000fa
:04014400840500002e
:020000040000fa
:04014800840500002a
:020000040000fa
:04014c008405000026
:020000040000fa
:040150008405000022
:020000040000fa
:04015400840500001e
:020000040000fa
:04015800840500001a
:020000040000fa
:04015c008405000016
:020000040000fa
:040160008405000012
:020000040000fa
:04016400840500000e
:020000040000fa
:040208008405000069
:020000040000fa
:04020c008405000065
:020000040000fa
:040210008405000061
:020000040000fa
:04021400840500005d
:020000040000fa
:040218008405000059
:020000040000fa
:04021c008405000055
:020000040000fa
:040220008405000051
:020000040000fa
:04022400840500004d
:020000040000fa
:040228008405000049
:020000040000fa
:04022c008405000045
:020000040000fa
:040230008405000041
:020000040000fa
:04023400840500003d
:020000040000fa
:040238008405000039
:020000040000fa
:04023c008405000035
:020000040000fa
:040240008405000031
:020000040000fa
:04024400840500002d
:020000040000fa
:040248008405000029
:020000040000fa
:04024c008405000025
:020000040000fa
:040250008405000021
:020000040000fa
:04025400840500001d
:020000040000fa
:040258008405000019
:020000040000fa
:04025c008405000015
:020000040000fa
:040260008405000011
:020000040000fa
:04026400840500000d
:020000040000fa
:040268008405000009
:020000040000fa
:04026c008405000005
:020000040000fa
:040270008405000001
:020000040000fa
:0402740084050000fd
:020000040000fa
:0402780084050000f9
:020000040000fa
:04027c0084050000f5
:020000040000fa
:0402800084050000f1
:020000040000fa
:0402840084050000ed
:020000040000fa
:0402880084050000e9
:020000040000fa
:04028c0084050000e5
:020000040000fa
:0402900084050000e1
:020000040000fa
:0402940084050000dd
:020000040000fa
:0402980084050000d9
:020000040000fa
:04029c0084050000d5
:020000040000fa
:0402a00084050000d1
:020000040000fa
:0402a40084050000cd
:020000040000fa
:0402a80084050000c9
:020000040000fa
:0402ac0084050000c5
:020000040000fa
:0402b00084050000c1
:020000040000fa
:0402b40084050000bd
:020000040000fa
:0402b80084050000b9
:020000040000fa
:0402bc0084050000b5
:020000040000fa
:0402c00084050000b1
:020000040000fa
:0402c40084050000ad
:020000040000fa
:0402c80084050000a9
:020000040000fa
:0402cc0084050000a5
:020000040000fa
:0402d00084050000a1
:020000040000fa
:0402d400840500009d
:020000040000fa
:0402d8008405000099
:020000040000fa
:0402dc008405000095
:020000040000fa
:0402e0008405000091
:020000040000fa
:0402e400840500008d
:020000040000fa
:0402e8008405000089
:020000040000fa
:0402ec008405000085
:020000040000fa
:0402f0008405000081
:020000040000fa
:0402f400840500007d
:020000040000fa
:0402f8008405000079
:020000040000fa
:0402fc008405000075
:020000040000fa
:040300008405000070
:020000040000fa
:04030400840500006c
:020000040000fa
:040308008405000068
:020000040000fa
:04030c008405000064
:020000040000fa
:040310008405000060
:020000040000fa
:04031400840500005c
:020000040000fa
:040318008405000058
:020000040000fa
:04031c008405000054
:020000040000fa
:040320008405000050
:020000040000fa
:04032400840500004c
:020000040000fa
:040328008405000048
:020000040000fa
:04032c008405000044
:020000040000fa
:040330008405000040
:020000040000fa
:04033400840500003c
:020000040000fa
:040338008405000038
:020000040000fa
:04033c008405000034
:020000040000fa
:040340008405000030
:020000040000fa
:04034400840500002c
:020000040000fa
:040348008405000028
:020000040000fa
:04034c008405000024
:020000040000fa
:040350008405000020
:020000040000fa
:04035400840500001c
:020000040000fa
:040358008405000018
:020000040000fa
:04035c008405000014
:020000040000fa
:040360008405000010
:020000040000fa
:04036400840500000c
:020000040000fa
:100400002f8220008e7224000e0188000000000060
:10041000000020000000e000020032000001200087
:100420002002880014000700b90107000000e00066
:1004300003003a00a0f7200001002000020037006e
:100440000000200001002000810f70000100320038
:1004500014000700000020000000e000020032004d
:100460000000020000000000680e02000000000012
:100470000040da000000fe004440a900e004200033
:100480000000e0000300320000002000a00188000e
:100490004440a800000006008a1f78008b1f7800e7
:1004a0000000060091018800800478000000eb0045
:1004b0001a003700e284440032a0b4009905ba0063
:1004c000e284440032a0b4009906ba00e2844400f9
:1004d00032a0b4000006eb00476fde00fd07b2005b
:1004e000636ce10003003a00ebff07000000eb0043
:1004f0000a003700606ce10004003a00005deb0088
:100500008b05e900fdff3e00040037006168e10053
:10051000010032000086eb000b00070019c7ba008b
:100520001905ba000e04e00003003a000a00e000da
:10053000e0ff3a0000000600fe07b2009e018800be
:100540008a047800f5ff3700395dba008b05e900b1
:100550000c003200295dba008b05e900080032006a
:100560000c00e00003003a00e284440032a0b40032
:10057000f5ff370019ddba008b05e900faff3a00f4
:100580008904e800e184440032a0b40000000600c1
:1005900000000000000000000000fa008400a90034
:1005a0000080fa0000400600801f78000000fa007a
:1005b0000cc8bf000004a2000ce8b7008680a900a8
:1005c0000080fa004f00780000400600801f78008d
:1005d0000000fa000dc8bf000004a2000de8b7003b
:1005e00087a0a9000080fa004f00780000400600b4
:1005f0003600f800809fbe00829fbe00849fbe0030
:10060000869fbe00889fbe001800fa006000b800f8
:10061000008fbe006000b8002007980031079800e6
:100620000840800019408000200f80008000eb000f
:10063000c60107000001be000800be00350107002a
:10064000a10107004007980051079800284080004a
:1006500039408000a00f80008000eb00bb01070044
:100660000001be000800be002a0107009601070035
:10067000600798007107980092408000a3408000b6
:100680004e009000de009000020040008380480091
:1006900090408800a1408800b0408000c1408000a8
:1006a0004e019000de019000000051008180590051
:1006b000000f9800110f98004e019000de0190008d
:1006c000b2408800c34088004e009000de009000d9
:1006d0000000400081804800008fbe00d2408000b2
:1006e000e34080006e009000fe0090000200400099
:1006f00083804800d0408800e1408800f0408000be
:10070000014180006e019000fe0190000000510048
:1007100081805900200f9800310f98004e01900001
:10072000de019000b2408800c34088006e00900057
:10073000fe009000000040008180480020079800e3
:1007400031079800600880008000eb00be0f500069
:10075000ae8f580021003c004e009000de0090005b
:10076000e00f5000e08f580005003400c402a800dc
:10077000c422a90060088000000c88003700370000
:100780004e019000de019000c0e02f00f1ff2f002d
:10079000800f5100818f59000b0035004e019000f1
:1007a000de019000401f200001002000800f51005a
:1007b000818f590004003c00c402a800c422a80094
:1007c0008021ef0025003700c402a900c422a80040
:1007d00060088000000c8800200037004e00900068
:1007e000de009000e00f5000e08f5800050034005c
:1007f000c402a800c422a9001e007800000c8800d2
:10080000160037004e019000de019000c0e02f007e
:10081000f1ff2f00800f5100818f59000b00350030
:100820004e019000de019000401f200001002000da
:10083000800f5100818f590004003c00c402a800c1
:10084000c422a8008021ef0004003700c402a900e0
:10085000c422a8001e007800000c880060088000f8
:100860006101b8002e009000be009000800f510082
:10087000818f590021003c006e009000fe00900026
:10088000e00f5000e08f580005003400cda2a80012
:10089000cde2a90060088000300c880037003700e6
:1008a0006e019000fe019000c0e02f00f1ff2f00cc
:1008b000800f5100818f59000b0035006e019000b0
:1008c000fe019000401f200001002000800f510019
:1008d000818f590004003c00cda2a800cde2a80001
:1008e0008621ef0025003700cda2a900cde2a800a7
:1008f00060088000300c8800200037006e009000f7
:10090000fe009000e00f5000e08f5800050034001a
:10091000cda2a800cde2a9002e009000300c8800e6
:10092000160037006e019000fe019000c0e02f001d
:10093000f1ff2f00800f5100818f59000b0035000f
:100940006e019000fe019000401f20000100200079
:10095000800f5100818f590004003c00cda2a800f7
:10096000cde2a8008621ef0004003700cda2a90047
:10097000cde2a8002e009000300c88008460a90011
:100980000080fa004f04be004f03be004f02be00bd
:100990004f01be004f00be003600f90000400600c7
:1009a0000000fa008480a9000080fa0000400600e0
:1009b0003600f800809fbe00829fbe00849fbe006c
:1009c000869fbe000000fa0022032000e17c240084
:1009d000807324007101070099e3a8009be3a8003d
:1009e000e07c240010407800e14f400028003a00ed
:1009f000f07c240010407800f04f400002003a00e4
:100a00000e68ef0022003700f07c240010407800d0
:100a1000ef4f400003003a0010c0b3000ee8b700eb
:100a20001b003700f07c240010407800ee4f40009f
:100a300003003a0020c0b3000ee8b70014003700ee
:100a4000f07c240010407800ed4f400003003a0095
:100a500030c0b3000ee8b7000d003700f07c240072
:100a600010407800ec4f400003003a0040c0b30053
:100a70000ee8b70006003700f07c24001040780034
:100a8000e14f400002003a0000c0eb000ee8b70062
:100a900085c0a9000080fa004f03be004f02be00cf
:100aa0004f01be004f00be003600f90000400600b6
:100ab0000000fa008700a9000080fa00004006004c
:100ac000809fbe000000fa00a0762400104078004d
:100ad000e14f400008003a00b076240090407800d2
:100ae000a0cab30080cf500003003a00c0762400b3
:100af0001040780010e8b7008880a9000080fa0054
:100b00004f00be00004006000040da000000fe007a
:100b10000000050003f0a200889fbe008a9fbe006f
:100b20008c1f7800c6000700cd0033006450e10040
:100b30004f0032006420e1005200320003826c005a
:100b400007003b000905d0000306d000820f5400c7
:100b50000c065d00020039000200320089017800b5
:100b6000030678008582550004003d000003fd0067
:100b70008103fd008502ea008b854200840f72002c
:100b800002003b0060001000e08018006011b80017
:100b90000005eb007a28e1000a0039000600780021
:100ba000c75ddd00f707b200878075002d003700b4
:100bb000828171000a017800610560008180d100a6
:100bc0000080d3008502e900f9ff3b0006044000e5
:100bd0008784480002003b0060041400e0841c008d
:100be0000988a300070032008a81710082817100a8
:100bf000610164008904d1000884d3008b05e800fa
:100c0000170037000978a30013003a000b00e0003a
:100c1000130034008b05e9000804440089844c006b
:100c20000a4474000978a3000d003a000b00e000ac
:100c3000070034008b05e9000804440089844c0057
:100c400001003a000b0020000978a300f7ff3200f2
:100c50000001eb0002003700828171000a01780078
:100c60003c0007000cf0a70001f0a0008500370051
:100c70006420e10002003a00838f6c00850033009d
:100c80000801be000200be007e003700839f68009e
:100c90000100e00002003d0060001000e08018004c
:100ca0000300e00002003d0060011100e081190036
:100cb0007b0007004f00e00002003b0060001000d6
:100cc000e0801800000006000001be004700070099
:100cd0000470a70003f0a1006509b10016003200fe
:100ce0000d0035006828e10006003500f0ff2f00f8
:100cf000f1ff27000300e00013003b000100280083
:100d00000000050000004000818048008502e900e5
:100d1000fcff3a0008003700f88f420002003c0058
:100d20008000eb00000005008100d1000080d300ae
:100d30008502e800fcff3a000300e00002003b00ef
:100d400060001000e0801800000006006011b8008c
:100d50006300370081002000618055000b003d00da
:100d60000b00200061fe2f000100e1001d00340097
:100d700082817100610164008904d1000884d3007c
:100d80000000e800faff3a007100200061006400f2
:100d9000030070000200600009003200610444009a
:100da000e0844c000988a500050032008b05e800ae
:100db0006808e10002003a008904d1000884d300e9
:100dc000f20f20000258e10005003d00c75ddd0084
:100dd000f907b2008980750008007800000006005d
:100de0000bf827008b00780000000500c70ade0022
:100df000f107b200f50fb20008003200e1cf420067
:100e0000020032000170a00024000500810f700074
:100e1000010032000408050044000500810f700045
:100e200002003a00140005008502e90000004000bd
:100e300081c04800fcff3b000170a00024000500b9
:100e40000004be00e9ff07000003be000405be0069
:100e50000200be00e5ff0700844f75000000060099
:100e60000200be006450e100050036006420e1008d
:100e7000020036000968a30001003a000800be0025
:100e80000160a0004f0678004f05be004f04be0071
:100e900000000600f0ff2f00f1ff2700f9ff3700e8
:100ea0006022b800060220000000d0008180d2003d
:100eb0000482d2008582d2000000a000020252000b
:100ec00083825a00030031000202420083824a00fa
:100ed0000000a1000603e900f3ff3a00000006004d
:100ee000889fbe008a9fbe000082700004027100cd
:100ef00004827100260032000004be000200be0021
:100f00006011b8006b092000950220000182cf001b
:100f10000a0039000541b1000082cf000700390006
:100f20000541b1000982cf00040039000541b1003c
:100f30000882cf00010039000541b100054252008e
:100f4000120032000a003b008281710061016400de
:100f50008100d1000080d3008984d3000884d300ad
:100f60008b05e8000442e800f7ff3a00070037006d
:100f70000804440089844c00000048008180480037
:100f80008b05e9000442e900f9ff3a0071ff070010
:100f90004f05be004f04be0000000600800178002f
:100fa00002003700b15978000201e9000200e000b8
:100fb000fcff3a0000000600800078000101780084
:100fc0003104e000fdff3a0000005100000006007f
:020000040000fa
:100fd0007374000061740000652000003d20000073
:100fe0003020000000730000746100007465000090
:100ff000203d00002031000020000000737400003c
:1010000061740000652000003d20000032200000d7
:10101000007300007461000074650000203d000052
:101020002033000020000000737400006174000091
:10103000652000003d200000342000000073000007
:101040007461000074650000206500007874000081
:101050007261000020000000636f00006d700000ee
:0c1060006c6500007465000000000000da
:020000040000fa
:10106c000000fa00f0032000303a8800213a80009a
:10107c0000fe2f00008060000000a000203a8800d5
:10108c00213a8000f0f32f0000806000203a8800a5
:10109c004827ef001200200080072000a109200043
:1010ac0033742000804978008149780082497800a7
:1010bc001200200060042000710520002374200021
:1010cc00804978008149780082497800000000004e
:1010dc00113a800000002700808060000000210091
:1010ec00808f5000faff3a0000000000113a800097
:1010fc0000022000008060000000e000fbff3200d6
:10110c000080fa00000006000000fa000080eb00ee
:10111c0060198800c842a800c862a800c8e2a800ec
:10112c00c902a800c922a800c942a800c982a90006
:10113c00c9a2a900c9c2a900c9e2a900c002a9009c
:10114c00c022a9000080fa00000006000400fa008a
:10115c00000f7800110798001e0078000000e000d6
:10116c0005003a0081088000f0fc2f000080600030
:10117c00800888001b0037001e007800e80f500024
:10118c0006003a0081088000f0fc2f00008060000f
:10119c000040a000800888001200370000042000e6
:1011ac009e007800808f500006003a008108800075
:1011bc00f0fc2f00008060000050a0008008880028
:1011cc0008003700001020009e007800808f50002f
:1011dc0004003a0081088000000320000100700028
:1011ec00800888001e0078008000eb000001be0023
:1011fc0000a0250021262000a1fe07000002be0051
:10120c001e0090008000eb000001be000400be0038
:10121c009bfe070000007800600888008021ef002a
:10122c008621ef00210c800080ff2f0000806000e1
:10123c00200c88008461a900210c800080ff2f0005
:10124c00008060006000b300200c8800510c80000e
:10125c0080ff2f0000806000500c88008a61a9007c
:10126c00510c800080ff2f00008060006000b300f4
:10127c00500c8800113a8000f00b200000816000b7
:10128c006004200071052000237420008049780040
:10129c0081497800824978006136800000fe2f0079
:1012ac00008060002001b300603688007136800039
:1012bc0000fe2f00008060003001b3007036880003
:1012cc00103a8000000178000260a0006004200049
:1012dc007105200023742000804978008149780032
:1012ec00824978000080fa00000006000000fa0035
:1012fc0021088000f0fc2f00008060000050a0004e
:10130c0020088800801a2600100888009460a80025
:10131c0021058000f0ff28000080600000e0a000a4
:10132c00200588000080fa00000006000200fa0088
:10133c00004f7800114798001e40900067406000f5
:10134c000080fb00670060002205800081ff2f00f9
:10135c008100610001007000200588009e4078002b
:10136c0061c060000080fb0061006000110480001f
:10137c000100a10001007000100488009400a80076
:10138c000080fa00000006000400fa00004f78000c
:10139c001147980022479800113a8000f00b20006a
:1013ac00008160006004200071052000237420007f
:1013bc008049780081497800824978009e40780005
:1013cc007fc060000080fb007f0060004800dd00f3
:1013dc0002348000f10f2e008100610001007000ca
:1013ec0000348800103a8000000178000260a000f0
:1013fc0060042000710520002374200080497800cf
:10140c0081497800824978002e4090006740600046
:10141c000080fb00670060007205800081ff2f00d8
:10142c008100610001007000700588001e40900072
:10143c00614060000080fb00610060000000400023
:10144c00110480000110a10001007000100488003c
:10145c009680a8000080fa00000006000400fa0044
:10146c00004f78001147980022479800113a8000ed
:10147c00f00b20000081600060042000710520004a
:10148c0023742000804978008149780082497800d3
:10149c009e4078007fc060000080fb007f006000f1
:1014ac001234800001fe2f008100610001007000e9
:1014bc0010348800103a8000000178000260a0000f
:1014cc0060042000710520002374200080497800fe
:1014dc0081497800824978002e4090006740600076
:1014ec000080fb00670060004400dd009205800076
:1014fc00f1f82f0081006100010070009005880058
:10150c001e409000614060000080fb0061006000a4
:10151c004200dd00110480000120a10001007000d8
:10152c001004880097a0a8000080fa0000000600b4
:10153c000000fa00113a8000f00b200000816000de
:10154c00600420007105200023742000804978007d
:10155c008149780082497800e134800000fe2f0038
:10156c00008060007000b300e0348800e13480003b
:10157c00f00f2e000080600000b0a000e034880066
:10158c000135800000fe2f0000806000a000b30039
:10159c000035880001358000f00f2e00808060003f
:1015ac00009020000100700000358800103a800087
:1015bc00000178000260a00060042000710520008a
:1015cc002374200080497800814978008249780092
:1015dc00010f8000f08f2f0000806000000f88004a
:1015ec00e0c1a900010f8000f08f2f008080600007
:1015fc000050200001007000000f8800810f800057
:10160c00f08f2f0000806000800f8800f0c1a900cf
:10161c00810f8000f08f2f00808060000050200030
:10162c0001007000800f88000080fa0000000600a6
:10163c000000fa002002a9000111800090ff2f0089
:10164c00008060000011880020a2a9004001200049
:10165c004011880023a2a90023e2a90011118000e7
:10166c00f0f32f00008060001011880021e2a80028
:10167c002342a8009c20a9000080fa00000006006c
:10168c000000fa003002a9008111800090ff2f00a9
:10169c00008060008011880030a2a9004001200069
:1016ac00c011880033a2a90033e2a9009111800077
:1016bc00f0f32f00008060009011880031e2a80048
:1016cc003342a8000080fa00000006000000fa0077
:1016dc00c0002000101c880040222000401c880004
:1016ec00011c8000f0fc2f0000806000001c8800b2
:1016fc00011c8000c0ff2f00008060000000a000d3
:10170c00001c880081a3a80081c3a8001000200041
:10171c00501c8800c0792000201c88008480a900ff
:10172c009480a8000080fa00000006000000fa0077
:10173c00b0002000701c880060222000a01c8800d3
:10174c00611c8000f0fc2f0000806000601c880091
:10175c00611c8000c0ff2f0000806000601c8800ae
:10176c008da3a9008dc3a800a0002000b01c880088
:10177c00e07c2000801c880085c0a90095c0a800d2
:10178c008de3a8000080fa00000006000000fa00bb
:10179c00f0012000d01c880040232000001d880090
:1017ac00c11c8000f0fc2f0000806000c01c880071
:1017bc00c11c8000c0ff2f00008060000000a00052
:1017cc00c01c880099a3a80099c3a8005000200051
:1017dc00101d880080732000e01c88008700a90081
:1017ec009700a8000080fa00000006000000fa0034
:1017fc00e0012000301d880060232000601d88005f
:10180c00211d8000f0fc2f0000806000201d88004e
:10181c00211d8000c0ff2f0000806000201d88006b
:10182c00a5a3a900a5c3a800a0002000701d8800d6
:10183c00a0762000401d88008880a9009880a80010
:10184c00a5e3a8000080fa00000006000000fa00e2
:10185c0003fe0700411f2000800020003bfe070014
:10186c00a2fe070072c0b30011c0b30020c0b300c9
:10187c00c5fe070072c0b30011c0b30030c0b30086
:10188c00f6fe07002aff07001ffe070005e1a9006e
:10189c000080fa00000006000200fa00004f7800f9
:1018ac00114798001e407800e14f40000d003a00af
:1018bc00c402a900c422a80060088000c200de0097
:1018cc00b04721000008b8008100d1001e409000f4
:1018dc000000fb000088b90000007800000c8800b4
:1018ec00160037001e4078000004e00004003a00a7
:1018fc00c402a800c422a8008021ef000f0037000a
:10190c001e407800e14f50000c003a00c402a800c1
:10191c00c422a90060088000c200de00b04721008c
:10192c000008b8008100d1001e4090000000fb00b0
:10193c000088b90000007800000c88000080fa00d4
:10194c00000006000200fa00004f780011479800d2
:10195c001e407800e14f40000d003a00cda2a900d6
:10196c00cde2a80060088000c200de00b047210074
:10197c000008b8008100d1001e4090000000fb0060
:10198c000088b90000007800300c88001600370081
:10199c001e4078000004e00004003a00cda2a8002c
:1019ac00cde2a8008621ef000f0037001e40780022
:1019bc00e14f50000c003a00cda2a800cde2a900e6
:1019cc0060088000c200de00b04721000008b800ab
:1019dc008100d1001e4090000000fb000088b9007f
:1019ec0000007800300c88000080fa00000006002f
:1019fc000000fa00c0792000201c8800c079240067
:101a0c006afd07000000e900501c880081e3a80073
:101a1c0083e3a8000080fa00000006000000fa0032
:101a2c0080732000e01c8800807324005ffd070099
:101a3c000000e900101d880099e3a8009be3a800b2
:101a4c000080fa00000006000200fa00004f780047
:101a5c001e80fb00a01188000080fa000000060028
:101a6c000200fa00004f78000000000010c8bf0010
:101a7c009e4f5000fdff3a000080fa000000060067
:101a8c000200fa000040eb00004f78000040eb0031
:101a9c001047980005e1a9000dc8bf00e14f5000a8
:101aac000e003a001e4078000004e0000b003a00e3
:101abc00f1c0b30010c0b30077ff070041e3200072
:101acc00800c2000010001008040eb000040eb0086
:101adc0071ff070010c0b300004f78000cc8bf00a6
:101aec00e14f50001f003a001e4090000004e0003f
:101afc001e003a0041c1b30010c0b30091ff0700b3
:101b0c0041e32000800c2000010001008040eb002c
:101b1c000040eb008bff070010c0b300104798008b
:101b2c0013003700a1c0b30000c0eb005aff070040
:101b3c00050037008040eb000040eb0056ff07002b
:101b4c0010c0b300004f78000dc8bf000004e000c7
:101b5c00070032001e4078000004e000f5ff320060
:101b6c0003003700000000000100370000000000f7
:101b7c000dc8bf000004e000eaff32001e407800f0
:101b8c000004e000e7ff32000e003700f1c0b300a4
:101b9c0000c0eb006bff07000cc8bf00e14f50000a
:101bac0008003a001e4090000004e00005003a00d6
:101bbc008040eb000040eb0062ff070010c0b30058
:101bcc00104798000cc8bf000004e000efff320083
:101bdc001e4090000004e000ecff32001e40780034
:101bec00e14f50001a003a001e409000e14f5000a7
:101bfc0017003a00a1c0b30010c0b30026ff0700c5
:101c0c00f1c0b30010c0b3004eff070041e3200049
:101c1c0040062000010001008040eb000040eb007a
:101c2c001dff07008040eb000040eb0045ff070064
:101c3c0041e32000803e200001000100e421ef0080
:101c4c00f421ef0041e320004006200001000100d8
:101c5c0005e1a8000080fa00000006000600fa006a
:101c6c00200798000000eb00000f78000000eb004c
:101c7c00100798000000eb00000f78000b003700f5
:101c8c000000eb0010079800030037001e009000c6
:101c9c000000e800100798009e00900000fa200059
:101cac00808f5000f9ff34001e0fe8002e009000ca
:101cbc009e007800808f5000f1ff34000080fa0005
:101ccc00000006000000fa000600fc001202800072
:101cdc00020eb30012028800dcfe0700113a8000ed
:101cec00f00b2000008160006004200071052000d2
:101cfc00237420008049780081497800824978005b
:101d0c0021368000f00f2e00808060000030200013
:101d1c0001007000203688002135800000fe2f0065
:101d2c00008060006000b300203588002136800000
:101d3c0000fe2f00008060005000b30020368800a9
:101d4c003135800000fe2f0000806000b000b30031
:101d5c0030358800103a8000000178000260a00045
:101d6c006004200071052000237420008049780055
:101d7c0081497800824978000600fc00110280003d
:101d8c00f141b2001102880050fe07007ffe0700ef
:101d9c0066fe070095fe070025fe070038fe0700cb
:101dac000100370000000000e18020009140780025
:101dbc000fc8bf0080cf5000faff32000ec8bf0022
:101dcc000004e00006003a00c0792400b2002000b4
:101ddc00817e28006efc070005ff07003f003700de
:101dec000ec8bf00e14f50000b003a00c079240030
:101dfc00b2002000317f280065fc0700fcfe0700c4
:101e0c0010cbb30016ff07001dff07001068ef0092
:101e1c000e68ef00310037000ec8bf00e24f5000d3
:101e2c0007003a00c0792400b2002000e17f2800ae
:101e3c0057fc0700eefe07000e68ef002700370086
:101e4c000ec8bf00e34f500007003a00c0792400d1
:101e5c00b2002000918028004dfc0700e4fe070032
:101e6c000e68ef001d0037000ec8bf00e44f500095
:101e7c0007003a00c0792400b200200041812800fc
:101e8c0043fc0700dafe07000e68ef001300370072
:101e9c000ec8bf00e14f400010003a00c07924008a
:101eac00d2002000f181280039fc0700d0fe070089
:101ebc00803e200069ff0700c0ccb300e2fe0700a3
:101ecc00c079240092002000c182280030fc070059
:101edc00c7fe07001068ef000e68ef000ec8bf00c9
:081eec000fe8b700b0ff37005a
:020000040000fa
:101ef400000800002200000000000000ce4700009f
:101f040032000000000000009c4700003200000086
:101f1400000000006a4700003200000000000000da
:101f240038470000320000000000000000000000fc
:020000040000fa
:0200000401f009
:04000000ffff0000fe
:020000040000fa
:0200000401f009
:04000400ffff0000fa
:020000040000fa
:0200000401f009
:04000800ffff0000f6
:020000040000fa
:0200000401f009
:04000c008000000070
:020000040000fa
:0200000401f009
:0400100007000000e5
:020000040000fa
:0200000401f009
:040014005f00000089
:020000040000fa
:0200000401f009
:04001800f7000000ed
:020000040000fa
:0200000401f009
:04001c00dfff000002
:00000001FF
