:020000040000fa
:080000000002040000000000f2
:020000040000fa
:0400080028090000c3
:020000040000fa
:04000c0028090000bf
:020000040000fa
:0400100028090000bb
:020000040000fa
:0400140028090000b7
:020000040000fa
:0400180028090000b3
:020000040000fa
:04001c0028090000af
:020000040000fa
:0400200028090000ab
:020000040000fa
:0400240028090000a7
:020000040000fa
:04002800d8020000fa
:020000040000fa
:04002c00280900009f
:020000040000fa
:04003000280900009b
:020000040000fa
:040034004403000081
:020000040000fa
:0400380016060000a8
:020000040000fa
:04003c00280900008f
:020000040000fa
:04004000280900008b
:020000040000fa
:040044002809000087
:020000040000fa
:040048002809000083
:020000040000fa
:04004c00280900007f
:020000040000fa
:04005000280900007b
:020000040000fa
:040054002809000077
:020000040000fa
:040058002809000073
:020000040000fa
:04005c00280900006f
:020000040000fa
:040060001e06000078
:020000040000fa
:040064002809000067
:020000040000fa
:040068002809000063
:020000040000fa
:04006c00280900005f
:020000040000fa
:04007000280900005b
:020000040000fa
:040074002809000057
:020000040000fa
:04007800e0020000a2
:020000040000fa
:04007c00280900004f
:020000040000fa
:04008000280900004b
:020000040000fa
:040084002809000047
:020000040000fa
:04008800fc08000070
:020000040000fa
:04008c00280900003f
:020000040000fa
:04009000280900003b
:020000040000fa
:040094000403000061
:020000040000fa
:040098002809000033
:020000040000fa
:04009c00f20200006c
:020000040000fa
:0400a000280900002b
:020000040000fa
:0400a4002809000027
:020000040000fa
:0400a8002809000023
:020000040000fa
:0400ac00280900001f
:020000040000fa
:0400b000280900001b
:020000040000fa
:0400b4002809000017
:020000040000fa
:0400b8000409000037
:020000040000fa
:0400bc00280900000f
:020000040000fa
:0400c000280900000b
:020000040000fa
:0400c4002809000007
:020000040000fa
:0400c8002809000003
:020000040000fa
:0400cc0028090000ff
:020000040000fa
:0400d00028090000fb
:020000040000fa
:0400d40028090000f7
:020000040000fa
:0400d80028090000f3
:020000040000fa
:0400dc0028090000ef
:020000040000fa
:0400e00028090000eb
:020000040000fa
:0400e40028090000e7
:020000040000fa
:0400e80028090000e3
:020000040000fa
:0400ec0028090000df
:020000040000fa
:0400f00028090000db
:020000040000fa
:0400f40028090000d7
:020000040000fa
:0400f80028090000d3
:020000040000fa
:0400fc0028090000cf
:020000040000fa
:0401000028090000ca
:020000040000fa
:0401040028090000c6
:020000040000fa
:0401080028090000c2
:020000040000fa
:04010c0028090000be
:020000040000fa
:0401100028090000ba
:020000040000fa
:0401140028090000b6
:020000040000fa
:0401180028090000b2
:020000040000fa
:04011c0028090000ae
:020000040000fa
:0401200028090000aa
:020000040000fa
:0401240028090000a6
:020000040000fa
:0401280028090000a2
:020000040000fa
:04012c00280900009e
:020000040000fa
:04013000280900009a
:020000040000fa
:040134002809000096
:020000040000fa
:040138002809000092
:020000040000fa
:04013c00280900008e
:020000040000fa
:04014000280900008a
:020000040000fa
:040144002809000086
:020000040000fa
:040148002809000082
:020000040000fa
:04014c00280900007e
:020000040000fa
:04015000280900007a
:020000040000fa
:040154002809000076
:020000040000fa
:040158002809000072
:020000040000fa
:04015c00280900006e
:020000040000fa
:04016000280900006a
:020000040000fa
:040164002809000066
:020000040000fa
:0402080028090000c1
:020000040000fa
:04020c0028090000bd
:020000040000fa
:0402100028090000b9
:020000040000fa
:0402140028090000b5
:020000040000fa
:0402180028090000b1
:020000040000fa
:04021c0028090000ad
:020000040000fa
:0402200028090000a9
:020000040000fa
:0402240028090000a5
:020000040000fa
:0402280028090000a1
:020000040000fa
:04022c00280900009d
:020000040000fa
:040230002809000099
:020000040000fa
:040234002809000095
:020000040000fa
:040238002809000091
:020000040000fa
:04023c00280900008d
:020000040000fa
:040240002809000089
:020000040000fa
:040244002809000085
:020000040000fa
:040248002809000081
:020000040000fa
:04024c00280900007d
:020000040000fa
:040250002809000079
:020000040000fa
:040254002809000075
:020000040000fa
:040258002809000071
:020000040000fa
:04025c00280900006d
:020000040000fa
:040260002809000069
:020000040000fa
:040264002809000065
:020000040000fa
:040268002809000061
:020000040000fa
:04026c00280900005d
:020000040000fa
:040270002809000059
:020000040000fa
:040274002809000055
:020000040000fa
:040278002809000051
:020000040000fa
:04027c00280900004d
:020000040000fa
:040280002809000049
:020000040000fa
:040284002809000045
:020000040000fa
:040288002809000041
:020000040000fa
:04028c00280900003d
:020000040000fa
:040290002809000039
:020000040000fa
:040294002809000035
:020000040000fa
:040298002809000031
:020000040000fa
:04029c00280900002d
:020000040000fa
:0402a0002809000029
:020000040000fa
:0402a4002809000025
:020000040000fa
:0402a8002809000021
:020000040000fa
:0402ac00280900001d
:020000040000fa
:0402b0002809000019
:020000040000fa
:0402b4002809000015
:020000040000fa
:0402b8002809000011
:020000040000fa
:0402bc00280900000d
:020000040000fa
:0402c0002809000009
:020000040000fa
:0402c4002809000005
:020000040000fa
:0402c8002809000001
:020000040000fa
:0402cc0028090000fd
:020000040000fa
:0402d00028090000f9
:020000040000fa
:0402d40028090000f5
:020000040000fa
:0402d80028090000f1
:020000040000fa
:0402dc0028090000ed
:020000040000fa
:0402e00028090000e9
:020000040000fa
:0402e40028090000e5
:020000040000fa
:0402e80028090000e1
:020000040000fa
:0402ec0028090000dd
:020000040000fa
:0402f00028090000d9
:020000040000fa
:0402f40028090000d5
:020000040000fa
:0402f80028090000d1
:020000040000fa
:0402fc0028090000cd
:020000040000fa
:0403000028090000c8
:020000040000fa
:0403040028090000c4
:020000040000fa
:0403080028090000c0
:020000040000fa
:04030c0028090000bc
:020000040000fa
:0403100028090000b8
:020000040000fa
:0403140028090000b4
:020000040000fa
:0403180028090000b0
:020000040000fa
:04031c0028090000ac
:020000040000fa
:0403200028090000a8
:020000040000fa
:0403240028090000a4
:020000040000fa
:0403280028090000a0
:020000040000fa
:04032c00280900009c
:020000040000fa
:040330002809000098
:020000040000fa
:040334002809000094
:020000040000fa
:040338002809000090
:020000040000fa
:04033c00280900008c
:020000040000fa
:040340002809000088
:020000040000fa
:040344002809000084
:020000040000fa
:040348002809000080
:020000040000fa
:04034c00280900007c
:020000040000fa
:040350002809000078
:020000040000fa
:040354002809000074
:020000040000fa
:040358002809000070
:020000040000fa
:04035c00280900006c
:020000040000fa
:040360002809000068
:020000040000fa
:040364002809000064
:020000040000fa
:10040000cf8a20008e7224000e01880000000000b8
:10041000000020000000e000020032000001200087
:1004200020028800140007008b0307000000e00092
:1004300003003a00a027220001002000020037003c
:100440000000200001002000810f70000100320038
:1004500014000700000020000000e000020032004d
:1004600000000200000000003c200200000000002c
:100470000040da000000fe004440a90040022000d5
:100480000000e0000300320000002000a00188000e
:100490004440a800000006008a1f78008b1f7800e7
:1004a0000000060091018800800478000000eb0045
:1004b0001a003700e284440032a0b4009905ba0063
:1004c000e284440032a0b4009906ba00e2844400f9
:1004d00032a0b4000006eb00476fde00fd07b2005b
:1004e000636ce10003003a00ebff07000000eb0043
:1004f0000a003700606ce10004003a00005deb0088
:100500008b05e900fdff3e00040037006168e10053
:10051000010032000086eb000b00070019c7ba008b
:100520001905ba000e04e00003003a000a00e000da
:10053000e0ff3a0000000600fe07b2009e018800be
:100540008a047800f5ff3700395dba008b05e900b1
:100550000c003200295dba008b05e900080032006a
:100560000c00e00003003a00e284440032a0b40032
:10057000f5ff370019ddba008b05e900faff3a00f4
:100580008904e800e184440032a0b40000000600c1
:10059000000000000000000000000000000000005b
:1005a000000000000000000000000000000000004b
:1005b0000000fa008400a9000080fa000040060054
:1005c000801f78000000fa0046c8bf000004a200a7
:1005d00046e8b7008680a9000080fa004f00780046
:1005e00000400600801f78000000fa0047c8bf00e6
:1005f0000004a20047e8b70087a0a9000080fa0025
:100600004f007800004006003600f800809fbe00d2
:10061000829fbe00849fbe00869fbe00889fbe0052
:100620000000fa00a90f8000280f80000040800021
:10063000114080006104070080007800c079240028
:10064000891f7800881f7800811f7800c19a2900cf
:10065000811f78006f060700e8875700a0eb210094
:10066000000001008760a9000080fa004f04be006e
:100670004f03be004f02be004f01be004f00be0040
:100680003600f900004006003600f800809fbe00ea
:10069000829fbe00849fbe00869fbe00889fbe00d2
:1006a0001000fa0048c8bf00e54f500070003a0043
:1006b0003441800045418000d0408000e14080000e
:1006c0000001be000400be00af0407000002be002f
:1006d00010418000214180000001be000400be00e6
:1006e000df0207000004be007441800085418000e5
:1006f000d0408000e14080000001be000400be0048
:10070000a10407000002be00d0408000e14080004c
:100710000001be000400be009b0407000001be00f3
:100720000800be00ce0207000004be009441800015
:10073000a5418000d0408000e14080000001be0063
:100740000400be00900407000002be00d0408000fc
:10075000e14080000001be000400be008a040700e2
:100760000002be00d0408000e14080000001be00d9
:100770000400be00840407000001be000800be00a3
:10078000b7020700b0418800c1418800f0418000f5
:1007900001428000240407000004be00f0408000f5
:1007a000014180008d0307000002be00b0418000bf
:1007b000c14180000001be000400be0072040700b9
:1007c0000001be000800be00a5020700004088002e
:1007d000114088001042800021428000120407006e
:1007e0000004be00f04080000141800003050700c6
:1007f0000002be00b0418000c14180000001be0087
:100800000400be00600407000001be000800be0036
:10081000930207002040880031408800004080009b
:1008200011408000020020006331240056040700bc
:100830000040880011408800204080003140800046
:1008400002002000633124004f040700204088008c
:1008500031408800d0408000e1408000f226210035
:1008600033b023007e020700d0408800e1408800ba
:100870000840800019408000200f80008000eb00bd
:10088000ec0307000001be000800be007302070071
:10089000a9030700008fbe00284080003940800077
:1008a000a00f80008000eb00e20307000001be0003
:1008b0000800be00690207009f0307002007980098
:1008c00031079800f0428000014380003e01400063
:1008d000ae8148000200be00f0428800014388005b
:1008e00010438000214380003e011000ae811800bb
:1008f0000200be0040079800510798001e01be008c
:1009000012438800234388004e009000de009000d0
:100910003e014000ae8148000200be0000004000e1
:100920008180480040408800514088003243800068
:10093000434380002e009000be0090000200400063
:100940008380480030438800414388005043800042
:10095000614380002e019000be0190000000510014
:100960008180590060079800710798001e01be0041
:1009700012438800234388002e019000be0190009e
:100980006e009000fe00900002004000838048004e
:10099000000040008180480060408800714088006d
:1009a000600880006101b800404080005140800034
:1009b000800f5100818f590020003c001e00be00b6
:1009c000e00f5000e08f580005003400c402a8007a
:1009d000c422a90060088000000c88003a0037009b
:1009e000e0e32f00f1ff2f001e01be00800f510039
:1009f000818f59000c003500201c200001002000d0
:100a00001e01be00800f5100818f590006003c007e
:100a1000c402a800c422a8008021ef0010c0b300c7
:100a200010e8b70028003700c402a900c422a800bb
:100a300060088000000c8800230037001e00be0004
:100a4000e00f5000e08f580007003400c402a800f7
:100a5000c422a9004040800051408000000078007e
:100a6000000c88001800370040ed2f00f1ff2f0028
:100a70001e01be00800f5100818f59000c0035000f
:100a8000c0122000010020001e01be00800f510096
:100a9000818f590006003c00c402a800c422a800af
:100aa0008021ef0010c0b30010e8b7000600370047
:100ab000c402a900c422a800404080005140800028
:100ac00000007800000c8800600880006101b80018
:100ad0006040800071408000800f5100818f59007c
:100ae00023003c002e009000be009000e00f50005c
:100af000e08f580005003400cda2a800cde2a90087
:100b000060088000300c88003f0037002e01900004
:100b1000be01900040ed2f00f1ff2f00800f51002b
:100b2000818f59000d0035002e019000be0190000c
:100b3000c012200001002000800f5100818f590059
:100b400006003c00cda2a800cde2a8008621ef005f
:100b500010c0b30010e8b7002b003700cda2a900e9
:100b6000cde2a80060088000300c88002600370025
:100b70002e009000be009000e00f5000e08f580063
:100b800007003400cda2a800cde2a900604080009b
:100b90007140800000007800300c88001a00370097
:100ba0002e019000be01900040ed2f00f1ff2f00bc
:100bb000800f5100818f59000d0035002e019000eb
:100bc000be019000c012200001002000800f5100e3
:100bd000818f590006003c00cda2a800cde2a800fc
:100be0008621ef0010c0b30010e8b7000600370000
:100bf000cda2a900cde2a800604080007140800035
:100c000000007800300c88008460a9000080fa00a1
:100c10004f04be004f03be004f02be004f01be0096
:100c20004f00be003600f900004006000000fa0048
:100c30008480a9000080fa00004006003600f80019
:100c4000809fbe00829fbe00849fbe00869fbe0024
:100c5000889fbe000200fa00e07c2400104078006b
:100c6000e14f40005b013a00f07c24001040780026
:100c7000f04f40000d003a0022032000e17c2400e8
:100c800080732400cf040700c0ec210000000100a5
:100c9000810022004006200001000100c0ec21007c
:100ca000000001004868ef004a013700f07c240092
:100cb00010407800ef4f40000e003a002203200061
:100cc000e17c240080732400be040700c0ec2100f6
:100cd0000000010081002200400620000100010008
:100ce000c0ec21000000010010c0b30048e8b700cc
:100cf00038013700f07c240010407800ee4f4000af
:100d000016003a0022032000e17c240080732400b6
:100d1000ac04070080732000e01c8800a0002000c5
:100d2000101d880099e3a8009be3a8008100220021
:100d3000400620000100010080732000e01c8800b4
:100d4000a0002000101d880099e3a8009be3a800e4
:100d500020c0b30048e8b7001e013700f07c240033
:100d600010407800ed4f400026003a00220320009a
:100d7000e17c24008073240092040700807320002b
:100d8000e01c8800a0002000101d880099e3a80046
:100d90009be3a80081002200400620000100010022
:100da00080732000e01c8800a0002000101d880037
:100db000007d2400104078000080fb00c800dd00aa
:100dc000107d2400104078000080fb00008040006f
:100dd00090408800207d2400104078000080fb00b7
:100de000c800dd00307d2400104078000080fb004a
:100df00000804000a040880030c0b30048e8b70041
:100e0000f4003700f07c240010407800ec4f4000e4
:100e100025003a0022032000e17c24008073240096
:100e2000680407002203200081732400c079240095
:100e300064040700a0eb2100000001008073200083
:100e4000e01c8800a0002000101d880099e3a80085
:100e50009be3a800007d2400104078000080fb0088
:100e6000c800dd00107d2400104078000080fb00e9
:100e70000080400090408800207d240010407800d1
:100e80000080fb00c800dd00307d240010407800a9
:100e90000080fb0000804000a040880040c0b300fc
:100ea00048e8b700cb003700f07c24001040780001
:100eb000eb4f4000b0003a0005e1a900007d24009e
:100ec000104078000080fb00c800dd00107d240089
:100ed000104078000080fb0000804000cf80de00e2
:100ee0007042880081428800207d240010407800f4
:100ef0000080fb00c800dd00307d24001040780039
:100f00000080fb0000804000cf80de00904288001f
:100f1000a14288007242800083428000f04180003c
:100f2000014280000000510081805900b0428800d9
:100f3000c142880092428000a3428000104280009b
:100f4000214280000000510081805900d042880079
:100f5000e1428800b2428000c3428000b04280007b
:100f6000c1428000009ab90004027800028bb900e7
:100f700086027800050242000011b8000302420018
:100f800084017800d4428000e5428000d042800095
:100f9000e142800000abb90006037800048cb90080
:100fa00088037800070343000020b80001034300d2
:100fb0008600780002004000838048001a02070083
:100fc00010030700d0418800e1418800b042800052
:100fd000c1428000140207000004be00d04280001d
:100fe000e1428000100207000801be00f90007007e
:100ff000f040880001418800d0418000e14180003c
:10100000020020008324240076010700b0408800fd
:10101000c14088006000b80010418800214188006c
:101020006000b8003041880041418800b440800031
:10103000c5408000b0408000c14080000001be007b
:101040000400be00500207000001be0000002000a6
:1010500001042400630107000002be00d0418000ab
:10106000e14180000001be000400be00460207000e
:101070007041880081418800b4408000c5408000f4
:10108000b0408000c14080000001be000400be00ee
:101090003d0207000002be00b0408000c140800059
:1010a0000001be000400be00370207000001be00c0
:1010b0000000200001002c004a0107000002be00d1
:1010c000d0418000e14180000001be000400be006c
:1010d0002d02070090418800a14188006000b800ff
:1010e000d0408800e1408800b0408000c1408000ce
:1010f00002002000a3472400230207008e010700fe
:10110000000f780022032000e17c2400807324007b
:10111000ac030700307424008040eb0001487800e5
:101120009e007800f00f2800008060000000e000c2
:1011300004003d000000e90001f02f000080700075
:101140000000e800804078003074240001487800f6
:1011500080732000e01c8800c0002000101d880063
:1011600099e3a8009be3a80005e1a80050c0b300e4
:1011700048e8b70017003700f07c24009040780062
:10118000a0cab30080cf500004003a00007d2400c4
:10119000104078004be8b7000e003700f07c2400c8
:1011a00010407800e14f400003003a0000c0eb001f
:1011b00048e8b70007003700f07c24009040780032
:1011c000b0cbb30080cf500002003a0030c6b3006d
:1011d00048e8b70085c0a9000080fa004f04be00af
:1011e0004f03be004f02be004f01be004f00be00c5
:1011f0003600f900004006000000fa008700a90050
:101200000080fa0000400600809fbe000000fa0047
:10121000a076240010407800e14f400008003a001a
:10122000b076240090407800a0cab30080cf500070
:1012300003003a00c0762400104078004ae8b70066
:101240008880a9000080fa004f00be000040060020
:101250000040da000000fe000000050003f0a200dc
:10126000889fbe008a9fbe008c1f7800ae010700d9
:10127000b50133006450e1004f0032006420e1000a
:101280005200320003826c0007003b000905d000c9
:101290000306d000820f54000c065d0002003900e6
:1012a000020032008901780003067800858255002b
:1012b00004003d000003fd008103fd008502ea00fb
:1012c0008b854200840f720002003b00600010001a
:1012d000e08018006011b8000005eb007a28e100fa
:1012e0000a00390006007800c75ddd00f707b2008c
:1012f000878075002d003700828171000a01780017
:10130000610560008180d1000080d3008502e90082
:10131000f9ff3b00060440008784480002003b00c0
:1013200060041400e0841c000988a3000700320058
:101330008a81710082817100610164008904d10099
:101340000884d3008b05e800170037000978a30054
:1013500013003a000b00e000130034008b05e90095
:101360000804440089844c000a4474000978a300ee
:101370000d003a000b00e000070034008b05e90087
:101380000804440089844c0001003a000b0020004e
:101390000978a300f7ff32000001eb0002003700dc
:1013a000828171000a017800240107000cf0a70077
:1013b00001f0a0006d0137006420e10002003a0056
:1013c000838f6c006d0133000801be000200be0077
:1013d00066013700889fbe008a9fbe008c1f780080
:1013e000510107001002200002003b0070438800fa
:1013f000550137008a0062006408e10002003a00eb
:10140000704388005d0137006108e100fcff320095
:101410000800be00030478007200070001f0a1007c
:101420000900070008f0a600040037000001be0014
:1014300091042400b0fd200088ff070009f0a700f8
:1014400001f0a20049013700889fbe008a9fbe00bc
:101450008c9fbe000004be001e0107000800be00f5
:10146000890678006420e100080039000400320099
:101470000160a00012022000724388005300370070
:1014800091fc2300b0fd20004e0037000006eb0069
:1014900009f0a10003f82300020020000800be00ac
:1014a000a10007000600340001f82300000020001e
:1014b0000801be004b0007000004be002c00200005
:1014c0000800be0093e82300320a230096000700bc
:1014d000120034000801be00d1fd2300703d2b0036
:1014e0005fff07000005be00b3f32300f27a260079
:1014f0000800be002401070003f8230002002000ba
:1015000056ff07000801be0055ff07000a01be0094
:10151000340007000004be000c06e8000800be000e
:1015200001f0a10002002000039823007e000700c4
:101530000800be00160035000801be0012010700b9
:101540000005be0032cd2c0043fb230044ff070002
:10155000809fbe001269280003d52b000a00be0040
:1015600009010700620f210013ef2b003cff070069
:101570000a01be00040107004f01be001900070068
:101580000801be00000107000801be0034ff07008b
:101590000c00e0000b0032000c10a70001f0a200cc
:1015a000b2fd200093fc23006260e10004003200e1
:1015b00022a9200063f023000c10a70063f8230089
:1015c00027ff07000df0a70001f0a2004f06be00a4
:1015d0004f05be004f04be00000006000081eb0076
:1015e0001d013700889fbe008a9fbe008c1f7800b7
:1015f000cd000700d400330003866c006450e10086
:101600002e0032006420e100330032006150e1001e
:101610002f0032006120e100310032008585550045
:10162000eb07b00009002000080420000500370087
:101630000804440089844c000a003100060343007a
:1016400087834b000001530081815b00f8ff33006a
:101650000203be000800a0000804440089844c0076
:10166000f6ff3900c639dd00830173000100320046
:10167000130020008904d1000884d3000998a30036
:10168000050032000800a7000300a0008904d10073
:101690000884d3008b05e8008904d1000884d300b6
:1016a0000001eb000281d2006400070001f0a100fc
:1016b0000cf0a70001f0a000ac0037006420e100ae
:1016c000ae0032000801be000200be00f7ff370086
:1016d0006120e100a90032006000b800f3ff37008c
:1016e0000000200001f82700f0ff3700839f68000a
:1016f0000100e00002003d0060001000e0801800e2
:101700000300e00002003d0060011100e0811900cb
:10171000710107004f00e00002003b006000100074
:10172000e080180000000600140020007a01370055
:10173000f4ff2f00780137000001be0065000700ac
:101740000470a70003f0a1006509b1001600320083
:101750000d0035006828e10006003500f0ff2f007d
:10176000f1ff27000300e00013003b000100280008
:101770000000050000004000818048008502e9006b
:10178000fcff3a0008003700f88f420002003c00de
:101790008000eb00000005008100d1000080d30034
:1017a0008502e800fcff3a000300e00002003b0075
:1017b00060001000e0801800000006000001be007c
:1017c000440007000470a70003f0a10003f8a30081
:1017d00013003a006509b10010003200090035001d
:1017e0006928e10002003500010028000000050022
:1017f00000004000818048008502e900fcff3a00bb
:1018000000000600f88f4200050035008100d1007d
:101810000080d3008502e800fcff3a0000000600cb
:101820008000eb00000005004f89de008201780097
:10183000540137006011b8006201370081002000b8
:10184000618055000b003d000b00200061fe2f0061
:101850000100e1001d00340082817100610164001b
:101860008904d1000884d3000000e800faff3a00a0
:10187000710020006100640003007000020060003d
:101880000900320061044400e0844c000988a5008e
:10189000050032008b05e8006808e10002003a000c
:1018a0008904d1000884d300f20f20000258e1001f
:1018b00005003d00c75ddd00f907b20089807500b5
:1018c00008007800000006000bf827008b00780065
:1018d00000000500c70ade00f107b200f50fb200f4
:1018e00008003200e1cf4200020032000170a00087
:1018f00024000500810f700001003200040805007b
:1019000044000500810f700002003a001400050039
:101910008502e9000000400081c04800fcff3b0058
:101920000170a000240005000004be00e9ff0700cc
:101930000003be000405be000200be00e5ff070074
:10194000844f7500000006000200be006450e100f4
:10195000050036006420e100020036000968a3009b
:1019600001003a000800be000160a0004f067800a8
:101970004f05be004f04be0000000600f0ff2f0020
:10198000f1ff2700f9ff3700889fbe008a9fbe0045
:101990008c1f7800e4ff0700ebff330003866c0028
:1019a0006450e100240032006420e100270032008e
:1019b0006150e100220032006120e100210032008c
:1019c0008b854200eb07b1000134b800003ab80043
:1019d0000804420089844a00013ab8000030b80087
:1019e0008880400009014a000400330000004000e4
:1019f00081804800020149008b05e900c909dd002a
:101a0000830170000100320013002000c814de00c2
:101a10004814dd004709de001200b200c808de00ed
:101a20000884700085ff070001f0a1000cf0a700fa
:101a300001f0a000cdff37006120e100cfff3200b0
:101a40000801be000200be00f7ff37006150e10050
:101a5000fcff3a00c9ff3700889fbe008a9fbe0086
:101a60008c9fbe00820578000004be0099ff07002d
:101a70000800be006420e1000700390002003a00bf
:101a8000f1ff2700f0ff2f000160a00012022000ec
:101a900072438800550037006120e10003003a00de
:101aa0000b00a70001f823005000370001f0a1004f
:101ab00002002100936424001bff07000800be0001
:101ac00004003500b2fd2000930c2400ec00070058
:101ad0000004be000005eb000b00a6004f0dde0069
:101ae00001f0a1000004be0032982f0023ea230079
:101af000a5ff07000001eb0003f023000b00a70087
:101b000003f82300d6fd07000bff07000000a70025
:101b10000a00a20044ff07000b00e00003003200af
:101b20000200200003f02300ccfd070001f0a2001a
:101b30000006be00020020009304240092ff07006c
:101b40000801be00c6fd0700809fbe000c00be005d
:101b500022a22a00d3a723008bff07004f01be005b
:101b6000bffd07000004be0001f0a100020020003c
:101b700003982300ecfe07000800be0019003500a2
:101b80000001be0080ff07000006be00b2c52900ac
:101b9000e36223007cff070022222b00f3942b003a
:101ba000affd07000c01be0077ff0700e2732800bd
:101bb00083c02300aafd07000c01be0072ff0700ce
:101bc00042aa2a00a3e22b00a5fd07000c01be00db
:101bd0006dff07000801be006bff07000801be0093
:101be0009ffd07000a00a70001f0a2004f06be00fb
:101bf0004f05be004f04be00000006000001eb00d0
:101c000095ff3700889fbe008a9fbe008c1f78001a
:101c10000004be002fff07000478a30026003a004e
:101c20006120e1002500320009f8a30025003a00f8
:101c30006420e10021003200f507b1000508a3008f
:101c40000200320000004000818048006044b8007b
:101c500003102000020020000000400081804800a6
:101c60000805440089854c000a0541008b85490020
:101c70000a0550008b855800030033000a00be009f
:101c800002047400838474008301d1000281d300b4
:101c9000830f7100f0ff3a008904d1000884d3005b
:101ca0006001490082017800c1adde00fb07b00091
:101cb000e2fe07002dff37000960a0000800be000b
:101cc0002aff37001202200072438800f0ff2f0025
:101cd000f1ff270025ff37006022b8000602200030
:101ce0000000d0008180d2000482d2008582d20020
:101cf0000000a0000202520083825a00030031005b
:101d00000202420083824a000000a1000603e900ab
:101d1000f3ff3a0000000600889fbe008a9fbe00c5
:101d2000841f780000ff07004f0078001100330087
:101d3000f0ff2f00838f6c0006003b000405650058
:101d40000a00a7000800370009f0a60010002000d4
:101d500008003700820f5400838f5c0003003900b5
:101d60001000200001003e000000200009f0a70044
:101d70000000ea004f05be004f04be000000e00076
:101d800000000600881f7800030478000300e000cc
:101d900007003d0060001000e0801800600119009d
:101da000e081190002003b0001f02d000300370024
:101db0000400070008f0a70001f0a0004f0478001d
:101dc00000000600889fbe008a9fbe00008270004f
:101dd0000402710004827100260032000004be007b
:101de0000200be006011b8006b09200095022000bf
:101df0000182cf000a0039000541b1000082cf0006
:101e0000070039000541b1000982cf000400390004
:101e10000541b1000882cf00010039000541b10041
:101e200005425200120032000a003b00828171001c
:101e3000610164008100d1000080d3008984d30057
:101e40000884d3008b05e8000442e800f7ff3a005d
:101e5000070037000804440089844c000000480053
:101e6000818048008b05e9000442e900f9ff3a004f
:101e700072fe07004f05be004f04be0000000600c2
:101e80000400200000003700889fbe008a9fbe002b
:101e90008c1f78004f26dd00a3fe0700aafe33004a
:101ea0006120e100430032006250e10041003e0049
:101eb0003e0039006420e1003c00320005825500fc
:101ec0000f003b000402e80038003a00800f530086
:101ed000818f5b00350034000800be0003f0a100d4
:101ee00001f0a60003f0a0000cf0a700dcfc070046
:101ef0009efe37000603430087834b000c464600d6
:101f00000005530081855b00020033000a03be0018
:101f10000c00a0000402e900f6ff3b0085057800f4
:101f20000602430087824b0004003a006000b800bc
:101f300009f0a70001f0a0008cfe3700000252005b
:101f400081825a000704e0000400330006034300c6
:101f500087834b008b05e900faff370009057800fd
:101f60000604be000203be006011b80033fe070085
:101f7000e00f5200e08f5a000700350002003c00dd
:101f80000c08a300040032000601be0003f0a0000c
:101f90000cf0a700b2fc07000a85680001f0a10060
:101fa0000af0a70001f0a00070fe37000800be0094
:101fb0006efe3700100220000cf0a600704388006f
:101fc0006efe37008001780002003700b1597800ba
:101fd0000201e9000200e000fcff3a0000000600f8
:101fe00080007800010178003104e000fdff3a0034
:101ff0000000510000000600881f780002047800ed
:1020000008017800efff0700080040004f04780047
:10201000000006000000fa00881f78000004780025
:10202000ea8157003fb9970088007800c0ff200080
:10203000070007000000e000020035008040eb00d0
:10204000017478004f0478000080fa000000060058
:102050006200fa00889fbe008a1f780000057800a1
:1020600081047800020478008300780080f92f0052
:102070000f004000b10307009a979f00a9979f00a7
:102080000000eb00b09f9f001885fb008a04fb0056
:102090000a05ea004f55de0050022000808f5400f0
:1020a0000d003200e10f55000b003a000a017800e4
:1020b000880078002f9097009f91970003000100ff
:1020c000a0979f000000e0008e0032003f9897002c
:1020d0000000e800b09f9f000a0444005002200066
:1020e000808f5400040032000900e000e6ff3a004f
:1020f0003f989700840037000000eb00909f9f00fe
:10210000809f9f00f0979f00e0979f00d0979f00cf
:10211000c0979f0007003700618a2000010050002f
:1021200000004000a189200061007800df9897003e
:1021300001007000d09f9f00880478000904780097
:10214000384578008a00fb00608a2000840107007f
:102150000000e000f0ff3a00a1c2b300814f55003b
:102160000e003a00cf8897000180e900c08f9f00e1
:1021700010007800c09f9f000000e00005003d00b7
:102180000000ea00c09f9f005f9897000020a00019
:10219000d09f9f000904e8000f003700c09f9f00f8
:1021a0000000eb0005003700f2ff2700820f50000f
:1021b000020032006a01b900028040000904780080
:1021c00088047800b900fb000103b100e98f5000da
:1021d000f5ff3600c09f9f00e0c2b300984f10008b
:1021e000020032000080eb0019003700a0c2b300eb
:1021f000d84f100007003a00cf8897000180e9000f
:10220000c08f9f0010007800a09f9f000804e80086
:10221000100037000000eb00a09f9f0088007800ae
:1022200005003700f3ff2700830f50000200320043
:102230006a02b900040041000104780088007800b7
:102240003101fb000203b100e90f5100f5ff360038
:10225000a09f9f00984478008900fb0020892000ff
:102260003f0107000000e000020032000804e8001f
:10227000010037008044eb00c97f9f0080c6b30097
:1022800080cf540004003a0098cf14000a003a00ae
:102290006640500006003700c0c6b30080cf54002f
:1022a00005003a0098cf140003003a006540400052
:1022b000c07f9f000804e8001801fb00e3fb2f002b
:1022c0008f81410081f92f008f804000a0f92f00fd
:1022d0000f004000100007000000e00009003a0075
:1022e000e1fb2f008f804000a0f92f000f0040007d
:1022f000560207000000e000020035000804e80074
:1023000061ff37000080eb004f0578004f04be00ee
:102310000080fa0000000600889fbe008a9fbe0071
:10232000e4c6b300844f5100be00320010003c00f0
:102330006b425200844f51001800320005003c00ef
:1023400054c2b300844f5100f600320084c5b3007c
:102350000f00370044c6b300844f51001400320010
:1023600065424200844f5100f1003a0010003700ee
:1023700004c7b300844f5100dd0032005600350021
:1023800065424200844f51005300320063424200d4
:10239000844f5100e6003a004f0037001181e900f8
:1023a00082087800f000900012417800de003700cb
:1023b00020629000c5c6b300854f520007003a0066
:1023c0009102780064825200840878001402be00f2
:1023d0004fabde00860378001400370015c7b3004a
:1023e000854f520003003a0011047800680254003f
:1023f00005003700a5c6b300854f520006003a001d
:102400009104780068825400840878005403be0068
:102410004402be00050037001182e90084087800fc
:1024200014027800cfa2de00612bb9000498be0030
:102430000690be00a060900088c6b30088cf500010
:102440000d00320028c6b30088cf500004003a00c7
:102450000402fb00cfa2de00612bb90008003700a8
:1024600048c7b30088cf50000300320066444400e0
:1024700088cf500004003a00cfa2de00612bb900e3
:102480000498be000690be003002be002003be00cd
:10249000f0009000e00f5200e08f5a00e00f5b0068
:1024a000e08f5b0002003d00d4c2b300080037009b
:1024b000001290000418a30002003200b4c2b3005e
:1024c000030037000408a3005100320004c2b30027
:1024d00084f178004c00370020629000c5c6b3003c
:1024e000854f520008003a0011057800640255003b
:1024f000840878001404be006055b8000802be00cd
:102500000a03be001400370015c7b300854f520000
:1025100003003a00910478006882540005003700f7
:10252000a5c6b300854f520006003a001105780099
:1025300068025500840878005403be004402be00bf
:10254000050037001182e900840878001402780041
:102550008002eb006033b8000498be000690be0015
:10256000a060900088c6b30088cf50000d003200f4
:1025700028c6b30088cf500004003a000482fb0054
:102580008002eb006033b8000800370048c7b30092
:1025900088cf5000030032006644440088cf5000ca
:1025a00004003a008002eb006033b8000498be00db
:1025b0000690be00801090000138a3001400320085
:1025c0003002be002003be00e00f5200e08f5a0030
:1025d000e00f5b00e08f5b000d00320081c7b300ad
:1025e000814f51000300320081c5b300814f51007b
:1025f00007003a00f000900004c3b30084f17800b3
:102600008100e80082f178008100e8007100980004
:10261000f0009000818141006300980082407800c2
:102620003e003700a0619000c4c6b3001181e900ec
:1026300084cf5100220032000a003c006442520064
:1026400084cf51002500320004c2e80084cf51003d
:10265000130032006842520084cf51001e003a003d
:102660000a00370044c7b30084cf51001b0032007a
:102670006642420084cf5100180032006942520085
:1026800084cf510014003a0005003700820878001a
:102690009200780040589000804878002c00370065
:1026a0008208780092007800600a9000cfa2de00d5
:1026b000612bb9008498be008690be0024003700cc
:1026c000820878009200780060099000cf91de00c7
:1026d0008288be001e0037001181e9008208780060
:1026e0009200780060089000800878001800370099
:1026f0001181e9008208780012027800cfa2de0082
:10270000612bb9000498be000690be00f000900056
:10271000818141006300980081c7b3001c0007005d
:102720000b003700f000900082f1780006003700bf
:10273000f0009000818141000204e00001003a00b5
:1027400052c2b300824978008100e800710098000d
:102750000000eb004f05be004f04be000000060065
:10276000020037000304e000060032000001780098
:1027700002007800b041780081cf5100f9ff3a00a3
:10278000010037000001eb000200780000000600a5
:10279000fc874700889fbe008a9fbe008c9fbe00ba
:1027a0008e1f78000006780080c5b30080cf5000ef
:1027b0000a0032007740400080cf50000a0032000b
:1027c0006940400080cf50000b003200108820008c
:1027d00080bf9f00ae0020000a0037000287200063
:1027e00082bf9f00060037001388200083bf9f0030
:1027f0008e002000030037001488200084bf9f0053
:102800000e0120003c02be002c03be000605be00e7
:102810000404be0040c6b30080cf50000300320065
:102820006540400080cf50000b003a00e00f52009e
:10283000e08f5a00e00f5b00e08f5b0006003d0078
:102840006000b8006011b80004045000858458008e
:102850000605590087855900e80f5700040032002b
:1028600040002000f00f570038003a000100370008
:1028700030002000e00f5400e08f5c00e00f5d00ae
:10288000e08f5d0004003a00dc0890008d0120001c
:102890000100e000060032008e00e9008880600040
:1028a0008fba9700e5c07800f1ef9f007d0120000e
:1028b000800078008100e900050033008b05d1001d
:1028c0000a85d3008984d3000884d300f9ff370038
:1028d000089ebe000a96be00120037008d06e90071
:1028e0008e00e900848060000fb99700e2c1780093
:1028f00082fd2f000f01410003f17e00800078006f
:102900008100e900050033008783d1000683d300ee
:102910008582d3000482d300f9ff3700049ebe00f5
:102920000696be003c02be002c03be00e00f520023
:10293000e08f5a00e00f5b00e08f5b008b003400fb
:102940000d00e000e5ff3c00880037002c6090009f
:1029500081c6b300814f50000b00320006003c00de
:102960000004e00008003200e6c05000814f500033
:102970004e003a0004003700c1c6b300814f50003a
:102980004a003a00210037000800e00004003a0045
:102990005c0890008d0120000000e000060032007d
:1029a000110009000e84d8000fb99700e2c078002a
:1029b000f1ef9f007d012000110009000e84d80076
:1029c0000a003700110009000e04d8008d06e90046
:1029d0000e81b900020454008fb8970061417c0059
:1029e00081fd2f008f80400082f07e00000478007f
:1029f0000800e000020032000d00e000f1ff3c00a2
:102a0000cfc4de00614db90025003700e00f54004f
:102a1000e08f5c0004003a005c0890008d0120000b
:102a20000000e000070032006171b9000800be003c
:102a3000440107008fb99700e3417800f3ef9f004e
:102a40007d0120006171b9000800be00a2fc0700f2
:102a50000b0037006171b9000800be0023fb0700be
:102a60008d06e90000f1b900020454000fba970086
:102a7000e4427c0084fd2f000f02420005f27e003c
:102a80000004be00e00f5000e08f5800020032004a
:102a90000d00e000efff3c004fcdde008a0578001e
:102aa000089ebe000a96be0030003700e00f5400ba
:102ab000e08f5c00e00f5d00e08f5d0004003a00f5
:102ac0005c0890008d0120000000e0000900320049
:102ad0006172b900612bb9000800be000a01be0096
:102ae000bb0107000fba970064427800f4ef9f0023
:102af0007d0120006172b900612bb9000800be00a1
:102b00000a01be00ab0107000d0037006172b90079
:102b1000612bb9000800be000a01be00b001070029
:102b20008d06e90000f2b900040454008fba970042
:102b300065427c0085fd2f008f82420084f27e007a
:102b4000009ebe000296be003c04be002c05be00e6
:102b5000e00f5400e08f5c00e00f5d00e08f5d004f
:102b6000020034000d00e000e8ff3c00e80f5700d1
:102b700010003a000c1090000038a3000d00320045
:102b8000f78f560006003e0085fd2f008f82420021
:102b9000e5c07e0000c3b30080cf500005003200c6
:102ba0008d06e90002c3b30081fd2f008f80400035
:102bb00082f07e0078811600120e98006c00900062
:102bc00083fd2f008f8141008d804100fdfc0700b7
:102bd0001c089000dc089000810f500006003d00aa
:102be00000805000000e98000c1090000040a100e2
:102bf000001698000f0037000100e0000d003d00b6
:102c00008c109000f4806000f08f500009003a00b2
:102c10007c099000fc009000810051000c0990009c
:102c200082805000008050004240a9000100340022
:102c3000000e98004f0778004f06be004f05be00fb
:102c40004f04be00cf01b100000006000400fa00ee
:102c5000889fbe008a9fbe008c1f78000004780009
:102c600001067800f80d90007800900080855500ee
:102c70000808900080855500180890008085550050
:102c80002808900080855500380890008085550000
:102c900048089000808555000002220090bf9f00e8
:102ca00000032300a0bf9f00081090000028a3008d
:102cb00015003a000b00e000130034000b0578000b
:102cc0008a047800e20f5500010036002900200038
:102cd000c801900009017800ee805700580090006c
:102ce00003000100500498000000e0008c00320056
:102cf0006808900009004000600c98000905550024
:102d00004240a900eeff3c00780190000200e00084
:102d10000c003400c80190008c007800580090002e
:102d200003000100500498008080eb000000e000e8
:102d30007c003200e808900078009000008040009d
:102d4000600c9800880c90000900e000110034002d
:102d500009057800e28f5400010036002a002000a7
:102d6000c80190000a017800ec80570058009000dc
:102d700003000100500498000000e00068003200e9
:102d8000680890000a004000600c98008a84540093
:102d9000edff3700180990000200e0000c0034003d
:102da000c8019000e8009000580090000300010066
:102db000500498008080eb000000e00059003200d1
:102dc000e80890001808900000804000600c98000f
:102dd000a80c90000900e0001100340009057800fb
:102de000e28f5400010036002a002000c801900044
:102df0000a017800ec8057005800900003000100a1
:102e0000500498000000e00045003200680890007f
:102e10000a004000600c98008a845400edff3700df
:102e2000380990000200e0000e003400e800900035
:102e30001808900080804000c80190005800900061
:102e400003000100500498008080eb000000e000c7
:102e500034003200e80890003808900000804000fc
:102e6000600c9800c80c90000900e00011003400cc
:102e700009057800e28f5400010036002a00200086
:102e8000c80190000a017800ec80570058009000bb
:102e900003000100500498000000e0002000320010
:102ea000680890000a004000600c98008a84540072
:102eb000edff3700081090008000eb000028a30011
:102ec000180032000b00e000160034008b0478007c
:102ed00009057800e28f5400010036002a00200026
:102ee000c80190000a017800ee8057005800900059
:102ef00003000100500498000000e00008003200c8
:102f0000680890000a004000600c98008a84540011
:102f10004240a900eeff3c008000eb0001003700ba
:102f20008080eb00010078004f0678004f05be005e
:102f30004f04be000080fa0000000600010878007f
:102f40000000060064fb07000400be00000006004d
:102f5000889fbe008a9fbe0030044200b0844a00b1
:102f600030054b0090854b006000b1000898be0012
:102f70000a90be000440e10005c8e10006d0e1006f
:102f800007d8e10002003100680040001008e800a6
:102f90004f05be004f04be0000000600889fbe0023
:102fa0008a9fbe003004be002005be0004185400f5
:102fb00005985c0006185d0007985d001100200070
:102fc0000440e10005c8e10006d0e10007d8e100b7
:102fd000010039008000eb00108810004f05be0092
:102fe0004f04be00000006001200fa00889fbe00d9
:102ff0008a9fbe008c9fbe00e0b79f00f1b79f0084
:1030000082bf9f0093bf9f000605be000404be0060
:103010000000eb00d0b79f00c0b79f00b0b79f0083
:10302000a0b79f0090b79f000006eb005fb197002c
:10303000cfb09700820141003fb097000200e0004e
:1030400004003d00370007007e805700c0ff0700e6
:1030500003003700330007007e805700cfff0700d2
:10306000dfb697000d00e0000c0035006fb297004e
:10307000ffb297000fbb97009fbb97001000200086
:10308000010020006011b80000027200818272000d
:1030900002037300838373001b0007000c06e80023
:1030a00001042000810f5600e0ff3a000d00e0000f
:1030b00004003d000802be000a03be007e805700e7
:1030c000a3ff07005fa897000000e00005003a009a
:1030d0001fb29700afb297003fb39700cfb39700ee
:1030e000090007006fb09700ffb097000fb9970075
:1030f0009fb997004f06be004f05be004f04be00ab
:103100000080fa0000000600010007000000060031
:10311000a4b79f00b5b79f00c6b79f00d7b79f0061
:10312000000006004f09de0082817100b3b79f00e6
:103130004f01de008180400082807000a1b79f00b7
:103140008fb097004f09de000000400002007000c1
:1031500090b79f007fa897004f01de00818040005c
:103160008280700081b79f000d0007004f3ade009b
:103170000000400004007000f0af9f00080007004e
:103180000402420085824a0006034b0087834b00fd
:10319000dfff07000802be000a03be0000000600b1
:1031a0002fb29700bfb297004fb39700dfb39700dd
:1031b00000000600881f780018002000881f780093
:1031c00089ff07008f87e9004f04780000000600a0
:1031d000801feb0084ff07008f87e90000000600d6
:1031e000889fbe008a9fbe00e00f5000e08f58000d
:1031f000e00f5900e08f59000c003d006044b8001a
:103200006055b8000000540081805c0002015d0040
:1032100083815d00180020001500070008003d00b4
:10322000180007000004eb00050037000004eb0065
:103230000f00070002003d001200070018002000e8
:10324000dcff07000800e000060032006022b80042
:103250006033b8000000520081805a0002015b0018
:1032600083815b004f05be004f04be0000000600d6
:10327000e00f5200e08f5a00e00f5b00e08f5b0030
:10328000000006006044b8006055b8000402540015
:1032900085825c0006035d0087835d0000000600f8
:1032a000889fbe008a9fbe008c1f7800e00f5000f0
:1032b000e08f5800e00f5900e08f59000d003d00ed
:1032c0006044b8006055b8000000540081805c0084
:1032d00002015d0083815d001c0020000820e100e8
:1032e00009a8e1000ab0e1000bb8e1000d003d00c3
:1032f000080037000006eb00e00f5200e08f5a0094
:10330000e00f5b00e08f5b0006003d006044b8000a
:103310006055b8000402540085825c0006035d001d
:1033200087835d00aaff07000c00e0000600320062
:103330006022b8006033b8000000520081805a005b
:1033400002015b0083815b004f0678004f05be00e1
:083350004f04be00000006005e
:020000040000fa
:1033580020200000257500002025000075200000b1
:1033680025750000200a0000007300007461000049
:103378007465000020650000787400007261000028
:1033880020000000636f00006d7000006c65000095
:08339800746500000000000054
:020000040000fa
:1033a0000000fa00f0032000303a8800213a800043
:1033b00000fe2f00008060000000a000203a88007e
:1033c000213a8000f0f32f0000806000203a88004e
:1033d0004827ef001200200080072000a1092000ec
:1033e0003374200080497800814978008249780050
:1033f00012002000600420007105200023742000ca
:1034000080497800814978008249780000000000f6
:10341000113a800000002700808060000000210039
:10342000808f5000faff3a0000000000113a80003f
:1034300000022000008060000000e000fbff32007e
:103440000080fa00000006000000fa000080eb0097
:1034500060198800c842a800c862a800c8e2a80095
:10346000c902a800c922a800c942a800c982a900af
:10347000c9a2a900c9c2a900c9e2a900c002a90045
:10348000c022a9000080fa00000006000400fa0033
:10349000000f7800110798001e0078000000e0007f
:1034a00005003a0081088000f0fc2f0000806000d9
:1034b000800888001b0037001e007800e80f5000cd
:1034c00006003a0081088000f0fc2f0000806000b8
:1034d0000040a0008008880012003700000420008f
:1034e0009e007800808f500006003a00810880001e
:1034f000f0fc2f00008060000050a00080088800d1
:1035000008003700001020009e007800808f5000d7
:1035100004003a00810880000003200001007000d0
:10352000800888001e0078008000eb000001be00cb
:1035300000a02500212620006cf807000002be0034
:103540001e0090008000eb000001be000400be00e1
:1035500066f8070000007800600888008021ef000e
:103560008621ef00210c800080ff2f00008060008a
:10357000200c88008461a900210c800080ff2f00ae
:10358000008060006000b300200c8800510c8000b7
:1035900080ff2f0000806000500c88008a61a90025
:1035a000510c800080ff2f00008060006000b3009d
:1035b000500c8800113a8000f00b20000081600060
:1035c00060042000710520002374200080497800e9
:1035d00081497800824978006136800000fe2f0022
:1035e000008060002001b3006036880071368000e2
:1035f00000fe2f00008060003001b30070368800ac
:10360000103a8000000178000260a00060042000f1
:1036100071052000237420008049780081497800da
:10362000824978000080fa00000006000000fa00dd
:10363000f10880000003200001007000f0088800fd
:1036400050c32000d00888009760a8008105800042
:10365000f0ff28000080600000c0a0008005880006
:103660000080fa00000006000000fa002108800037
:10367000f0fc2f00008060000040a00020088800bf
:1036800000712200100888009460a80021058000c5
:10369000f0ff28008080600000002500010070001d
:1036a000200588000080fa00000006000200fa00f1
:1036b000004f7800114798001e409000674060005e
:1036c0000080fb00670060002205800081ff2f0062
:1036d0008100610001007000200588009e40780094
:1036e00061c060000080fb00610060001104800088
:1036f0000100a10001007000100488009400a800df
:103700000080fa00000006000400fa00004f780074
:103710001147980022479800113a8000f00b2000d2
:1037200000816000600420007105200023742000e7
:103730008049780081497800824978009e4078006d
:103740007fc060000080fb007f0060004800dd005b
:1037500002348000f10f2e00810061000100700032
:1037600000348800103a8000000178000260a00058
:103770006004200071052000237420008049780037
:1037800081497800824978002e40900067406000af
:103790000080fb00670060007205800081ff2f0041
:1037a0008100610001007000700588001e409000db
:1037b000614060000080fb0061006000000040008c
:1037c000110480000110a1000100700010048800a5
:1037d0009680a8000080fa00000006000400fa00ad
:1037e000004f78001147980022479800113a800056
:1037f000f00b2000008160006004200071052000b3
:10380000237420008049780081497800824978003b
:103810009e4078007fc060000080fb007f00600059
:103820001234800001fe2f00810061000100700051
:1038300010348800103a8000000178000260a00077
:103840006004200071052000237420008049780066
:1038500081497800824978002e40900067406000de
:103860000080fb00670060004400dd0092058000de
:10387000f1f82f00810061000100700090058800c0
:103880001e409000614060000080fb00610060000d
:103890004200dd00110480000120a1000100700041
:1038a0001004880097a0a8000080fa00000006001d
:1038b0000000fa00113a8000f00b20000081600047
:1038c00060042000710520002374200080497800e6
:1038d0008149780082497800e134800000fe2f00a1
:1038e000008060007000b300e0348800e1348000a4
:1038f000f00f2e000080600000b0a000e0348800cf
:103900000135800000fe2f0000806000a000b300a1
:103910000035880001358000f00f2e0080806000a7
:10392000009020000100700000358800103a8000ef
:10393000000178000260a0006004200071052000f2
:1039400023742000804978008149780082497800fa
:10395000010f8000f08f2f0000806000000f8800b2
:10396000e0c1a900010f8000f08f2f00808060006f
:103970000050200001007000000f8800810f8000bf
:10398000f08f2f0000806000800f8800f0c1a90038
:10399000810f8000f08f2f00808060000050200099
:1039a00001007000800f88000080fa00000006000f
:1039b0000000fa002002a9000111800090ff2f00f2
:1039c000008060000011880020a2a90040012000b2
:1039d0004011880023a2a90023e2a9001111800050
:1039e000f0f32f00008060001011880021e2a80091
:1039f0002342a8009c20a9000080fa0000000600d5
:103a00000000fa003002a9008111800090ff2f0011
:103a1000008060008011880030a2a90040012000d1
:103a2000c011880033a2a90033e2a90091118000df
:103a3000f0f32f00008060009011880031e2a800b0
:103a40003342a8000080fa00000006000000fa00df
:103a5000c0002000101c880040222000401c88006c
:103a6000011c8000f0fc2f0000806000001c88001a
:103a7000011c8000c0ff2f00008060000000a0003b
:103a8000001c880081a3a80081c3a800a00020001a
:103a9000501c8800c0792000201c88008480a90068
:103aa0009480a8000080fa00000006000000fa00e0
:103ab000b0002000701c880060222000a01c88003c
:103ac000611c8000f0fc2f0000806000601c8800fa
:103ad000611c8000c0ff2f0000806000601c880017
:103ae0008da3a9008dc3a800a0002000b01c8800f1
:103af000e07c2000801c880085c0a90095c0a8003b
:103b00008de3a8000080fa00000006000000fa0023
:103b1000f0012000d01c880040232000001d8800f8
:103b2000c11c8000f0fc2f0000806000c01c8800d9
:103b3000c11c8000c0ff2f00008060000000a000ba
:103b4000c01c880099a3a80099c3a800a000200069
:103b5000101d880080732000e01c88008700a900e9
:103b60009700a8000080fa00000006000000fa009c
:103b7000e0012000301d880060232000601d8800c7
:103b8000211d8000f0fc2f0000806000201d8800b7
:103b9000211d8000c0ff2f0000806000201d8800d4
:103ba000a5a3a900a5c3a800a0002000701d88003f
:103bb000a0762000401d88008880a9009880a80079
:103bc000a5e3a8000080fa00000006000000fa004b
:103bd000f3fd0700411f2000800020002bfe07009e
:103be000a1fe070091fe070072c0b30011c0b30030
:103bf00020c0b300c4fe070072c0b30011c0b30000
:103c000030c0b300f5fe070029ff07000efe0700d5
:103c100005e1a9000080fa00000006000200fa0099
:103c2000004f7800114798001e407800e14f400097
:103c30000d003a00c402a900c422a8006008800058
:103c4000c200de00b04721000008b8008100d100aa
:103c50001e4090000000fb000088b90000007800c2
:103c6000000c8800160037001e4078000004e000b9
:103c700004003a00c402a800c422a8008021ef007a
:103c80000f0037001e407800e14f50000c003a0052
:103c9000c402a800c422a90060088000c200de009f
:103ca000b04721000008b8008100d1001e409000fc
:103cb0000000fb000088b90000007800000c8800bc
:103cc0000080fa00000006000200fa00004f7800b1
:103cd000114798001e407800e14f40000d003a0067
:103ce000cda2a900cde2a80060088000c200de00dd
:103cf000b04721000008b8008100d1001e409000ac
:103d00000000fb000088b90000007800300c88003b
:103d1000160037001e4078000004e00004003a005e
:103d2000cda2a800cde2a8008621ef000f00370049
:103d30001e407800e14f50000c003a00cda2a800d0
:103d4000cde2a90060088000c200de00b04721007b
:103d50000008b8008100d1001e4090000000fb0068
:103d60000088b90000007800300c88000080fa005c
:103d7000000006000000fa00c0792000201c880026
:103d8000c0002000501c880081e3a80083e3a80045
:103d90000080fa00000006000000fa008073200096
:103da000e01c8800807324008df807000000e90003
:103db000101d880099e3a8009be3a8000080fa008a
:103dc000000006000200fa00004f78001e80fb0091
:103dd000a01188000080fa00000006000200fa002e
:103de000004f78001e80fb00201188000080fa0040
:103df000000006000200fa00004f780000000000fa
:103e00004ac8bf009e4f5000fdff3a000080fa00f4
:103e1000000006000200fa00004f780000000000d9
:103e20004bc8bf009e4f5000fdff3a000080fa00d3
:103e3000000006000200fa000040eb00004f78008e
:103e40000040eb001047980005e1a90047c8bf00fb
:103e5000e14f50000e003a001e4078000004e000e0
:103e60000b003a00f1c0b30010c0b3006bff0700b5
:103e700081002200800c2000010001008040eb0046
:103e80000040eb0065ff070010c0b300004f780052
:103e900046c8bf00e14f50001f003a001e4090008e
:103ea0000004e0001e003a0041c1b30010c0b3009e
:103eb00085ff070081002200800c20000100010026
:103ec0008040eb000040eb007fff070010c0b30014
:103ed0001047980013003700a1c0b30000c0eb00ea
:103ee0004eff0700050037008040eb000040eb006c
:103ef0004aff070010c0b300004f780047c8bf005a
:103f00000004e000070032001e4078000004e000da
:103f1000f5ff320003003700000000000100370009
:103f20000000000047c8bf000004e000eaff3200c4
:103f30001e4078000004e000e7ff32000e0037006a
:103f4000f1c0b30000c0eb005fff070046c8bf0030
:103f5000e14f500008003a001e4090000004e000cd
:103f600005003a008040eb000040eb0056ff0700e0
:103f700010c0b3001047980046c8bf000004e0001e
:103f8000efff32001e4090000004e000ecff320022
:103f90001e407800e14f50001a003a001e40900089
:103fa000e14f500017003a0031c0b30010c0b30019
:103fb0001aff070071c0b30010c0b30042ff070032
:103fc0008100220040062000010001008040eb003b
:103fd0000040eb0011ff07008040eb000040eb00c9
:103fe00039ff070081002200803e2000010001000f
:103ff000e421ef00f421ef008100220040062000c0
:104000000100010005e1a8000080fa0000000600a0
:104010000600fa00200798000000eb00000f78006f
:104020000000eb00100798000000eb00000f780084
:104030000b0037000000eb0010079800030037006a
:104040001e0090000000e800100798009e009000fd
:1040500000fa2000808f5000f9ff34001e0fe800a6
:104060002e0090009e007800808f5000f1ff3400f9
:104070000080fa00000006000c00fa00881f78009b
:104080000600fc0012028000020eb300120288003b
:10409000cefe0700113a8000f00b20000081600086
:1040a00060042000710520002374200080497800fe
:1040b000814978008249780021368000f00f2e0077
:1040c00080806000003020000100700020368800f1
:1040d0002135800000fe2f00008060006000b300ea
:1040e000203588002136800000fe2f00008060000f
:1040f0005000b300203688003135800000fe2f00cc
:1041000000806000b000b30030358800103a8000b5
:10411000000178000260a00060042000710520000a
:104120002374200080497800814978008249780012
:104130000600fc0011028000f141b200110288006b
:1041400042fe070071fe070058fe070087fe0700c9
:1041500017fe07002afe070048c8bf000004e00061
:10416000e100320048c8bf00e14f500008003a00ab
:1041700010cbb3001fff07002eff070010cfb300c6
:1041800016ff07004a68ef004868ef00d6003700c6
:1041900048c8bf00e24f500042003a000040eb0028
:1041a000004f780020cbb30012ff0700400620002c
:1041b00097ff070010002000100798002700370025
:1041c0009e009000200320000088b90000007800c5
:1041d000cf80de0020079800310798006000b8000b
:1041e0000040880011408800be0090006009200057
:1041f0000088b900000178002e0090006000b9002e
:104200000000780000014100ae009000600920002d
:104210000008b800010141008200780082f5070023
:1042200020408800314088000000000010c8bf0016
:104230000004e000fdff32001068ef001e4fe800b0
:104240001e407800e5fe07001e407800f1fe0700e2
:104250001e0090000000e800100798001e0090006b
:10426000e50f5000d6ff34004768ef004668ef00c6
:10427000f0fe07006000b800004088001140880090
:104280006000b800204088003140880040062000cf
:104290005fff070020cfb300d0fe07004868ef00a3
:1042a0009100370048c8bf00e34f500033003a0088
:1042b00030cbb300cffe070080bb20004007980042
:1042c00080fc2a00500798004e0090008000eb0010
:1042d00055f5070000408800114088005e009000fe
:1042e0008000eb0050f50700204088003140880036
:1042f0000000000010c8bf000004e000fdff320015
:104300001068ef0030cbb300aefe070090cbb300d7
:10431000b8fe070091408000600920000088b900c5
:10432000000078008000eb003ff5070000408800a7
:1043300011408800a1408000600920000088b90079
:10434000000078008000eb0037f50700204088006f
:10435000314088000000000010c8bf000004e000e9
:10436000fdff32001068ef0030cfb3009bfe070066
:104370004a68ef004868ef005b00370048c8bf009c
:10438000e44f500018003a001068ef0091408000a0
:10439000600920000088b900000078008000eb0070
:1043a00021f507000040880011408800a1408000ee
:1043b000600920000088b900000078008000eb0050
:1043c00019f50700204088003140880010c8bf0060
:1043d000e14f500044003a0040cfb3007ffe070099
:1043e0004868ef004000370048c8bf00e54f500064
:1043f00021003a00d4408000e5408000b0408000b9
:10440000c140800018c0b3000001be000400be001f
:10441000c7f407000000e00001003d000044eb008d
:104420000804e00030003200200f80008000d1003e
:1044300050a72d000008b8004608de008000eb0001
:10444000f041880001428800a00f80008000d10068
:1044500050a72d000008b8004608de008000eb00e1
:10446000104288002142880050cfb3005bfe070055
:104470004868ef001c00370048c8bf00e14f40000b
:1044800011003a00c0792400d2002000919b29003d
:10449000ccf6070037fe0700803e2000dcfe070058
:1044a000c0ccb30047fe0700c07924009200200072
:1044b000619c2900c3f607002efe07004a68ef0042
:1044c0004868ef00080037008184200091407800a0
:1044d00030c6b30080cf500003003a00b0cbb30029
:1044e0003efe07004868ef0048c8bf0049e8b70033
:0444f00019ff370079
:020000040000fa
:1044f400000800006e00000000000000ce4700002d
:1045040032000000000000009c4700003200000060
:10451400000000006a4700003200000000000000b4
:104524003847000032000000000000006e08000060
:104534000200000000000000920800001a000000c1
:1045440002000000686a6c00747a4c0000000100ec
:104554000002000004000800001000000000200019
:104564002b2d230030000000700800002200000002
:104574000200000030313200333435003637380061
:104584003941420043444500460030003132330093
:10459400343536003738390061626300646566007b
:0845a40000000000000000000f
:020000040000fa
:0200000401f009
:04000000ffff0000fe
:020000040000fa
:0200000401f009
:04000400ffff0000fa
:020000040000fa
:0200000401f009
:04000800ffff0000f6
:020000040000fa
:0200000401f009
:04000c008000000070
:020000040000fa
:0200000401f009
:0400100007000000e5
:020000040000fa
:0200000401f009
:040014005f00000089
:020000040000fa
:0200000401f009
:04001800f7000000ed
:020000040000fa
:0200000401f009
:04001c00dfff000002
:00000001FF
