:020000040000fa
:080000000002040000000000f2
:020000040000fa
:0400080022090000c9
:020000040000fa
:04000c0022090000c5
:020000040000fa
:0400100022090000c1
:020000040000fa
:0400140022090000bd
:020000040000fa
:0400180022090000b9
:020000040000fa
:04001c0022090000b5
:020000040000fa
:0400200022090000b1
:020000040000fa
:0400240022090000ad
:020000040000fa
:04002800d4020000fe
:020000040000fa
:04002c0022090000a5
:020000040000fa
:0400300022090000a1
:020000040000fa
:040034003203000093
:020000040000fa
:04003800300600008e
:020000040000fa
:04003c002209000095
:020000040000fa
:040040002209000091
:020000040000fa
:04004400220900008d
:020000040000fa
:040048002209000089
:020000040000fa
:04004c002209000085
:020000040000fa
:040050002209000081
:020000040000fa
:04005400220900007d
:020000040000fa
:040058002209000079
:020000040000fa
:04005c002209000075
:020000040000fa
:04006000380600005e
:020000040000fa
:04006400220900006d
:020000040000fa
:040068002209000069
:020000040000fa
:04006c002209000065
:020000040000fa
:040070002209000061
:020000040000fa
:04007400220900005d
:020000040000fa
:04007800dc020000a6
:020000040000fa
:04007c002209000055
:020000040000fa
:040080002209000051
:020000040000fa
:04008400220900004d
:020000040000fa
:04008800f608000076
:020000040000fa
:04008c002209000045
:020000040000fa
:040090002209000041
:020000040000fa
:040094000003000065
:020000040000fa
:040098002209000039
:020000040000fa
:04009c00ee02000070
:020000040000fa
:0400a0002209000031
:020000040000fa
:0400a400220900002d
:020000040000fa
:0400a8002209000029
:020000040000fa
:0400ac002209000025
:020000040000fa
:0400b0002209000021
:020000040000fa
:0400b400220900001d
:020000040000fa
:0400b800fe0800003e
:020000040000fa
:0400bc002209000015
:020000040000fa
:0400c0002209000011
:020000040000fa
:0400c400220900000d
:020000040000fa
:0400c8002209000009
:020000040000fa
:0400cc002209000005
:020000040000fa
:0400d0002209000001
:020000040000fa
:0400d40022090000fd
:020000040000fa
:0400d80022090000f9
:020000040000fa
:0400dc0022090000f5
:020000040000fa
:0400e00022090000f1
:020000040000fa
:0400e40022090000ed
:020000040000fa
:0400e80022090000e9
:020000040000fa
:0400ec0022090000e5
:020000040000fa
:0400f00022090000e1
:020000040000fa
:0400f40022090000dd
:020000040000fa
:0400f80022090000d9
:020000040000fa
:0400fc0022090000d5
:020000040000fa
:0401000022090000d0
:020000040000fa
:0401040022090000cc
:020000040000fa
:0401080022090000c8
:020000040000fa
:04010c0022090000c4
:020000040000fa
:0401100022090000c0
:020000040000fa
:0401140022090000bc
:020000040000fa
:0401180022090000b8
:020000040000fa
:04011c0022090000b4
:020000040000fa
:0401200022090000b0
:020000040000fa
:0401240022090000ac
:020000040000fa
:0401280022090000a8
:020000040000fa
:04012c0022090000a4
:020000040000fa
:0401300022090000a0
:020000040000fa
:04013400220900009c
:020000040000fa
:040138002209000098
:020000040000fa
:04013c002209000094
:020000040000fa
:040140002209000090
:020000040000fa
:04014400220900008c
:020000040000fa
:040148002209000088
:020000040000fa
:04014c002209000084
:020000040000fa
:040150002209000080
:020000040000fa
:04015400220900007c
:020000040000fa
:040158002209000078
:020000040000fa
:04015c002209000074
:020000040000fa
:040160002209000070
:020000040000fa
:04016400220900006c
:020000040000fa
:0402080022090000c7
:020000040000fa
:04020c0022090000c3
:020000040000fa
:0402100022090000bf
:020000040000fa
:0402140022090000bb
:020000040000fa
:0402180022090000b7
:020000040000fa
:04021c0022090000b3
:020000040000fa
:0402200022090000af
:020000040000fa
:0402240022090000ab
:020000040000fa
:0402280022090000a7
:020000040000fa
:04022c0022090000a3
:020000040000fa
:04023000220900009f
:020000040000fa
:04023400220900009b
:020000040000fa
:040238002209000097
:020000040000fa
:04023c002209000093
:020000040000fa
:04024000220900008f
:020000040000fa
:04024400220900008b
:020000040000fa
:040248002209000087
:020000040000fa
:04024c002209000083
:020000040000fa
:04025000220900007f
:020000040000fa
:04025400220900007b
:020000040000fa
:040258002209000077
:020000040000fa
:04025c002209000073
:020000040000fa
:04026000220900006f
:020000040000fa
:04026400220900006b
:020000040000fa
:040268002209000067
:020000040000fa
:04026c002209000063
:020000040000fa
:04027000220900005f
:020000040000fa
:04027400220900005b
:020000040000fa
:040278002209000057
:020000040000fa
:04027c002209000053
:020000040000fa
:04028000220900004f
:020000040000fa
:04028400220900004b
:020000040000fa
:040288002209000047
:020000040000fa
:04028c002209000043
:020000040000fa
:04029000220900003f
:020000040000fa
:04029400220900003b
:020000040000fa
:040298002209000037
:020000040000fa
:04029c002209000033
:020000040000fa
:0402a000220900002f
:020000040000fa
:0402a400220900002b
:020000040000fa
:0402a8002209000027
:020000040000fa
:0402ac002209000023
:020000040000fa
:0402b000220900001f
:020000040000fa
:0402b400220900001b
:020000040000fa
:0402b8002209000017
:020000040000fa
:0402bc002209000013
:020000040000fa
:0402c000220900000f
:020000040000fa
:0402c400220900000b
:020000040000fa
:0402c8002209000007
:020000040000fa
:0402cc002209000003
:020000040000fa
:0402d00022090000ff
:020000040000fa
:0402d40022090000fb
:020000040000fa
:0402d80022090000f7
:020000040000fa
:0402dc0022090000f3
:020000040000fa
:0402e00022090000ef
:020000040000fa
:0402e40022090000eb
:020000040000fa
:0402e80022090000e7
:020000040000fa
:0402ec0022090000e3
:020000040000fa
:0402f00022090000df
:020000040000fa
:0402f40022090000db
:020000040000fa
:0402f80022090000d7
:020000040000fa
:0402fc0022090000d3
:020000040000fa
:0403000022090000ce
:020000040000fa
:0403040022090000ca
:020000040000fa
:0403080022090000c6
:020000040000fa
:04030c0022090000c2
:020000040000fa
:0403100022090000be
:020000040000fa
:0403140022090000ba
:020000040000fa
:0403180022090000b6
:020000040000fa
:04031c0022090000b2
:020000040000fa
:0403200022090000ae
:020000040000fa
:0403240022090000aa
:020000040000fa
:0403280022090000a6
:020000040000fa
:04032c0022090000a2
:020000040000fa
:04033000220900009e
:020000040000fa
:04033400220900009a
:020000040000fa
:040338002209000096
:020000040000fa
:04033c002209000092
:020000040000fa
:04034000220900008e
:020000040000fa
:04034400220900008a
:020000040000fa
:040348002209000086
:020000040000fa
:04034c002209000082
:020000040000fa
:04035000220900007e
:020000040000fa
:04035400220900007a
:020000040000fa
:040358002209000076
:020000040000fa
:04035c002209000072
:020000040000fa
:04036000220900006e
:020000040000fa
:04036400220900006a
:020000040000fa
:100400004f8e20008e7224000e0188000000000034
:10041000000020000000e000020032000001200087
:100420002002880014000700880307000000e00095
:1004300003003a00c06122000100200002003700e2
:100440000000200001002000810f70000100320038
:1004500014000700000020000000e000020032004d
:100460000000020000000000de2302000000000087
:100470000040da000000fe004440a900a001200076
:100480000000e0000300320000002000a00188000e
:100490004440a800000006008a1f78008b1f7800e7
:1004a0000000060091018800800478000000eb0045
:1004b0001a003700e284440032a0b4009905ba0063
:1004c000e284440032a0b4009906ba00e2844400f9
:1004d00032a0b4000006eb00476fde00fd07b2005b
:1004e000636ce10003003a00ebff07000000eb0043
:1004f0000a003700606ce10004003a00005deb0088
:100500008b05e900fdff3e00040037006168e10053
:10051000010032000086eb000b00070019c7ba008b
:100520001905ba000e04e00003003a000a00e000da
:10053000e0ff3a0000000600fe07b2009e018800be
:100540008a047800f5ff3700395dba008b05e900b1
:100550000c003200295dba008b05e900080032006a
:100560000c00e00003003a00e284440032a0b40032
:10057000f5ff370019ddba008b05e900faff3a00f4
:100580008904e800e184440032a0b40000000600c1
:10059000000000000000000000000000000000005b
:1005a00000000000000000000000fa008400a90024
:1005b0000080fa0000400600801f78000000fa006a
:1005c00046c8bf000004a20046e8b7008680a90024
:1005d0000080fa004f00780000400600801f78007d
:1005e0000000fa0047c8bf000004a20047e8b700b7
:1005f00087a0a9000080fa004f00780000400600a4
:100600003600f800809fbe00829fbe00849fbe001f
:10061000869fbe000000fa00d0408000e1408000cc
:10062000c2792400809fbe00a0e42900801f7800ca
:10063000020078003a060700e687570040242200af
:10064000000001008760a9000080fa004f03be008f
:100650004f02be004f01be004f00be003600f90041
:10066000004006003600f800809fbe00829fbe005a
:10067000849fbe00869fbe00889fbe001000fa00c7
:1006800048c8bf00e54f500070003a003441800078
:1006900045418000d0408000e14080000001be0064
:1006a0000400be008b0407000002be001041800061
:1006b000214180000001be000400be00e5020700e9
:1006c0000004be007441800085418000d04080005d
:1006d000e14080000001be000400be007d04070070
:1006e0000002be00d0408000e14080000001be005a
:1006f0000400be00770407000001be000800be0031
:10070000d40207000004be0094418000a54180008f
:10071000d0408000e14080000001be000400be0027
:100720006c0407000002be00d0408000e140800061
:100730000001be000400be00660407000002be0007
:10074000d0408000e14080000001be000400be00f7
:10075000600407000001be000800be00bd020700e3
:10076000b0418800c1418800f04180000142800012
:10077000000407000004be00f0408000014180003a
:10078000930307000002be00b0418000c141800019
:100790000001be000400be004e0407000001be00c0
:1007a0000800be00ab02070000408800114088002e
:1007b0001042800021428000ee0307000004be00ca
:1007c000f040800001418000df0407000002be000d
:1007d000b0418000c14180000001be000400be00a5
:1007e0003c0407000001be000800be00990207009b
:1007f0002040880031408800004080001140800087
:1008000002002000733124003204070000408800f9
:10081000114088002040800031408000020020000c
:10082000733124002b0407002040880031408800e9
:10083000d0408000e1408000f226210033b0230048
:1008400084020700d0408800e14088000840800012
:1008500019408000200f80008000eb00c8030700d3
:100860000001be000800be0079020700a0030700d7
:10087000008fbe002840800039408000a00f80001b
:100880008000eb00be0307000001be000800be00b0
:100890006f020700960307002007980031079800b1
:1008a000f0428000014380003e014000ae814800dc
:1008b0000200be00f042880001438800104380001f
:1008c000214380003e011000ae8118000200be00ee
:1008d00040079800510798001e01be00124388008f
:1008e000234388004e009000de0090003e0140004f
:1008f000ae8148000200be00000040008180480038
:1009000040408800514088003243800043438000cb
:100910002e009000be00900002004000838048003e
:100920003043880041438800504380006143800089
:100930002e019000be0190000000510081805900fe
:1009400060079800710798001e01be0012438800de
:10095000234388002e019000be0190006e0090009d
:10096000fe0090000200400083804800000040002c
:1009700081804800604088007140880042408000cb
:1009800053408000007d200001002000800f5100b6
:10099000818f590004003c00409c20000100200091
:1009a00040408800514088006240800073408000d1
:1009b000007d200001002000800f5100818f590030
:1009c00004003c00409c20000100200060408800a2
:1009d00071408800600880006101b80040408000dc
:1009e00051408000800f5100818f590020003c0051
:1009f0001e00be00e00f5000e08f580005003400dc
:100a0000c402a800c422a90000f42100000c880040
:100a10003a003700e0e32f00f1ff2f001e01be0077
:100a2000800f5100818f59000c003500201c2000e0
:100a3000010020001e01be00800f5100818f59006f
:100a400006003c00c402a800c422a8008021ef00d8
:100a500010c0b30010e8b70028003700c402a90096
:100a6000c422a80000f42100000c880023003700f5
:100a70001e00be00e00f5000e08f58000700340059
:100a8000c402a800c422a900404080005140800058
:100a900000007800000c880018003700e0e32f0009
:100aa000f1ff2f001e01be00800f5100818f590001
:100ab0000c003500201c2000010020001e01be009b
:100ac000800f5100818f590006003c00c402a8002d
:100ad000c422a8008021ef0010c0b30010e8b700c6
:100ae00006003700c402a900c422a80040408000cc
:100af0005140800000007800000c880060088000f1
:100b00006101b8006040800071408000800f51009a
:100b1000818f590023003c002e009000be00900001
:100b2000e00f5000e08f580005003400cda2a8006f
:100b3000cde2a90000f42100300c88003f0037000e
:100b40002e019000be019000e0e32f00f1ff2f0086
:100b5000800f5100818f59000d0035002e0190004b
:100b6000be019000201c200001002000800f5100d9
:100b7000818f590006003c00cda2a800cde2a8005c
:100b80008621ef0010c0b30010e8b7002b0037003b
:100b9000cda2a900cde2a80000f42100300c88000d
:100ba000260037002e009000be009000e00f50009d
:100bb000e08f580007003400cda2a800cde2a900c4
:100bc000604080007140800000007800300c880098
:100bd0001a0037002e019000be019000e0e32f00c4
:100be000f1ff2f00800f5100818f59000d0035005b
:100bf0002e019000be019000201c2000010020006a
:100c0000800f5100818f590006003c00cda2a80042
:100c1000cde2a8008621ef0010c0b30010e8b700b5
:100c200006003700cda2a900cde2a80060408000f8
:100c30007140800000007800300c88008460a900ba
:100c40000080fa004f04be004f03be004f02be00fa
:100c50004f01be004f00be003600f9000040060004
:100c60000000fa008480a9000080fa00004006001d
:100c70003600f800809fbe00829fbe00849fbe00a9
:100c8000869fbe00889fbe000000fa00e07c240022
:100c900010407800e14f40004b013a00f07c240006
:100ca00010407800f04f400015003a002203200069
:100cb000e17c2400807324008504070080732000f9
:100cc000e01c8800a0002000101d880099e3a80007
:100cd0009be3a800a13a2200400620000100010089
:100ce00080732000e01c8800a0002000101d8800f8
:100cf00099e3a8009be3a8004868ef0032013700a1
:100d0000f07c240010407800ef4f400016003a00bd
:100d100022032000e17c2400807324006c0407007f
:100d200080732000e01c8800a0002000101d8800b7
:100d300099e3a8009be3a800a13a22004006200006
:100d40000100010080732000e01c8800a00020004a
:100d5000101d880099e3a8009be3a80010c0b30011
:100d600048e8b70018013700f07c240010407800f4
:100d7000ee4f400016003a0022032000e17c2400e0
:100d8000807324005204070080732000e01c880058
:100d9000a0002000101d880099e3a8009be3a80094
:100da000a13a2200400620000100010080732000cb
:100db000e01c8800a0002000101d880099e3a80016
:100dc0009be3a80020c0b30048e8b700fe0037004e
:100dd000f07c240010407800ed4f400026003a00df
:100de00022032000e17c24008073240038040700e3
:100df00080732000e01c8800a0002000101d8800e7
:100e000099e3a8009be3a800a13a22004006200035
:100e10000100010080732000e01c8800a000200079
:100e2000101d8800007d2400104078000080fb0029
:100e3000c800dd00107d2400104078000080fb0019
:100e40000080400090408800207d24001040780001
:100e50000080fb00c800dd00307d240010407800d9
:100e60000080fb0000804000a040880030c0b3003c
:100e700048e8b700d4003700f07c24001040780028
:100e8000ec4f40001f003a0022032000e17c2400c8
:100e9000807324000e04070080732000e01c88008b
:100ea000a0002000101d880099e3a8009be3a80083
:100eb000007d2400104078000080fb00c800dd00a9
:100ec000107d2400104078000080fb00008040006e
:100ed00090408800207d2400104078000080fb00b6
:100ee000c800dd00307d2400104078000080fb0049
:100ef00000804000a040880040c0b30048e8b70030
:100f0000b1003700f07c240010407800eb4f400027
:100f100096003a0005e1a900007d24001040780009
:100f20000080fb00c800dd00107d24001040780028
:100f30000080fb0000804000cf80de00704288000f
:100f400081428800207d2400104078000080fb0052
:100f5000c800dd00307d2400104078000080fb00d8
:100f600000804000cf80de0090428800a1428800cf
:100f70007242800083428000f04180000142800084
:100f80000000510081805900b0428800c1428800b1
:100f900092428000a34280001042800021428000e3
:100fa0000000510081805900d0428800e142880051
:100fb000b2428000c3428000b0428000c142800043
:100fc000009ab90004027800028bb900860278000a
:100fd000050242000011b8000302420084017800bb
:100fe000d4428000e5428000d0428000e14280008f
:100ff00000abb90006037800048cb90088037800c0
:10100000070343000020b800010343008600780076
:101010000200400083804800d6010700cc02070090
:10102000d0418800e1418800b0428000c142800088
:10103000d00107000004be00d0428000e1428000e1
:10104000cc0107000801be00df000700f040880067
:101050000141880000002000010e2400b0408800fb
:10106000c14088006000b80010418800214188001c
:101070006000b8003041880041418800b4408000e1
:10108000c5408000b0408000c14080000001be002b
:101090000400be000f0207000001be000000200097
:1010a000010424004c0107000002be00d041800072
:1010b000e14180000001be000400be0005020700ff
:1010c0007041880081418800b4408000c5408000a4
:1010d000b0408000c14080000001be000400be009e
:1010e000fc0107000002be00b0408000c14080004b
:1010f0000001be000400be00f60107000001be00b2
:101100000000200001002c00330107000002be0097
:10111000d0418000e14180000001be000400be001b
:10112000ec01070090418800a14188006000b800f0
:10113000d0408800e140880022032000e17c2400a8
:10114000807324006203070080732000e01c880085
:10115000b0002000101d880099e3a8009be3a800c0
:1011600050c0b30048e8b70017003700f07c2400f7
:1011700090407800a0cab30080cf500004003a002d
:10118000007d2400104078004be8b7000e003700c7
:10119000f07c240010407800e14f400003003a004a
:1011a00000c0eb0048e8b70007003700f07c2400df
:1011b00090407800b0cbb30080cf500002003a00de
:1011c00030c6b30048e8b70085c0a9000080fa0027
:1011d0004f04be004f03be004f02be004f01be00d1
:1011e0004f00be003600f900004006000000fa0083
:1011f0008700a9000080fa0000400600809fbe0022
:101200000000fa00a076240010407800e14f400072
:1012100008003a00b076240090407800a0cab300dd
:1012200080cf500003003a00c076240010407800c0
:101230004ae8b7008880a9000080fa004f00be008d
:10124000004006000040da000000fe00000005003b
:1012500003f0a200889fbe008a9fbe008c1f78000a
:10126000840107008b0133006450e1004f0032001d
:101270006420e1005200320003826c0007003b0052
:101280000905d0000306d000820f54000c065d0053
:10129000020039000200320089017800030678005c
:1012a0008582550004003d000003fd008103fd0020
:1012b0008502ea008b854200840f720002003b0029
:1012c00060001000e08018006011b8000005eb001d
:1012d0007a28e1000a00390006007800c75ddd00c9
:1012e000f707b200878075002d00370082817100fa
:1012f0000a017800610560008180d1000080d30080
:101300008502e900f9ff3b0006044000878448009d
:1013100002003b0060041400e0841c000988a30064
:10132000070032008a8171008281710061016400ce
:101330008904d1000884d3008b05e800170037002a
:101340000978a30013003a000b00e00013003400fa
:101350008b05e9000804440089844c000a447400a9
:101360000978a3000d003a000b00e00007003400ec
:101370008b05e9000804440089844c0001003a0010
:101380000b0020000978a300f7ff32000001eb00fa
:1013900002003700828171000a017800fa0007001c
:1013a0000cf0a70001f0a000430137006420e10029
:1013b00002003a00838f6c00430133000801be0035
:1013c0000200be003c013700889fbe008a9fbe001d
:1013d0008c1f7800270107001002200002003b004c
:1013e000704388002b0137008a0062006408e10026
:1013f00002003a0070438800330137006108e100c1
:10140000fcff32000800be000304780072000700f1
:1014100001f0a1000900070008f0a6000400370051
:101420000001be0091042400b0fd200088ff0700e9
:1014300009f0a70001f0a2001f013700889fbe003d
:101440008a9fbe008c9fbe000004be00f40007000f
:101450000800be00890678006420e1000800390019
:10146000040032000160a0001202200072438800d4
:101470005300370091fc2300b0fd20004e003700e0
:101480000006eb0009f0a10003f823000200200091
:101490000800be00920007000600340001f8230097
:1014a000000020000801be004b0007000004be0041
:1014b0002c0020000800be0093e82300320a23001d
:1014c00087000700120034000801be00d1fd230090
:1014d000703d2b005fff07000005be00b3f3230043
:1014e000f27a26000800be00fa00070003f8230085
:1014f0000200200056ff07000801be0055ff07004c
:101500000a01be00340007000004be000c06e8001b
:101510000800be0001f0a100020020000398230093
:101520006f0007000800be00160035000801be006d
:10153000e80007000005be0032cd2c0043fb23006d
:1015400044ff0700809fbe001269280003d52b00ce
:101550000a00be00df000700620f210013ef2b001e
:101560003cff07000a01be00da0007004f01be0081
:10157000190007000801be00d60007000801be00e0
:1015800034ff07000c00e0000b0032000c10a70035
:1015900001f0a200b2fd200093fc23006260e10094
:1015a0000400320022a9200063f023000c10a700e1
:1015b00063f8230027ff07000df0a70001f0a20049
:1015c0004f06be004f05be004f04be0000000600df
:1015d0000081eb00f3003700889fbe008a9fbe00a9
:1015e0008c1f7800a3000700aa00330003866c005c
:1015f0006450e1002e0032006420e100330032002c
:101600006150e1002f0032006120e1003100320022
:1016100085855500eb07b000090020000804200074
:10162000050037000804440089844c000a0031009a
:101630000603430087834b000001530081815b0058
:10164000f8ff33000203be000800a00008044400b5
:1016500089844c00f6ff3900c639dd008301730030
:1016600001003200130020008904d1000884d30057
:101670000998a300050032000800a7000300a0009d
:101680008904d1000884d3008b05e8008904d100c7
:101690000884d3000001eb000281d2003a00070069
:1016a00001f0a1000cf0a70001f0a00082003700bb
:1016b0006420e100840032000801be000200be0088
:1016c000f7ff37006120e1007f0032006000b800c2
:1016d000f3ff37000000200001f82700f0ff37007b
:1016e000140020004f013700f4ff2f004d01370098
:1016f0000001be004a0007000470a70003f0a1002b
:101700006509b100160032000d0035006828e100bf
:1017100006003500f0ff2f00f1ff27000300e00076
:1017200013003b00010028000000050000004000fd
:10173000818048008502e900fcff3a00080037007c
:10174000f88f420002003c008000eb000000050022
:101750008100d1000080d3008502e800fcff3a0040
:101760000300e00002003b0060001000e080180071
:10177000000006004f89de00820178004401370036
:101780006011b800520137008100200061805500cf
:101790000b003d000b00200061fe2f000100e10066
:1017a0001d00340082817100610164008904d10050
:1017b0000884d3000000e800faff3a00710020001e
:1017c0006100640003007000020060000900320044
:1017d00061044400e0844c000988a5000500320043
:1017e0008b05e8006808e10002003a008904d10096
:1017f0000884d300f20f20000258e10005003d00ec
:10180000c75ddd00f907b200898075000800780027
:10181000000006000bf827008b0078000000050090
:10182000c70ade00f107b200f50fb200080032006f
:10183000e1cf4200020032000170a0002400050048
:10184000810f70000100320004080500440005000b
:10185000810f700002003a00140005008502e900c3
:101860000000400081c04800fcff3b000170a00068
:10187000240005000004be00e9ff07000003be00cd
:101880000405be000200be00e5ff0700844f75009e
:10189000000006000200be006450e10005003600b2
:1018a0006420e100020036000968a30001003a004c
:1018b0000800be000160a0004f0678004f05be0082
:1018c0004f04be0000000600f0ff2f00f1ff2700cc
:1018d000f9ff3700889fbe008a9fbe008c1f7800ea
:1018e000e4ff0700ebff330003866c006450e10067
:1018f000240032006420e100270032006150e10042
:10190000220032006120e100210032008b8542007c
:10191000eb07b1000134b800003ab80008044200f7
:1019200089844a00013ab8000030b800888040003d
:1019300009014a0004003300000040008180480093
:10194000020149008b05e900c909dd00830170002f
:101950000100320013002000c814de004814dd002e
:101960004709de001200b200c808de0008847000db
:1019700085ff070001f0a1000cf0a70001f0a00016
:10198000cdff37006120e100cfff32000801be002b
:101990000200be00f7ff37006150e100fcff3a0093
:1019a000c9ff3700889fbe008a9fbe008c9fbe0083
:1019b000820578000004be0099ff07000800be0001
:1019c0006420e1000700390002003a00f1ff27001f
:1019d000f0ff2f000160a000120220007243880077
:1019e000550037006120e10003003a000b00a7001a
:1019f00001f823005000370001f0a100020021008f
:101a00009364240036ff07000800be000400350080
:101a1000b2fd2000930c2400dc0007000004be008f
:101a20000005eb000b00a6004f0dde0001f0a10049
:101a30000004be0032982f0023ea2300a5ff070010
:101a40000001eb0003f023000b00a70003f82300c4
:101a500000fe070026ff07000000a7000a00a20002
:101a600044ff07000b00e0000300320002002000ea
:101a700003f02300f6fd070001f0a2000006be00ff
:101a8000020020009304240092ff07000801be001a
:101a9000f0fd0700809fbe000c00be0022a22a00bd
:101aa000d3a723008bff07004f01be00e9fd07000d
:101ab0000004be0001f0a1000200200003982300f2
:101ac00007ff07000800be00190035000001be0036
:101ad00080ff07000006be00b2c52900e3622300b4
:101ae0007cff070022222b00f3942b00d9fd070076
:101af0000c01be0077ff0700e273280083c02300bb
:101b0000d4fd07000c01be0072ff070042aa2a00a4
:101b1000a3e22b00cffd07000c01be006dff070004
:101b20000801be006bff07000801be00c9fd0700e9
:101b30000a00a70001f0a2004f06be004f05be003c
:101b40004f04be00000006000001eb0095ff3700c7
:101b5000889fbe008a9fbe008c1f78000004be00d4
:101b60002fff07000478a30026003a006120e1005f
:101b70002500320009f8a30025003a006420e100a6
:101b800021003200f507b1000508a3000200320071
:101b900000004000818048006044b800031020002d
:101ba0000200200000004000818048000805440039
:101bb00089854c000a0541008b8549000a055000c3
:101bc0008b855800030033000a00be000204740035
:101bd000838474008301d1000281d300830f7100dc
:101be000f0ff3a008904d1000884d3006001490065
:101bf00082017800c1adde00fb07b000e2fe070005
:101c00002dff37000960a0000800be002aff370042
:101c10001202200072438800f0ff2f00f1ff27001e
:101c200025ff3700889fbe008a9fbe00841f780072
:101c300010ff07004f00780011003300f0ff2f0065
:101c4000838f6c0006003b00040565000a00a700b6
:101c50000800370009f0a600100020000800370037
:101c6000820f5400838f5c000300390010002000b5
:101c700001003e000000200009f0a7000000ea007b
:101c80004f05be004f04be000000e000000006004b
:101c9000881f7800030478000300e00007003d007f
:101ca00060001000e080180060011900e081190058
:101cb00002003b0001f02d00030037000400070084
:101cc00008f0a70001f0a0004f0478000000060013
:101cd000889fbe008a9fbe000082700004027100cf
:101ce00004827100260032000004be000200be0023
:101cf0006011b8006b092000950220000182cf001e
:101d00000a0039000541b1000082cf000700390008
:101d10000541b1000982cf00040039000541b1003e
:101d20000882cf00010039000541b1000542520090
:101d3000120032000a003b008281710061016400e0
:101d40008100d1000080d3008984d3000884d300af
:101d50008b05e8000442e800f7ff3a00070037006f
:101d60000804440089844c00000048008180480039
:101d70008b05e9000442e900f9ff3a0082fe070002
:101d80004f05be004f04be00000006000400200006
:101d900000003700889fbe008a9fbe008c1f78001d
:101da0004f26dd00b3fe0700bafe33006120e100dc
:101db000430032006250e10041003e003e00390025
:101dc0006420e1003c003200058255000f003b001a
:101dd0000402e80038003a00800f5300818f5b0056
:101de000350034000800be0003f0a10001f0a60099
:101df00003f0a0000cf0a70016fd0700aefe3700b0
:101e00000603430087834b000c4646000005530041
:101e100081855b00020033000a03be000c00a000b5
:101e20000402e900f6ff3b00850578000602430046
:101e300087824b0004003a006000b80009f0a70058
:101e400001f0a0009cfe37000002520081825a007f
:101e50000704e000040033000603430087834b00bf
:101e60008b05e900faff3700090578000604be007b
:101e70000203be006011b80043fe0700e00f5200ed
:101e8000e08f5a000700350002003c000c08a30058
:101e9000040032000601be0003f0a0000cf0a70011
:101ea000ecfc07000a85680001f0a1000af0a70019
:101eb00001f0a00080fe37000800be007efe370063
:101ec000100220000cf0a600704388007efe370050
:101ed0008001780002003700b15978000201e90062
:101ee0000200e000fcff3a000000060080007800dd
:101ef000010178003104e000fdff3a0000005100cc
:101f000000000600881f78000204780008017800ad
:101f1000efff0700080040004f04780000000600b3
:101f20000000fa00881f780000047800ea8157005a
:101f30003fb997008800780020f8200007000700cc
:101f40000000e000020035008040eb0001747800e2
:101f50004f0478000080fa00000006006200fa00da
:101f6000889fbe008a1f78000005780081047800f1
:101f7000020478008300780080f92f000f004000f1
:101f8000380407009a979f00a9979f000000eb0074
:101f9000b09f9f001885fb008a04fb000a05ea0039
:101fa0004f55de0050022000808f54000d0032009b
:101fb000e10f55000b003a000a0178008800780014
:101fc0002f9097009f91970003000100a0979f001a
:101fd0000000e0008e0032003f9897000000e8000b
:101fe000b09f9f000a04440050022000808f5400dc
:101ff000040032000900e000e6ff3a003f98970035
:10200000840037000000eb00909f9f00809f9f009e
:10201000f0979f00e0979f00d0979f00c0979f0088
:1020200007003700c18d2000010050000000400073
:10203000018d200061007800df989700010070009a
:10204000d09f9f0088047800090478003845780004
:102050008a00fb00c08d2000100307000000e00094
:10206000f0ff3a00a1c2b300814f55000e003a00c4
:10207000cf8897000180e900c08f9f001000780092
:10208000c09f9f000000e00005003d000000ea0046
:10209000c09f9f005f9897000020a000d09f9f00e6
:1020a0000904e8000f003700c09f9f000000eb000c
:1020b00005003700f2ff2700820f500002003200b7
:1020c0006a01b900028040000904780088047800a1
:1020d000b900fb000103b100e98f5000f5ff3600a5
:1020e000c09f9f00e0c2b300984f10000200320072
:1020f0000080eb0019003700a0c2b300d84f1000d9
:1021000007003a00cf8897000180e900c08f9f0048
:1021100010007800a09f9f000804e800100037001e
:102120000000eb00a09f9f008800780005003700aa
:10213000f3ff2700830f5000020032006a02b9004b
:102140000400410001047800880078003101fb00a0
:102150000203b100e90f5100f5ff3600a09f9f0078
:10216000984478008900fb00808c2000cb02070097
:102170000000e000020032000804e800010037001f
:102180008044eb00c97f9f0080c6b30080cf54001d
:1021900004003a0098cf14000a003a00664050004c
:1021a00006003700c0c6b30080cf540005003a00d7
:1021b00098cf140003003a0065404000c07f9f00a4
:1021c0000804e8001801fb00e3fb2f008f814100a9
:1021d00081f92f008f804000a0f92f000f004000f0
:1021e000100007000000e00009003a00e1fb2f00aa
:1021f0008f804000a0f92f000f004000dd02070093
:102200000000e000020035000804e80061ff37002c
:102210000080eb004f0578004f04be000080fa00fc
:1022200000000600889fbe008a1f78000004780026
:10223000824478000305780070c4b30080cf540056
:102240000a003c0000c0e90080cf54000f003d00b0
:1022500050c2b30080cf5400350032007c404000b3
:1022600080cf540035003a000800370010c6b30094
:1022700080cf54000500320030003500b0c9b300f3
:1022800000c04400e24f50002c003e002861900046
:10229000c0c4b300804f510006003a00110178001d
:1022a00068005100800878005001be004000be0068
:1022b00005003700110178006400510080087800a3
:1022c0001000be006d040700009cbe000294be001a
:1022d000b8009000780090000100e00002003d008e
:1022e000d1c2b30008003700881090000118a30085
:1022f00002003200b1c2b300030037000108a3009e
:102300000400320001c2b300017578000000e8004b
:102310007004980078009000000545006a04980059
:102320008900fb0008007800100007000b00370050
:10233000780090000975780006003700780090005a
:10234000000545000904e00001003a0059c2b3004d
:10235000094d78000000e800700498000000eb00d0
:102360004f0578004f04be00000006002f04b000a7
:10237000889fbe008a9fbe008c9fbe008e1f780083
:102380000007780081f79f003e04be002e05be00c6
:102390005e0890000000e00002003d0060002000a8
:1023a000500f98008e00780020fb2f000f00400097
:1023b00046020700e20f50000a003a0030002000f9
:1023c000100f9800b1c9b3000ff097008140400092
:1023d00040872000e1cf50000d003e000087200024
:1023e0000b0037000000e0000f0034003000200038
:1023f000100f9800b1c9b3000ff197008140410060
:10240000c0872000e1cf500001003e0080872000ff
:10241000ee009000b0487800b06878001040780076
:1024200090409800f30037000000e00005003a00fb
:1024300022fb2f000f014100001978008001eb0002
:10244000e70037006022b8006033b8000800be0023
:102450000a01be00510307000000e00001003d003a
:102460000bf0a200705927009f9897000088b900d0
:10247000026a280013002000ac0307006406500025
:102480009c9f9f0013003b0063061600c0ff2f00b7
:10249000000666008c01ea00939f9f000d882000d3
:1024a0000800be000a01be00070037000c08a300a8
:1024b000030032003d02be002d03be003e040700b3
:1024c0000c86d100e88646000c00e000f7ff3c00d7
:1024d000180037000c00e00018003200c0ff2f0089
:1024e000000666009c9f9f000d8820006000b800d9
:1024f0000200200003ff2300070037000c08a300a0
:10250000030032003d02be002d03be002a04070076
:102510000c86d100e88646000c00e000f7ff3c0086
:102520000002be000203be000800be000a01be0099
:10253000240307000004be000205be00de08900070
:1025400060c6b3000ff29700804f520004003200c3
:102550006000200062c4b300824f520002003a00c3
:102560009f9a97006a80420081004000f1b79f0067
:1025700001037800f30f53000200340037012000fc
:10258000f7b79f0000c3b300c0779f0056fb2f0032
:102590000f0343000e007800a0b79f0006077800e5
:1025a0003d0037000800be000a01be00d20307004c
:1025b0000006be007fb1970068015100f2b79f008e
:1025c0004240a9000c003400f70307000002be00df
:1025d0000203be000800be000a01be006c04070032
:1025e0006022b80046782d0077192400f203070016
:1025f0000004be000205be00e80047008e00200077
:102600000802be000a03be00b4b79f00c5b79f0012
:10261000d6b79f00e7b79f000c01be000104780009
:102620000c003700a400200005002000c0fd2f0092
:102630000f004000840107006fa89700ffa89700d3
:102640000fb197009fb1970005c3b3000564410027
:102650000001be00e00f5100e08f5900030034007c
:102660000e07e900e10f4700eeff3a00880078000e
:102670003fb49700cfb497005fb59700efb59700d0
:102680000200370000c3b300806078000e07e90045
:10269000fcff3b00688740007fb397000600e00026
:1026a000070034006022b8006033b8000800be00a4
:1026b0000a01be00be0207000000e000b9ff3c00b6
:1026c0000e0378002fb7970051fb2f008f8040003a
:1026d000010353009f9b970067804300909f9f00da
:1026e000020037000603e9000000e900010178005c
:1026f0008200780003c3b300b1cf1100f9ff3200ac
:10270000909f9f00de09900061c6b3000ff2970012
:10271000814f52000300320061c4b300814f520068
:1027200002003a000000e8000a0037001000200014
:1027300051c6b3008ff2970081cf520005003200de
:102740000540780050c4b2000080fb000000e900a2
:102750004f00de0083014000868f510001003400ed
:10276000860178000300e0001d00350000c3b300bf
:10277000868f510006003d0062c27900694040002a
:1027800041c3b300814f520001003c00694050003a
:102790008300e900810041000100370084017800d6
:1027a0000302e90001037800a142780080cf5200c3
:1027b000faff320091c3b300814f500001003a008c
:1027c000054be8000400e00005003d000201e900bf
:1027d0008301e8001f9b97000603e800969f9f0077
:1027e0008ff397008700fb001f9a97000e00780078
:1027f000060007004f0778004f06be004f05be00d9
:102800004f04be002f04b10000000600f08747000f
:10281000889fbe008a9fbe008c9fbe008e1f7800de
:1028200000047800814478000205be0004067800a8
:102830000b00e00002003c001b0020002a8e20005c
:1028400060c6b30080cf54000e00320060c4b300f5
:1028500080cf54000b00320070c6b30080cf54000c
:102860000300320070c4b30080cf540081003a00ee
:10287000e40f46007f00350058089000800f560096
:102880007c003d000c06e80060c6b30080cf540019
:102890001000320060c4b30080cf54000d0032003d
:1028a000081090000038a30004003a005808900077
:1028b000808f550001003d005b0c98005808900087
:1028c0000c005000500c980002003b000000eb0090
:1028d000500c980018089000e80090000c00e000f0
:1028e00026003c0002c3b300827078000000e800bc
:1028f000100c9800d80890000100e00003003c0094
:10290000881090000138a30005003200e800900014
:10291000e2c2b300827078000000e800100c98005a
:10292000580890008c00ea00810f500001003d0023
:102930000006ea008c00ea00210c98000006460020
:102940005c0c98008b0f5600010034000b067800d9
:102950003c0c9800e80090001808900000804000af
:102960000c0178008a00780059fd07005808900093
:102970000c0650004c0c9800900037008c8f5500ce
:1029800018003d00008040000b0178008a007800ac
:102990004ffd07001808900000804500100c9800bb
:1029a0008b0556002b0c9800d80890000100e00021
:1029b00003003c00881090000138a300060032009c
:1029c000e8009000e2c2b3008270780038089000fe
:1029d0000000e800300c980058089000400c980067
:1029e00076003700008040000c0178008a007800f3
:1029f00037fd07001808900000004600100c9800f2
:102a00008c855500d80890000100e00003003c00d0
:102a1000881090000138a30005003200e800900003
:102a2000e2c2b300827078000000e800100c980049
:102a300058089000808f5500010034008005780010
:102a4000e800900018089000008040008c004500cd
:102a50000b0178001efd0700180890000b004000d5
:102a6000100c9800580890008b0550002b0c980013
:102a70005200370018089000e80090009a70780023
:102a80000000e800100c9800d80890000100e00059
:102a900003003c00881090000138a30005003200bc
:102aa000e8009000e2c2b300827078000000e80005
:102ab000100c9800580890000000e000100034004e
:102ac0008b05e900808f55000100340080057800f7
:102ad000e800900018089000008040008a00e8009c
:102ae0000b017800fafc0700180890000b0040006a
:102af000100c9800580890008b0550002b0c980083
:102b0000e800900018089000008040000958780004
:102b10000007e8000c00e00004003500b1c2b3007b
:102b2000014878008e04780004003700d1c2b30059
:102b3000014878008e0478000c06ea007d85570075
:102b40008006eb0009003700a20020008c0078000e
:102b500072805700310007007fb097008fb8970050
:102b6000016d7800000678008d06e8000c00e0009a
:102b7000f5ff3c000d00e00009003a008e047800eb
:102b800000c3b300805c7800050037008d06e900c3
:102b9000fc80570061c07e0002c3b300825c40002d
:102ba0000d00e000f9ff3c00e800900018089000dc
:102bb0000080400080845400390c98000810900078
:102bc00074006000f00f50000e003a00980890006a
:102bd0007800900000804000a808900001004000ac
:102be000b808900001004000c808900001004000b3
:102bf000f8089000810f500002003d000080500056
:102c0000000c98004f0778004f06be004f05be002d
:102c10004f04be000f01b1000000060080027800e2
:102c200001037800110009000203d8008001780038
:102c3000830a78000299b9000201530092029800b9
:102c40000500780000000600881f78008a9fbe00fb
:102c50008c9fbe00000478000205be000406be0082
:102c60000401be000a00be00b0010700008cbe00d7
:102c70000c01be00d80207000005550081855d00eb
:102c80002a0498003b049800080078004f06be0014
:102c90004f05be004f047800000006000200370018
:102ca0000304e00006003200000178000200780012
:102cb000b041780081cf5100f9ff3a0001003700a0
:102cc0000001eb000200780000000600889fbe00b3
:102cd00000047800e68440001900d0004500de00c2
:102ce000f27f2000820f500010003a00000ceb0031
:102cf000990478006f816400200020001b003a00d6
:102d0000210190000200e00018003a00110190003b
:102d10000200e00015003a00100020001100e00061
:102d20001200320020002000100037000000e000f8
:102d300004003a0001007800cc0007000000e00029
:102d400008003c00f20028001901610001fe230088
:102d5000810c710021c02f00010c40000080eb00ad
:102d600002003700000ceb000000eb004f04be0037
:102d7000000006000400fa00889fbe008a9fbe0083
:102d80008c1f78000004780001067800f80d900090
:102d900078009000808555000808900080855500d7
:102da00018089000808555002808900080855500ff
:102db00038089000808555004808900080855500af
:102dc0000002220090bf9f0000032300a0bf9f00cd
:102dd000081090000028a30015003a000b00e00046
:102de000130034000b0578008a047800e20f5500c8
:102df0000100360029002000c80190000901780078
:102e0000ee80570058009000030001005004980025
:102e10000000e0008c0032006808900009004000cb
:102e2000600c9800090555004240a900eeff3c00e7
:102e3000780190000200e0000c003400c80190000e
:102e40008c007800580090000300010050049800a6
:102e50008080eb000000e0007c003200e808900079
:102e60007800900000804000600c9800880c900072
:102e70000900e0001100340009057800e28f5400d9
:102e8000010036002a002000c80190000a017800e5
:102e9000ec80570058009000030001005004980097
:102ea0000000e00068003200680890000a0040005e
:102eb000600c98008a845400edff370018099000d8
:102ec0000200e0000c003400c8019000e80090000f
:102ed0005800900003000100500498008080eb002f
:102ee0000000e00059003200e80890001808900047
:102ef00000804000600c9800a80c90000900e000e1
:102f00001100340009057800e28f540001003600fa
:102f10002a002000c80190000a017800ec805700c8
:102f20005800900003000100500498000000e000e9
:102f300045003200680890000a004000600c9800cc
:102f40008a845400edff3700380990000200e00049
:102f50000e003400e80090001808900080804000c7
:102f6000c801900058009000030001005004980030
:102f70008080eb000000e00034003200e8089000a0
:102f80003808900000804000600c9800c80c900049
:102f90000900e0001100340009057800e28f5400b8
:102fa000010036002a002000c80190000a017800c4
:102fb000ec80570058009000030001005004980076
:102fc0000000e00020003200680890000a00400085
:102fd000600c98008a845400edff370008109000c0
:102fe0008000eb000028a300180032000b00e00076
:102ff000160034008b04780009057800e28f540035
:10300000010036002a002000c80190000a01780063
:10301000ee80570058009000030001005004980013
:103020000000e00008003200680890000a0040003c
:10303000600c98008a8454004240a900eeff3c00d6
:103040008000eb00010037008080eb000100780079
:103050004f0678004f05be004f04be000080fa0006
:10306000000006000108780000000600e6004000ad
:103070001101780005002800850261006f016100e0
:103080008208780002003200120020001100370090
:10309000a0019000120020000300e0000d003a00a3
:1030a000900190000300e0000a003a001000e000e8
:1030b00008003a00360037006403400096087800a4
:1030c00080017800530b780090097800040878009c
:1030d00070015100110278000400e000f6ff320098
:1030e0001300370064024000140378004f33de0001
:1030f000838141008308730080017800d303780046
:10310000cf3bde001403780006034300068a7300f9
:103110001302780004024200100378004f33de00ef
:103120008609720090017800038841000201e900dd
:1031300091017800ef8f5100eaff36001000370050
:1031400080017800530378004f33dd001002d10076
:10315000040873006402400094037800cf3bdd0054
:103160001303d10086897300110378004f33dd000b
:103170009401d100030a73009108d1000201e80014
:1031800091017800ff8f5100edff3e00ef88610054
:103190009188720002007800000006008f1fd100a5
:1031a000110207008f87e9000000e0000000060020
:1031b000809feb000c0207008f87e9000000e00011
:1031c000000006002800fa00889fbe008a9fbe000b
:1031d0008c9fbe0003866b008f0007006400e10037
:1031e000440032006408e1004a0032006100e1005e
:1031f000460032006108e10049003200ec06470059
:103200006000b8003d02be003d03be00f4865700da
:103210006011b8003d04be003d05be007d032000e6
:103220000b0037000000a0008d06e90013003200fb
:103230000402420085824a0006034b0087834b004c
:10324000000040008180480002014900838149005c
:103250000802520089825a000a035b008b835b00dc
:10326000f0ff3b000802420089824a000a034b003b
:103270008b834b008d06e900edff3a0084827200db
:1032800086827200f707b200878272000100320066
:10329000150020001e0490003e0b90000603540011
:1032a000e63fb0000368a300070032000000a7005b
:1032b0000500a0008301d1000281d3008180d300ea
:1032c0000080d3000603e8008301d1000281d3000f
:1032d0008180d3000080d3000002eb000482d20082
:1032e0002100070003f0a1000cf0a70003f0a000ec
:1032f0005d003700640247006408e10057003200b7
:103300003400be003401be00f6ff37006108e10062
:10331000520032006011b8006000b800f1ff3700c1
:1033200003ff270002002000fbff3700839f680097
:103330000100e00002003d0060001000e080180085
:103340000300e00002003d0060011100e08119006f
:10335000110107004f00e00002003b006000100078
:10336000e080180000000600180020005700200030
:10337000080453000d003d000600200097fc2f00bc
:103380000740e1001e003400848272006102600088
:103390008301d1000281d3008180d3000080d3005b
:1033a0000804e800f8ff3a004700200061046000cc
:1033b00005047400040464000d0032006100400044
:1033c000e080480060014900e081490003b8a500a1
:1033d000070032000603e8006538e10004003a0007
:1033e0008301d1000281d3008180d3000080d3000b
:1033f000f87f20000830e100030035000803780062
:103400006000b8006011b8004433dd00f300b20082
:103410008301730000000600680447000294be00a8
:103420000094be00fc0447008694be008494be0055
:1034300009007800b501070008007800b301070013
:1034400099007800814f70000b003b000800be001f
:103450008e0107004f00b10003003700f3ff270083
:10346000f2ff2f006110b9004f06be004f05be00ed
:103470004f04be000080fa000000060081037800bf
:10348000e7f807000001be006000b8000478a30060
:1034900013003a006220e10015003e000d003900e3
:1034a0008301d1000281d3008180d3008301d10048
:1034b0000281d3008180d3008301d1000281d30037
:1034c0008180d3000538b000c42add00f300b200cb
:1034d0008381720007f0a70003f0a000000006003f
:1034e000f3ff2700f2ff2f006110b900fbff370048
:1034f00003ff2700f7ff37001400fa00889fbe0083
:103500008a9fbe008c9fbe000004be000205be0064
:10351000680047000a90be000890be007b010700cb
:103520000070a7000bf0a100304320009e02900025
:1035300080825200b0fe2f000028e10011003d0003
:10354000b0fc2f000028e100150034001e09900097
:103550008e0890007e0090000501b0000201d100ad
:103560008180d3000080d3008502e800fbff3a0091
:103570000b00e000bcff3b0060001000e080180082
:10358000b9ff3700f0ff2f00f1ff27000b00e0002c
:10359000b5ff3b000100280000002000b2ff37000b
:1035a0006000b800b0ff37004f89de00820178006c
:1035b0007d013700000000002800fa00889fbe004f
:1035c0008a9fbe008c9fbe0003866b0092ff07009f
:1035d0000028a30064003a000128a30067003a0015
:1035e0000008a30062003a000108a30065003a0049
:1035f0001e009000be08900081064000ed3fb10023
:10360000f4805700ee019000111ab8008e09900066
:10361000311bb8009e099000311cb800511db80044
:10362000f485570046000700fe0190003a000700ad
:103630008b85e8003e0007008e09900040000700df
:10364000ee019000340007008b85e8003800070089
:103650008e099000400007009e0990001b18b800da
:10366000890440000a854800fe01900034000700ec
:103670008b85e80038000700ee019000300007005d
:103680008e0990001b18b800890440000a85480084
:103690000a98a30008003a000402420085824a000a
:1036a00006034b0087834b0008044c0089844c00c0
:1036b0000a054d008d06e9008482720085027300c0
:1036c0004c3add0085027200010032001500200036
:1036d000443ade001400b2004538de00cb45dd0080
:1036e0000b007000c540de00cb4ddd008b8070000c
:1036f0004549de00cb55dd000b017100c551de00f0
:103700000d03780018ff070003f0a1000cf0a700dc
:1037100003f0a00054ff37001b18b80085024000da
:1037200006834800e0834b0060044c00070037002c
:103730001b18b8000603400087834800faff3700d3
:103740001b18b8008703400008844800e0844c0040
:1037500060054d00000006001b18b800080440007a
:1037600089844800faff37000108a3003bff3a00b4
:103770005800be005801be00e3ff37000008a30058
:1037800036ff3a0009047800f9ff37000000000016
:1037900007f0a200160037006022b80006022000e1
:1037a0000000d0008180d2000482d2008582d20045
:1037b0000000a0000202520083825a000300310080
:1037c0000202420083824a000000a1000603e900d1
:1037d000f3ff3a0000000600020ab900001bb9001e
:1037e0000200b80081004200810043000000060092
:1037f0002800fa00889fbe008a9fbe008c9fbe00f2
:1038000007067800878669000c003b0003047800f7
:103810008704780008f0a10009f0a100840f50008f
:10382000858f5800860f5900890f5c000300330014
:103830000cf0a20001003a000cf0a100f6fe070017
:103840006400e1005f003200780147006408e10095
:10385000610032006c014700748557003200be00e1
:103860001201be003a04be001a05be001e039000fd
:10387000be0a90008503530006003d000004fd00d1
:103880008104fd000205fd008305fd008703ea00b9
:10389000050378000df8a300040032006004140052
:1038a000e0841c0060051d00e0851d006022b8005a
:1038b0007d0320000d38e1008006eb000b0039008d
:1038c0004433dd00f300b200830173003900370098
:1038d000848272000d027800e10664008b85d100bd
:1038e0000a85d3008984d3000884d3008703e900c4
:1038f000f7ff3b0008004000898048000a014900aa
:103900008b81490004003b0060001000e08018003b
:1039100060011900e08119000358a300090032007a
:103920008d82720084827200610260008301d10086
:103930000281d3008180d3000080d3000603e80019
:103940001b0037000348a30017003a000600e00000
:10395000170034000603e9000d00a3000000480032
:103960008180480002014900838149000348a30087
:103970000f003a000600e000090034000603e900e9
:103980000000400081804800020149008381490015
:1039900001003a000003eb000348a300f5ff3200ea
:1039a0006022b800020037008482720061826600e3
:1039b0006dfe070003f0a1000cf0a70003f0a000cb
:1039c000a9fe3700640147006408e10002003a00e4
:1039d0000df8a300a1fe3a003200be001201be00a5
:1039e000a1fe370000000000889fbe008a9fbe0035
:1039f0008c9fbe000404be000605be00809fbe0072
:103a0000829fbe002f000700040678000800be0059
:103a10000a01be002b000700840678004f03be0099
:103a20004f02be008d4f76007fb097001300330029
:103a3000f0ff2f008b8f6b0006003b000d06660029
:103a40000c00a7000a00370007f0a60010002000b5
:103a50000a003700880f5200898f5a008a0f5b00d6
:103a60008b8f5b00030039001000200001003e0036
:103a70000000200007f0a7000000ea004f06be008b
:103a80004f05be004f04be0000000600e482400067
:103a90001078a30007003200640240001178a300f0
:103aa0003400be001401be00040032000330a70041
:103ab000000006003500be001501be000330a00066
:103ac0000000060005ff27000582610007003200a4
:103ad0000428e10001003200240005000600070070
:103ae00001003a0044000500040805000200070038
:103af000f9ff3a00140005006f8261008102700036
:103b000085027100850272000000060080007800c6
:103b10005002be005003be004439de00f700b20080
:103b2000f37f200003016100090032000218e10068
:103b300016003a00850172008301730083817300cf
:103b40000008200015003a00400020001300370054
:103b500085017200830173008381730005003a00c0
:103b600004a8be0006a8be00100020000b0037000d
:103b70000201e9000402420085824a0006034b006c
:103b800087834b000748a300f9ff32000740a000dd
:103b900004a8be0006a8be002000200080009800f7
:103ba0009200980000000600881f78000304780047
:103bb0000300e00007003d0060001000e0801800f6
:103bc00060011900e081190002003b0001f02d00a6
:103bd000030037000400070008f0a70003f0a0006e
:103be0004f04780000000600889fbe00008270002d
:103bf0000402710004827100240032003643200068
:103c0000c50020008383cf000a0039000541b100c0
:103c10008283cf00070039000541b1008183cf00c6
:103c2000040039000541b1008083cf000100390054
:103c30000541b10085c353006022b8001200320074
:103c40000a003b0084827200610260008301d1009f
:103c50000281d3008180d3000080d3000603e800f6
:103c60008743e800f7ff3a000700370000004000f4
:103c70008180480002014900838149000603e90070
:103c80008743e900f9ff3a00b7fd07004f04be0083
:043c9000000006002a
:020000040000fa
:103c9400256600000a0000007374000061740000cf
:103ca4006520000065780000747200006120000047
:103cb400006300006f6d0000706c0000657400000c
:043cc4006500000097
:020000040000fa
:103cc8000000fa00f0032000303a8800213a800012
:103cd80000fe2f00008060000000a000203a88004d
:103ce800213a8000f0f32f0000806000203a88001d
:103cf8004827ef001200200080072000a1092000bb
:103d0800337420008049780081497800824978001e
:103d18001200200060042000710520002374200098
:103d280080497800814978008249780000000000c5
:103d3800113a800000002700808060000000210008
:103d4800808f5000faff3a0000000000113a80000e
:103d580000022000008060000000e000fbff32004d
:103d68000080fa00000006000000fa000080eb0066
:103d780060198800c842a800c862a800c8e2a80064
:103d8800c902a800c922a800c942a800c982a9007e
:103d9800c9a2a900c9c2a900c9e2a900c002a90014
:103da800c022a9000080fa00000006000000fa0006
:103db80081088000f0fc2f00008060000040a00017
:103dc8008008880000712200600888008021ef00c8
:103dd8008621ef00210c800080ff2f00008060000a
:103de800200c88008461a900210c800080ff2f002e
:103df800008060006000b300200c8800510c800037
:103e080080ff2f0000806000500c88008a61a900a4
:103e1800510c800080ff2f00008060006000b3001c
:103e2800500c8800113a8000f00b200000816000df
:103e38006004200071052000237420008049780068
:103e480081497800824978006136800000fe2f00a1
:103e5800008060002001b300603688007136800061
:103e680000fe2f00008060003001b300703688002b
:103e7800103a8000000178000260a0006004200071
:103e8800710520002374200080497800814978005a
:103e9800824978000080fa00000006000000fa005d
:103ea800f10880000003200001007000f00888007d
:103eb80050c32000d00888009760a80081058000c2
:103ec800f0ff28000080600000c0a0008005880086
:103ed8000080fa00000006000000fa0021088000b7
:103ee800f0fc2f00008060000040a000200888003f
:103ef80000712200100888009460a8002105800045
:103f0800f0ff28008080600000002500010070009c
:103f1800200588000080fa00000006000200fa0070
:103f2800004f7800114798001e40900067406000dd
:103f38000080fb00670060002205800081ff2f00e1
:103f48008100610001007000200588009e40780013
:103f580061c060000080fb00610060001104800007
:103f68000100a10001007000100488009400a8005e
:103f78000080fa00000006000400fa00004f7800f4
:103f88001147980022479800113a8000f00b200052
:103f98000081600060042000710520002374200067
:103fa8008049780081497800824978009e407800ed
:103fb8007fc060000080fb007f0060004800dd00db
:103fc80002348000f10f2e008100610001007000b2
:103fd80000348800103a8000000178000260a000d8
:103fe80060042000710520002374200080497800b7
:103ff80081497800824978002e409000674060002f
:104008000080fb00670060007205800081ff2f00c0
:104018008100610001007000700588001e4090005a
:10402800614060000080fb0061006000000040000b
:10403800110480000110a100010070001004880024
:104048009680a8000080fa00000006000400fa002c
:10405800004f78001147980022479800113a8000d5
:10406800f00b200000816000600420007105200032
:1040780023742000804978008149780082497800bb
:104088009e4078007fc060000080fb007f006000d9
:104098001234800001fe2f008100610001007000d1
:1040a80010348800103a8000000178000260a000f7
:1040b80060042000710520002374200080497800e6
:1040c80081497800824978002e409000674060005e
:1040d8000080fb00670060004400dd00920580005e
:1040e800f1f82f0081006100010070009005880040
:1040f8001e409000614060000080fb00610060008d
:104108004200dd00110480000120a10001007000c0
:104118001004880097a0a8000080fa00000006009c
:104128000000fa00113a8000f00b200000816000c6
:104138006004200071052000237420008049780065
:104148008149780082497800e134800000fe2f0020
:10415800008060007000b300e0348800e134800023
:10416800f00f2e000080600000b0a000e03488004e
:104178000135800000fe2f0000806000a000b30021
:104188000035880001358000f00f2e008080600027
:10419800009020000100700000358800103a80006f
:1041a800000178000260a000600420007105200072
:1041b800237420008049780081497800824978007a
:1041c800010f8000f08f2f0000806000000f880032
:1041d800e0c1a900010f8000f08f2f0080806000ef
:1041e8000050200001007000000f8800810f80003f
:1041f800f08f2f0000806000800f8800f0c1a900b8
:10420800810f8000f08f2f00808060000050200018
:1042180001007000800f88000080fa00000006008e
:104228000000fa002002a9000111800090ff2f0071
:10423800008060000011880020a2a9004001200031
:104248004011880023a2a90023e2a90011118000cf
:10425800f0f32f00008060001011880021e2a80010
:104268002342a8009c20a9000080fa000000060054
:104278000000fa003002a9008111800090ff2f0091
:10428800008060008011880030a2a9004001200051
:10429800c011880033a2a90033e2a900911180005f
:1042a800f0f32f00008060009011880031e2a80030
:1042b8003342a8000080fa00000006000000fa005f
:1042c800c0002000101c880040222000401c8800ec
:1042d800011c8000f0fc2f0000806000001c88009a
:1042e800011c8000c0ff2f00008060000000a000bb
:1042f800001c880081a3a80081c3a800a00020009a
:10430800501c8800c0792000201c88008480a900e7
:104318009480a8000080fa00000006000000fa005f
:10432800b0002000701c880060222000a01c8800bb
:10433800611c8000f0fc2f0000806000601c880079
:10434800611c8000c0ff2f0000806000601c880096
:104358008da3a9008dc3a800a0002000b01c880070
:10436800e07c2000801c880085c0a90095c0a800ba
:104378008de3a8000080fa00000006000000fa00a3
:10438800f0012000d01c880040232000001d880078
:10439800c11c8000f0fc2f0000806000c01c880059
:1043a800c11c8000c0ff2f00008060000000a0003a
:1043b800c01c880099a3a80099c3a800a0002000e9
:1043c800101d880080732000e01c88008700a90069
:1043d8009700a8000080fa00000006000000fa001c
:1043e800e0012000301d880060232000601d880047
:1043f800211d8000f0fc2f0000806000201d880037
:10440800211d8000c0ff2f0000806000201d880053
:10441800a5a3a900a5c3a800a0002000701d8800be
:10442800a0762000401d88008880a9009880a800f8
:10443800a5e3a8000080fa00000006000000fa00ca
:104448001ffe070059fe0700a3fe070093fe0700a2
:1044580072c0b30011c0b30020c0b300c6fe07008d
:1044680072c0b30011c0b30030c0b300f7fe07003c
:104478002bff07003cfe07000080fa000000060042
:104488000000fa00c0792000201c8800c00020002d
:10449800501c880081e3a80083e3a8000080fa008c
:1044a800000006000000fa0080732000e01c88006d
:1044b800807324008bf607000000e900101d8800b7
:1044c80099e3a8009be3a8000080fa00000006001a
:1044d8000200fa00004f78001e80fb00a01188003f
:1044e8000080fa00000006000200fa00004f780081
:1044f8001e80fb00201188000080fa0000000600e2
:104508000200fa00004f7800000000004ac8bf000f
:104518009e4f5000fdff3a000080fa0000000600a0
:104528000200fa00004f7800000000004bc8bf00ee
:104538009e4f5000fdff3a000080fa000000060080
:104548000200fa000040eb00004f78000040eb004a
:104558001047980005e1a90047c8bf00e14f500087
:104568000f003a001e4078000004e0000c003a00fa
:10457800c402a800c422a900007d2000000c880005
:10458800a13a22004006200001000100c402a80050
:10459800c422a8008021ef0010c0b300004f7800ab
:1045a80046c8bf00e14f500021003a001e4090006d
:1045b8000004e00020003a00cda2a800cde2a90046
:1045c800007d2000300c8800a13a2200400620001f
:1045d80001000100cda2a800cde2a8008621ef00cd
:1045e80010c0b3001047980014003700c402a90097
:1045f800c422a800007d2000000c880005003700b8
:10460800c402a800c422a8008021ef0010c0b30093
:10461800004f780047c8bf00e14f500007003a003c
:104628001e4078000004e000f5ff32000300370068
:1046380000000000010037000000000047c8bf006c
:104648000004e000e9ff32001e4078000004e000aa
:10465800e6ff32000f003700cda2a900cde2a80086
:10466800007d2000300c880046c8bf00e14f500094
:1046780008003a001e4090000004e00005003a00df
:10468800cda2a800cde2a8008621ef0010c0b3009b
:104698001047980046c8bf000004e000eeff320053
:1046a8001e4090000004e000ebff32001e4078003e
:1046b800e14f500022003a001e409000e14f5000a8
:1046c8001f003a00c402a800c422a900007d2000ef
:1046d800000c8800a13a22006009200001000100b6
:1046e800c402a800c422a8008021ef00a13a220039
:1046f8006009200001000100cda2a800cde2a900b8
:10470800007d2000300c8800a13a220060092000ba
:1047180001000100cda2a800cde2a8008621ef008b
:10472800a13a2200803e200001000100e421ef00b0
:10473800f421ef00a13a2200400620000100010008
:1047480005e1a8000080fa00000006000600fa0053
:10475800200798000000eb00000f78000000eb0035
:10476800100798000000eb00000f78000b003700de
:104778000000eb0010079800030037001e009000af
:104788000000e800100798009e00900000fa200042
:10479800808f5000f9ff34001e0fe8002e009000b3
:1047a8009e007800808f5000f1ff34000080fa00ee
:1047b800000006000c00fa00881f78000600fc00c4
:1047c80012028000020eb300120288001bff0700cd
:1047d800113a8000f00b2000008160006004200086
:1047e80071052000237420008049780081497800f1
:1047f8008249780021368000f00f2e00808060000a
:10480800003020000100700020368800213580002b
:1048180000fe2f00008060006000b3002035880093
:104828002136800000fe2f00008060005000b30099
:10483800203688003135800000fe2f00008060009f
:10484800b000b30030358800103a800000017800cd
:104858000260a0006004200071052000237420007d
:104868008049780081497800824978000600fc0078
:1048780011028000f141b200110288008ffe07008a
:10488800befe0700a5fe0700d4fe070064fe070071
:1048980077fe070011e1a80048c8bf000004e00047
:1048a800e000320048c8bf00e14f500008003a005d
:1048b80010cbb30012ff070021ff070010cfb30091
:1048c80009ff07004a68ef004868ef00d500370085
:1048d80048c8bf00e24f500042003a000040eb00d9
:1048e800004f780020cbb30005ff070040062000ea
:1048f80096ff0700100020001007980027003700d7
:104908009e009000200320000088b9000000780075
:10491800cf80de0020079800310798006000b800bb
:104928000040880011408800be00900070092000f7
:104938000088b900000178002e0090006000b900de
:104948000000780000014100ae00900070092000ce
:104958000008b800010141008200780083f30700d5
:1049680020408800314088000000000010c8bf00c7
:104978000004e000fdff32001068ef001e4fe80061
:104988001e407800d8fe07001e407800e4fe0700ad
:104998001e0090000000e800100798001e0090001c
:1049a800e50f5000d6ff34004768ef004668ef0077
:1049b800e3fe07006000b80000408800114088004e
:1049c8006000b80020408800314088004006200080
:1049d8005eff070020cfb300c3fe07004868ef0062
:1049e8009000370048c8bf00e34f500033003a003a
:1049f80030cbb300c2fe07007009200040079800c2
:104a080080452d00500798004e0090008000eb0074
:104a180056f3070000408800114088005e009000af
:104a28008000eb0051f307002040880031408800e7
:104a38000000000010c8bf000004e000fdff3200c5
:104a48001068ef0030cbb300a1fe070090cbb30095
:104a5800abfe070091408000700920000088b90073
:104a6800000078008000eb0040f307000040880059
:104a780011408800a1408000700920000088b9001a
:104a8800000078008000eb0038f307002040880021
:104a9800314088000000000010c8bf000004e0009a
:104aa800fdff32001068ef0030cfb3008efe070024
:104ab8004a68ef004868ef005a00370048c8bf004e
:104ac800e44f500018003a001068ef009140800051
:104ad800700920000088b900000078008000eb0011
:104ae80022f307000040880011408800a1408000a0
:104af800700920000088b900000078008000eb00f1
:104b08001af30700204088003140880010c8bf0011
:104b1800e14f500043003a0040cfb30072fe070057
:104b28004868ef003f00370048c8bf00e54f500015
:104b380020003a0005e1a800d4408000e54080004c
:104b4800b0408000c140800018c0b3000001be0022
:104b58000400be00e2f207000000e00001003d0092
:104b68000044eb000804e0002e003200210f800012
:104b780010c826000008b8004608de008000eb00d8
:104b8800f041880001428800a10f800010c826006b
:104b98000008b8004608de008000eb0010428800dc
:104ba8002142880050cfb3004ffe07004868ef004d
:104bb8001c00370048c8bf00e14f400011003a0010
:104bc800c0792400d2002000e1e42900bef40700e7
:104bd8002bfe0700803e2000dcfe0700c0ccb3009f
:104be8003bfe0700c079240092002000b1e52900af
:104bf800b5f4070022fe07004a68ef004868ef0096
:104c080008003700818420009140780030c6b30046
:104c180080cf500003003a00b0cbb30032fe07004b
:104c28004868ef0048c8bf0049e8b7001aff3700d6
:020000040000fa
:104c3800000800006e00000000000000ce470000e1
:104c480032000000000000009c4700003200000015
:104c5800000000006a470000320000000000000069
:104c68003847000032000000000000006e08000015
:104c78000200000000000000c80800001a00000040
:104c880002000000686a6c00747a4c0000000100a1
:104c980000020000040008000010000000002000ce
:104ca8002b2d230030000000700800005800000081
:104cb800020000006e616e00004e41004e00690067
:104cc8006e660000494e460000000000000000002b
:104cd80000244000000000000000000059400000cf
:104ce800000000000088c3004000000000008400ad
:104cf800d79741000080e0003779c300414317008f
:104d08006e05b500b5b8930046f5f9003fe9030014
:104d18004f384d00321d3000f9487700825a3c0068
:104d2800bf737f00dd4f150075000000e20800002a
:104d38000200000002000000300000000000000037
:020000040000fa
:0200000401f009
:04000000ffff0000fe
:020000040000fa
:0200000401f009
:04000400ffff0000fa
:020000040000fa
:0200000401f009
:04000800ffff0000f6
:020000040000fa
:0200000401f009
:04000c008000000070
:020000040000fa
:0200000401f009
:0400100007000000e5
:020000040000fa
:0200000401f009
:040014005f00000089
:020000040000fa
:0200000401f009
:04001800f7000000ed
:020000040000fa
:0200000401f009
:04001c00dfff000002
:00000001FF
