:020000040000fa
:080000000002040000000000f2
:020000040000fa
:040008007809000073
:020000040000fa
:04000c00780900006f
:020000040000fa
:04001000780900006b
:020000040000fa
:040014007809000067
:020000040000fa
:040018007809000063
:020000040000fa
:04001c00780900005f
:020000040000fa
:04002000780900005b
:020000040000fa
:040024007809000057
:020000040000fa
:04002800d4020000fe
:020000040000fa
:04002c00780900004f
:020000040000fa
:04003000780900004b
:020000040000fa
:0400340000030000c5
:020000040000fa
:04003800be05000001
:020000040000fa
:04003c00780900003f
:020000040000fa
:04004000780900003b
:020000040000fa
:040044007809000037
:020000040000fa
:040048007809000033
:020000040000fa
:04004c00780900002f
:020000040000fa
:04005000780900002b
:020000040000fa
:040054007809000027
:020000040000fa
:040058007809000023
:020000040000fa
:04005c00780900001f
:020000040000fa
:04006000c6050000d1
:020000040000fa
:040064007809000017
:020000040000fa
:040068007809000013
:020000040000fa
:04006c00780900000f
:020000040000fa
:04007000780900000b
:020000040000fa
:040074007809000007
:020000040000fa
:04007800dc020000a6
:020000040000fa
:04007c0078090000ff
:020000040000fa
:0400800078090000fb
:020000040000fa
:0400840078090000f7
:020000040000fa
:040088004c0900001f
:020000040000fa
:04008c0078090000ef
:020000040000fa
:0400900078090000eb
:020000040000fa
:0400940078090000e7
:020000040000fa
:0400980078090000e3
:020000040000fa
:04009c00ee02000070
:020000040000fa
:0400a00078090000db
:020000040000fa
:0400a40078090000d7
:020000040000fa
:0400a80078090000d3
:020000040000fa
:0400ac0078090000cf
:020000040000fa
:0400b00078090000cb
:020000040000fa
:0400b40078090000c7
:020000040000fa
:0400b80054090000e7
:020000040000fa
:0400bc0078090000bf
:020000040000fa
:0400c00078090000bb
:020000040000fa
:0400c40078090000b7
:020000040000fa
:0400c80078090000b3
:020000040000fa
:0400cc0078090000af
:020000040000fa
:0400d00078090000ab
:020000040000fa
:0400d40078090000a7
:020000040000fa
:0400d80078090000a3
:020000040000fa
:0400dc00780900009f
:020000040000fa
:0400e000780900009b
:020000040000fa
:0400e4007809000097
:020000040000fa
:0400e8007809000093
:020000040000fa
:0400ec00780900008f
:020000040000fa
:0400f000780900008b
:020000040000fa
:0400f4007809000087
:020000040000fa
:0400f8007809000083
:020000040000fa
:0400fc00780900007f
:020000040000fa
:04010000780900007a
:020000040000fa
:040104007809000076
:020000040000fa
:040108007809000072
:020000040000fa
:04010c00780900006e
:020000040000fa
:04011000780900006a
:020000040000fa
:040114007809000066
:020000040000fa
:040118007809000062
:020000040000fa
:04011c00780900005e
:020000040000fa
:04012000780900005a
:020000040000fa
:040124007809000056
:020000040000fa
:040128007809000052
:020000040000fa
:04012c00780900004e
:020000040000fa
:04013000780900004a
:020000040000fa
:040134007809000046
:020000040000fa
:040138007809000042
:020000040000fa
:04013c00780900003e
:020000040000fa
:04014000780900003a
:020000040000fa
:040144007809000036
:020000040000fa
:040148007809000032
:020000040000fa
:04014c00780900002e
:020000040000fa
:04015000780900002a
:020000040000fa
:040154007809000026
:020000040000fa
:040158007809000022
:020000040000fa
:04015c00780900001e
:020000040000fa
:04016000780900001a
:020000040000fa
:040164007809000016
:020000040000fa
:040208007809000071
:020000040000fa
:04020c00780900006d
:020000040000fa
:040210007809000069
:020000040000fa
:040214007809000065
:020000040000fa
:040218007809000061
:020000040000fa
:04021c00780900005d
:020000040000fa
:040220007809000059
:020000040000fa
:040224007809000055
:020000040000fa
:040228007809000051
:020000040000fa
:04022c00780900004d
:020000040000fa
:040230007809000049
:020000040000fa
:040234007809000045
:020000040000fa
:040238007809000041
:020000040000fa
:04023c00780900003d
:020000040000fa
:040240007809000039
:020000040000fa
:040244007809000035
:020000040000fa
:040248007809000031
:020000040000fa
:04024c00780900002d
:020000040000fa
:040250007809000029
:020000040000fa
:040254007809000025
:020000040000fa
:040258007809000021
:020000040000fa
:04025c00780900001d
:020000040000fa
:040260007809000019
:020000040000fa
:040264007809000015
:020000040000fa
:040268007809000011
:020000040000fa
:04026c00780900000d
:020000040000fa
:040270007809000009
:020000040000fa
:040274007809000005
:020000040000fa
:040278007809000001
:020000040000fa
:04027c0078090000fd
:020000040000fa
:0402800078090000f9
:020000040000fa
:0402840078090000f5
:020000040000fa
:0402880078090000f1
:020000040000fa
:04028c0078090000ed
:020000040000fa
:0402900078090000e9
:020000040000fa
:0402940078090000e5
:020000040000fa
:0402980078090000e1
:020000040000fa
:04029c0078090000dd
:020000040000fa
:0402a00078090000d9
:020000040000fa
:0402a40078090000d5
:020000040000fa
:0402a80078090000d1
:020000040000fa
:0402ac0078090000cd
:020000040000fa
:0402b00078090000c9
:020000040000fa
:0402b40078090000c5
:020000040000fa
:0402b80078090000c1
:020000040000fa
:0402bc0078090000bd
:020000040000fa
:0402c00078090000b9
:020000040000fa
:0402c40078090000b5
:020000040000fa
:0402c80078090000b1
:020000040000fa
:0402cc0078090000ad
:020000040000fa
:0402d00078090000a9
:020000040000fa
:0402d40078090000a5
:020000040000fa
:0402d80078090000a1
:020000040000fa
:0402dc00780900009d
:020000040000fa
:0402e0007809000099
:020000040000fa
:0402e4007809000095
:020000040000fa
:0402e8007809000091
:020000040000fa
:0402ec00780900008d
:020000040000fa
:0402f0007809000089
:020000040000fa
:0402f4007809000085
:020000040000fa
:0402f8007809000081
:020000040000fa
:0402fc00780900007d
:020000040000fa
:040300007809000078
:020000040000fa
:040304007809000074
:020000040000fa
:040308007809000070
:020000040000fa
:04030c00780900006c
:020000040000fa
:040310007809000068
:020000040000fa
:040314007809000064
:020000040000fa
:040318007809000060
:020000040000fa
:04031c00780900005c
:020000040000fa
:040320007809000058
:020000040000fa
:040324007809000054
:020000040000fa
:040328007809000050
:020000040000fa
:04032c00780900004c
:020000040000fa
:040330007809000048
:020000040000fa
:040334007809000044
:020000040000fa
:040338007809000040
:020000040000fa
:04033c00780900003c
:020000040000fa
:040340007809000038
:020000040000fa
:040344007809000034
:020000040000fa
:040348007809000030
:020000040000fa
:04034c00780900002c
:020000040000fa
:040350007809000028
:020000040000fa
:040354007809000024
:020000040000fa
:040358007809000020
:020000040000fa
:04035c00780900001c
:020000040000fa
:040360007809000018
:020000040000fa
:040364007809000014
:020000040000fa
:10040000cf8f20008e7224000e01880000000000b3
:10041000000020000000e000020032000001200087
:100420002002880014000700b30307000000e0006a
:1004300003003a00e0d12200010020000200370052
:100440000000200001002000810f70000100320038
:1004500014000700000020000000e000020032004d
:100460000000020000000000bc2b020000000000a1
:100470000040da000000fe004440a90040062000d1
:100480000000e0000300320000002000a00188000e
:100490004440a800000006008a1f78008b1f7800e7
:1004a0000000060091018800800478000000eb0045
:1004b0001a003700e284440032a0b4009905ba0063
:1004c000e284440032a0b4009906ba00e2844400f9
:1004d00032a0b4000006eb00476fde00fd07b2005b
:1004e000636ce10003003a00ebff07000000eb0043
:1004f0000a003700606ce10004003a00005deb0088
:100500008b05e900fdff3e00040037006168e10053
:10051000010032000086eb000b00070019c7ba008b
:100520001905ba000e04e00003003a000a00e000da
:10053000e0ff3a0000000600fe07b2009e018800be
:100540008a047800f5ff3700395dba008b05e900b1
:100550000c003200295dba008b05e900080032006a
:100560000c00e00003003a00e284440032a0b40032
:10057000f5ff370019ddba008b05e900faff3a00f4
:100580008904e800e184440032a0b40000000600c1
:10059000000000000000000000000000000000005b
:1005a00000000000000000000000fa008400a90024
:1005b0000080fa0000400600801f78000000fa006a
:1005c0003cc8bf000004a2003ce8b7008680a90038
:1005d0000080fa004f00780000400600801f78007d
:1005e0000000fa003dc8bf000004a2003de8b700cb
:1005f00087a0a9000080fa004f00780000400600a4
:100600003600f800809fbe00829fbe00849fbe001f
:10061000869fbe00889fbe001800fa003ec8bf003b
:10062000e54f500070003a00e4408000f540800043
:1006300080408000914080000001be000400be00a8
:10064000de0407000002be00c0408000d1408000f0
:100650000001be000400be00290307000004be0024
:10066000244180003541800080408000914080001e
:100670000001be000400be00d00407000002be005e
:1006800080408000914080000001be000400be0058
:10069000ca0407000001be000800be0018030700de
:1006a0000004be004441800055418000804080002d
:1006b000914080000001be000400be00bf0407009e
:1006c0000002be0080408000914080000001be001a
:1006d0000400be00b90407000002be008040800094
:1006e000914080000001be000400be00b30407007a
:1006f0000001be000800be00010307006041880041
:1007000071418800a0418000b1418000530407007e
:100710000004be00a0408000b1408000d703070065
:100720000002be0060418000714180000001be00f7
:100730000400be00a10407000001be000800be00c6
:10074000ef0207000040880011408800c04180008f
:10075000d1418000410407000004be00a040800099
:10076000b1408000320507000002be0060418000f9
:10077000714180000001be000400be008f0407002c
:100780000001be000800be00dd0207002040880016
:1007900031408800004080001140800002002000ad
:1007a0006331240085040700004088001140880060
:1007b000204080003140800002002000633124008e
:1007c0007e0407002040880031408800804080007f
:1007d00091408000a2702d0033ba2300c8020700a8
:1007e00080408800914088006000b800008fbe0003
:1007f0006000b8002007980031079800084080008a
:1008000019408000200f80008000eb0016040700d4
:100810000001be000800be00b8020700ee0307009a
:100820004007980051079800284080003940800018
:10083000a00f80008000eb000b0407000001be0049
:100840000800be00ad020700e30307006007980040
:1008500071079800a2428000b34280004e009000d1
:10086000de0090000200400083804800a042880023
:10087000b1428800c0428000d14280004e01900009
:10088000de0190000000510081805900000f9800a7
:10089000110f98004e019000de019000c2428800c6
:1008a000d34288004e009000de009000000040001f
:1008b00081804800008fbe00e2428000f342800049
:1008c0006e009000fe00900002004000838048000f
:1008d000e0428800f142880000438000114380001c
:1008e0006e019000fe0190000000510081805900cf
:1008f000200f9800310f98004e019000de0190000b
:10090000c2428800d34288006e009000fe00900032
:1009100000004000818048002007980031079800bf
:10092000600880008000eb00be0f5000ae8f5800c2
:1009300021003c004e009000de009000e00f5000cf
:10094000e08f580005003400c402a800c422a900aa
:1009500060088000000c8800370037004e019000ce
:10096000de019000c0e02f00f1ff2f00800f51004a
:10097000818f59000b0035004e019000de01900080
:10098000401f200001002000800f5100818f59007e
:1009900004003c00c402a800c422a8008021ef008b
:1009a00025003700c402a900c422a8006008800006
:1009b000000c8800200037004e009000de00900000
:1009c000e00f5000e08f580005003400c402a8007a
:1009d000c422a9001e007800000c88001600370011
:1009e0004e019000de019000c0e02f00f1ff2f00cb
:1009f000800f5100818f59000b0035004e0190008f
:100a0000de019000401f200001002000800f5100f7
:100a1000818f590004003c00c402a800c422a80031
:100a20008021ef0004003700c402a900c422a800fe
:100a30001e007800000c8800600880006101b8008a
:100a40002e009000be009000800f5100818f590051
:100a500021003c006e009000fe009000e00f50006e
:100a6000e08f580005003400cda2a800cde2a90017
:100a700060088000300c8800370037006e0190005d
:100a8000fe019000c0e02f00f1ff2f00800f510009
:100a9000818f59000b0035006e019000fe0190001f
:100aa000401f200001002000800f5100818f59005d
:100ab00004003c00cda2a800cde2a8008621ef00f2
:100ac00025003700cda2a900cde2a8006008800073
:100ad000300c8800200037006e009000fe0090006f
:100ae000e00f5000e08f580005003400cda2a800b0
:100af000cde2a9002e009000300c880016003700cf
:100b00006e019000fe019000c0e02f00f1ff2f0069
:100b1000800f5100818f59000b0035006e0190004d
:100b2000fe019000401f200001002000800f5100b6
:100b3000818f590004003c00cda2a800cde2a8009e
:100b40008621ef0004003700cda2a900cde2a80065
:100b50002e009000300c88008460a9000080fa000c
:100b60004f04be004f03be004f02be004f01be0047
:100b70004f00be003600f900004006000000fa00f9
:100b80008480a9000080fa00004006003600f800ca
:100b9000809fbe00829fbe00849fbe00869fbe00d5
:100ba000889fbe000000fa0022032000e17c2400a0
:100bb000807324001005070080732000e01c88006b
:100bc00099e3a8009be3a80081b82200400620001a
:100bd0000100010022032000e17c24008073240036
:100be0000505070080732000e01c880099e3a80039
:100bf0009be3a800e07c240010407800e14f400017
:100c00009c013a00f07c240010407800f04f400036
:100c100002003a003e68ef0096013700f07c2400a5
:100c200010407800ef4f400003003a0010c0b300be
:100c30003ee8b7008f013700f07c240010407800b8
:100c4000ee4f400003003a0020c0b3003ee8b7007a
:100c500088013700f07c240010407800ed4f400000
:100c600003003a0030c0b3003ee8b700810137000e
:100c7000f07c240010407800ec4f400015003a0052
:100c8000007d2400104078000080fb00c800dd00db
:100c9000107d2400104078000080fb0000804000a0
:100ca00040408800207d2400104078000080fb0038
:100cb000c800dd00307d2400104078000080fb007b
:100cc000008040005040880040c0b3003ee8b700bc
:100cd00068013700f07c240010407800eb4f4000a2
:100ce000a7003a0005e1a900007d2400104078002b
:100cf0000080fb00c800dd00107d2400104078005b
:100d00000080fb0000804000cf80de002042880091
:100d100031428800207d2400104078000080fb00d4
:100d2000c800dd00307d2400104078000080fb000a
:100d300000804000cf80de004042880051428800a1
:100d40002242800033428000a0418000b1418000f7
:100d50000000510081805900604288007142880083
:100d60004242800053428000c0418000d141800057
:100d70000000510081805900804288009142880023
:100d800062428000734280006042800071428000b5
:100d9000009ab90004027800028bb900860278003c
:100da000050242000011b8000302420084017800ed
:100db0008442800095428000804280009142800001
:100dc00000abb90006037800048cb90088037800f2
:100dd000070343000020b8000103430086007800a9
:100de00002004000838048009c0207009203070035
:100df00080418800914188006042800071428000fb
:100e0000960207000004be008042800091428000ec
:100e1000920207000801be0096010700a04088006a
:100e2000b140880080418000914180000200200094
:100e3000b34124001302070060408800714088001d
:100e40006000b800c0408800d14088006000b80051
:100e5000e0408800f14088006440800075408000d8
:100e600060408000714080000001be000400be00b0
:100e7000d20207000001be0000002000010424008f
:100e8000000207000002be00804180009141800006
:100e90000001be000400be00c80207002041880017
:100ea00031418800644080007540800060408000cf
:100eb000714080000001be000400be00bf020700b8
:100ec0000002be0060408000714080000001be0052
:100ed0000400be00b90207000001be0000002000af
:100ee00001002c00e70107000002be0080418000e5
:100ef000914180000001be000400be00af02070067
:100f000040418800514188006000b800804088005e
:100f100091408800c6418000d7418000a4418000f4
:100f2000b5418000624080007340800080418000b5
:100f300091418000c8792400869fbe00849fbe0036
:100f4000829fbe00809fbe00a0502a00801f7800b4
:100f5000080078003c040700f287570060a32200d5
:100f60000000010081b82200c05d200001000100e6
:100f700005e1a80050c0b3003ee8b700bd0037004f
:100f8000f07c240010407800ea4f4000a7003a00af
:100f900005e1a900007d2400104078000080fb00de
:100fa000c800dd00107d2400104078000080fb00a8
:100fb00000804000cf80de0020428800314288005f
:100fc000207d2400104078000080fb00c800dd0078
:100fd000307d2400104078000080fb00008040003d
:100fe000cf80de00404288005142880022428000cb
:100ff00033428000a0418000b141800000005100d8
:10100000818059006042880071428800424280001d
:1010100053428000c0418000d14180000000510057
:10102000818059008042880091428800624280009d
:10103000734280006042800071428000009ab900d3
:1010400004027800028bb900860278000502420093
:101050000011b8000302420084017800844280003d
:1010600095428000804280009142800000abb90030
:1010700006037800048cb900880378000703430056
:101080000020b80001034300860078000200400001
:1010900083804800f1010700e702070080418800d3
:1010a000914188006042800071428000eb0107009e
:1010b0000004be008042800091428000e7010700ea
:1010c0000801be00eb000700a0408800b140880086
:1010d000804180009141800002002800b363240019
:1010e0006801070060408800714088006000b80017
:1010f000c0408800d14088006000b800e04088000f
:10110000f1408800644080007540800060408000ad
:10111000714080000001be000400be0027020700ed
:101120000001be000000200001042400550107005a
:101130000002be0080418000914180000001be009d
:101140000400be001d0207002041880031418800d4
:1011500064408000754080006040800071408000e5
:101160000001be000400be00140207000002be0021
:1011700060408000714080000001be000400be009d
:101180000e0207000001be000000200001002c003c
:101190003c0107000002be008041800091418000b8
:1011a0000001be000400be000402070040418800a8
:1011b000514188006000b80080408800914088005c
:1011c000c6418000d7418000a4418000b541800025
:1011d0006240800073408000804180009141800027
:1011e000c8792400869fbe00849fbe00829fbe00f7
:1011f000809fbe00a0512a00801f78000800780060
:1012000091030700f287570060a32200000001004d
:1012100081b82200c05d20000100010005e1a800a6
:1012200060c0b3003ee8b70012003700f07c240035
:1012300090407800a0cab30080cf500007003a0069
:10124000007d24001040780041e8b700107d2400a4
:101250001040780042e8b70006003700f07c240018
:1012600010407800e14f400002003a0000c0eb005f
:101270003ee8b70085c0a9000080fa004f04be0018
:101280004f03be004f02be004f01be004f00be0024
:101290003600f900004006000000fa008700a900af
:1012a0000080fa0000400600809fbe000000fa00a7
:1012b000a076240010407800e14f400008003a007a
:1012c000b076240090407800a0cab30080cf5000d0
:1012d00003003a00c07624001040780040e8b700d0
:1012e0008880a9000080fa004f00be000040060080
:1012f0000040da000000fe000000050003f0a2003c
:10130000889fbe008a9fbe008c1f78009301070053
:101310009a0133006450e1004f0032006420e10084
:101320005200320003826c0007003b000905d00028
:101330000306d000820f54000c065d000200390045
:10134000020032008901780003067800858255008a
:1013500004003d000003fd008103fd008502ea005a
:101360008b854200840f720002003b006000100079
:10137000e08018006011b8000005eb007a28e10059
:101380000a00390006007800c75ddd00f707b200eb
:10139000878075002d003700828171000a01780076
:1013a000610560008180d1000080d3008502e900e2
:1013b000f9ff3b00060440008784480002003b0020
:1013c00060041400e0841c000988a30007003200b8
:1013d0008a81710082817100610164008904d100f9
:1013e0000884d3008b05e800170037000978a300b4
:1013f00013003a000b00e000130034008b05e900f5
:101400000804440089844c000a4474000978a3004d
:101410000d003a000b00e000070034008b05e900e6
:101420000804440089844c0001003a000b002000ad
:101430000978a300f7ff32000001eb00020037003b
:10144000828171000a017800090107000cf0a700f1
:1014500001f0a000520137006420e10002003a00d0
:10146000838f6c00520133000801be000200be00f1
:101470004b013700889fbe008a9fbe008c1f7800fa
:10148000360107001002200002003b0020438800c4
:101490003a0137008a0062006408e10002003a0065
:1014a00020438800420137006108e100fcff320060
:1014b0000800be00030478007200070001f0a100dc
:1014c0000900070008f0a600040037000001be0074
:1014d00091042400b0fd200088ff070009f0a70058
:1014e00001f0a2002e013700889fbe008a9fbe0037
:1014f0008c9fbe000004be00030107000800be0070
:10150000890678006420e1000800390004003200f8
:101510000160a0001202200022438800530037001f
:1015200091fc2300b0fd20004e0037000006eb00c8
:1015300009f0a10003f82300020020000800be000b
:10154000a10007000600340001f82300000020007d
:101550000801be004b0007000004be002c00200064
:101560000800be0093e82300320a2300960007001b
:10157000120034000801be00d1fd2300703d2b0095
:101580005fff07000005be00b3f32300f27a2600d8
:101590000800be000901070003f823000200200034
:1015a00056ff07000801be0055ff07000a01be00f4
:1015b000340007000004be000c06e8000800be006e
:1015c00001f0a10002002000039823007e00070024
:1015d0000800be00160035000801be00f700070035
:1015e0000005be0032cd2c0043fb230044ff070062
:1015f000809fbe001269280003d52b000a00be00a0
:10160000ee000700620f210013ef2b003cff0700e4
:101610000a01be00e90007004f01be0019000700e3
:101620000801be00e50007000801be0034ff070006
:101630000c00e0000b0032000c10a70001f0a2002b
:10164000b2fd200093fc23006260e1000400320040
:1016500022a9200063f023000c10a70063f82300e8
:1016600027ff07000df0a70001f0a2004f06be0003
:101670004f05be004f04be00000006000081eb00d5
:1016800002013700889fbe008a9fbe008c1f780031
:10169000b2000700b900330003866c006450e1001b
:1016a0002e0032006420e100330032006150e1007e
:1016b0002f0032006120e1003100320085855500a5
:1016c000eb07b000090020000804200005003700e7
:1016d0000804440089844c000a00310006034300da
:1016e00087834b000001530081815b00f8ff3300ca
:1016f0000203be000800a0000804440089844c00d6
:10170000f6ff3900c639dd008301730001003200a5
:10171000130020008904d1000884d3000998a30095
:10172000050032000800a7000300a0008904d100d2
:101730000884d3008b05e8008904d1000884d30015
:101740000001eb000281d2004900070001f0a10076
:101750000cf0a70001f0a000910037006420e10028
:10176000930032000801be000200be00f7ff370000
:101770006120e1008e0032006000b800f3ff370006
:101780000000200001f82700f0ff3700839f680069
:101790000100e00002003d0060001000e080180041
:1017a0000300e00002003d0060011100e08119002b
:1017b000560107004f00e00002003b0060001000ef
:1017c000e080180000000600140020005f013700d0
:1017d000f4ff2f005d0137000001be004a00070042
:1017e0000470a70003f0a1006509b10016003200e3
:1017f0000d0035006828e10006003500f0ff2f00dd
:10180000f1ff27000300e00013003b000100280067
:101810000000050000004000818048008502e900ca
:10182000fcff3a0008003700f88f420002003c003d
:101830008000eb00000005008100d1000080d30093
:101840008502e800fcff3a000300e00002003b00d4
:1018500060001000e0801800000006004f89de00e4
:1018600082017800540137006011b800620137002e
:1018700081002000618055000b003d000b0020001e
:1018800061fe2f000100e1001d0034008281710023
:10189000610164008904d1000884d3000000e800dd
:1018a000faff3a007100200061006400030070003c
:1018b000020060000900320061044400e0844c0032
:1018c0000988a500050032008b05e8006808e100e2
:1018d00002003a008904d1000884d300f20f2000ee
:1018e0000258e10005003d00c75ddd00f907b200c8
:1018f0008980750008007800000006000bf82700ba
:101900008b00780000000500c70ade00f107b20076
:10191000f50fb20008003200e1cf420002003200b1
:101920000170a00024000500810f7000010032004a
:101930000408050044000500810f700002003a0011
:10194000140005008502e9000000400081c0480045
:10195000fcff3b000170a000240005000004be0055
:10196000e9ff07000003be000405be000200be0040
:10197000e5ff0700844f7500000006000200be006e
:101980006450e100050036006420e10002003600ea
:101990000968a30001003a000800be000160a00031
:1019a0004f0678004f05be004f04be000000060041
:1019b000f0ff2f00f1ff2700f9ff3700889fbe00de
:1019c0008a9fbe008c1f7800e4ff0700ebff330006
:1019d00003866c006450e100240032006420e100c2
:1019e000270032006150e100220032006120e10056
:1019f000210032008b854200eb07b1000134b800b2
:101a0000003ab8000804420089844a00013ab8004c
:101a10000030b8008880400009014a00040033000b
:101a20000000400081804800020149008b05e90068
:101a3000c909dd008301700001003200130020009d
:101a4000c814de004814dd004709de001200b200b1
:101a5000c808de000884700085ff070001f0a100bf
:101a60000cf0a70001f0a000cdff37006120e100dd
:101a7000cfff32000801be000200be00f7ff3700b2
:101a80006150e100fcff3a00c9ff3700889fbe00ab
:101a90008a9fbe008c9fbe00820578000004be00b5
:101aa00099ff07000800be006420e100070039002c
:101ab00002003a00f1ff2700f0ff2f000160a000b4
:101ac0001202200022438800550037006120e10007
:101ad00003003a000b00a70001f823005000370074
:101ae00001f0a100020021009364240036ff0700ea
:101af0000800be0004003500b2fd2000930c240055
:101b0000ec0007000004be000005eb000b00a6007f
:101b10004f0dde0001f0a1000004be0032982f003e
:101b200023ea2300a5ff07000001eb0003f02300d8
:101b30000b00a70003f82300f1fd070026ff0700b4
:101b40000000a7000a00a20044ff07000b00e0000d
:101b5000030032000200200003f02300e7fd07002d
:101b600001f0a2000006be00020020009304240041
:101b700092ff07000801be00e1fd0700809fbe0044
:101b80000c00be0022a22a00d3a723008bff07006f
:101b90004f01be00dafd07000004be0001f0a10005
:101ba000020020000398230007ff07000800be0082
:101bb000190035000001be0080ff07000006be00ce
:101bc000b2c52900e36223007cff070022222b001c
:101bd000f3942b00cafd07000c01be0077ff07003d
:101be000e273280083c02300c5fd07000c01be007e
:101bf00072ff070042aa2a00a3e22b00c0fd0700e3
:101c00000c01be006dff07000801be006bff07005e
:101c10000801be00bafd07000a00a70001f0a200fb
:101c20004f06be004f05be004f04be000000060078
:101c30000001eb0095ff3700889fbe008a9fbe0021
:101c40008c1f78000004be002fff07000478a3005b
:101c500026003a006120e1002500320009f8a300c7
:101c600025003a006420e10021003200f507b100b0
:101c70000508a300020032000000400081804800f7
:101c80006044b80003102000020020000000400063
:101c9000818048000805440089854c000a05410000
:101ca0008b8549000a0550008b85580003003300de
:101cb0000a00be0002047400838474008301d10012
:101cc0000281d300830f7100f0ff3a008904d10034
:101cd0000884d3006001490082017800c1adde00b4
:101ce000fb07b000e2fe07002dff37000960a000ef
:101cf0000800be002aff370012022000224388009d
:101d0000f0ff2f00f1ff270025ff37006022b80009
:101d1000060220000000d0008180d2000482d200a0
:101d20008582d2000000a0000202520083825a0085
:101d3000030031000202420083824a000000a10039
:101d40000603e900f3ff3a0000000600889fbe008a
:101d50008a9fbe00841f780000ff07004f007800b4
:101d600011003300f0ff2f00838f6c0006003b0052
:101d7000040565000a00a7000800370009f0a60066
:101d80001000200008003700820f5400838f5c0091
:101d9000030039001000200001003e000000200078
:101da00009f0a7000000ea004f05be004f04be0086
:101db0000000e00000000600881f7800030478009f
:101dc0000300e00007003d0060001000e080180004
:101dd00060011900e081190002003b0001f02d00b4
:101de000030037000400070008f0a70001f0a0007e
:101df0004f04780000000600889fbe008a9fbe0046
:101e0000008270000402710004827100260032001a
:101e10000004be000200be006011b8006b09200083
:101e2000950220000182cf000a0039000541b1006f
:101e30000082cf00070039000541b1000982cf00c0
:101e4000040039000541b1000882cf0001003900cb
:101e50000541b10005425200120032000a003b0069
:101e600082817100610164008100d1000080d30093
:101e70008984d3000884d3008b05e8000442e8007d
:101e8000f7ff3a00070037000804440089844c003b
:101e900000004800818048008b05e9000442e90009
:101ea000f9ff3a0072fe07004f05be004f04be0066
:101eb000000006000400200000003700889fbe00dc
:101ec0008a9fbe008c1f78004f26dd00a3fe07000e
:101ed000aafe33006120e100430032006250e100bd
:101ee00041003e003e0039006420e1003c00320029
:101ef000058255000f003b000402e80038003a005c
:101f0000800f5300818f5b00350034000800be0055
:101f100003f0a10001f0a60003f0a0000cf0a70060
:101f2000f7fc07009efe37000603430087834b0043
:101f30000c4646000005530081855b00020033001b
:101f40000a03be000c00a0000402e900f6ff3b00fb
:101f5000850578000602430087824b0004003a00a2
:101f60006000b80009f0a70001f0a0008cfe370067
:101f70000002520081825a000704e000040033008e
:101f80000603430087834b008b05e900faff370007
:101f9000090578000604be000203be006011b80007
:101fa00033fe0700e00f5200e08f5a0007003500b3
:101fb00002003c000c08a300040032000601be0031
:101fc00003f0a0000cf0a700cdfc07000a85680014
:101fd00001f0a1000af0a70001f0a00070fe370098
:101fe0000800be006efe3700100220000cf0a600b4
:101ff000204388006efe3700800178000200370021
:10200000b15978000201e9000200e000fcff3a004b
:102010000000060080007800010178003104e00033
:10202000fdff3a000000510000000600881f780004
:102030000204780008017800efff07000800400064
:102040004f047800000006000000fa00881f7800a6
:1020500000047800ea8157003fb9970088007800b3
:1020600060012100070007000000e00002003500c9
:102070008040eb00017478004f0478000080fa0083
:10208000000006006200fa00889fbe008a1f7800e8
:10209000000578008104780002047800830078004d
:1020a00080f92f000f004000680607009a979f00f4
:1020b000a9979f000000eb00b09f9f001885fb00d0
:1020c0008a04fb000a05ea004f55de00500220009a
:1020d000808f54000d003200e10f55000b003a00d4
:1020e0000a017800880078002f9097009f91970050
:1020f00003000100a0979f000000e0008e00320066
:102100003f9897000000e800b09f9f000a04440039
:1021100050022000808f5400040032000900e000cb
:10212000e6ff3a003f989700840037000000eb007c
:10213000909f9f00809f9f00f0979f00e0979f00d7
:10214000d0979f00c0979f0007003700418f200065
:102150000100500000004000818e200061007800e6
:10216000df98970001007000d09f9f0088047800de
:1021700009047800384578008a00fb00408f200071
:10218000110407000000e000f0ff3a00a1c2b30014
:10219000814f55000e003a00cf8897000180e9007a
:1021a000c08f9f0010007800c09f9f000000e000db
:1021b00005003d000000ea00c09f9f005f98970067
:1021c0000020a000d09f9f000904e8000f00370006
:1021d000c09f9f000000eb0005003700f2ff2700c2
:1021e000820f5000020032006a01b90002804000f4
:1021f0000904780088047800b900fb000103b100ed
:10220000e98f5000f5ff3600c09f9f00e0c2b30089
:10221000984f1000020032000080eb0019003700d8
:10222000a0c2b300d84f100007003a00cf88970033
:102230000180e900c08f9f0010007800a09f9f00e0
:102240000804e800100037000000eb00a09f9f008a
:102250008800780005003700f3ff2700830f500047
:10226000020032006a02b900040041000104780053
:10227000880078003101fb000203b100e90f510032
:10228000f5ff3600a09f9f00984478008900fb006e
:10229000008e2000cc0307000000e00002003200a6
:1022a0000804e800010037008044eb00c97f9f006c
:1022b00080c6b30080cf540004003a0098cf1400c9
:1022c0000a003a006640500006003700c0c6b3005e
:1022d00080cf540005003a0098cf140003003a0064
:1022e00065404000c07f9f000804e8001801fb0023
:1022f000e3fb2f008f81410081f92f008f80400088
:10230000a0f92f000f004000100007000000e000bf
:1023100009003a00e1fb2f008f804000a0f92f0058
:102320000f0040000d0507000000e000020035002e
:102330000804e80061ff37000080eb004f057800db
:102340004f04be000080fa0000000600889fbe0017
:102350008a1f780000047800824478000305780022
:1023600070c6b30080cf54001a003c0000c0e900e2
:1023700080cf5400cd003d006d40500080cf540010
:10238000770032000b003c007140500080cf5400b9
:1023900035013c0000c0e90080cf5400c3003d007f
:1023a00050c2b30080cf54002c0132007c4040006a
:1023b0000500370030c6b30080cf54001a00320049
:1023c0001e003c0000c0e90080cf540026013a0006
:1023d000b6003700f0c6b30080cf54006000320072
:1023e00007003c006640500080cf540013003200cc
:1023f0006540400080cf54001b013a00d4003700f4
:1024000050c7b30080cf54005500320063404000f5
:1024100080cf54005200320002c7b30082cf540074
:1024200011013a00ff0037001181e90082087800ad
:102430007800900012757800110137002860900034
:10244000c2c6b300824f500007003a001101780065
:1024500064005100800878001000be004f89de0043
:10246000820178001400370012c7b300824f500079
:1024700003003a001102780068005200050037009e
:10248000a2c6b300824f500006003a0091027800c5
:1024900068805200800878005001be004000be00f5
:1024a000050037001180e9008008780010007800ee
:1024b000cf80de006109b900009cbe000294be001e
:1024c0002862900085c6b300854f52000d0032008f
:1024d00025c6b300854f520004003a000000fb00ff
:1024e000cf80de006109b9000800370045c7b3009e
:1024f000854f520003003200e6c24200854f520071
:1025000004003a00cf80de006109b900009cbe00e3
:102510000294be003802be002803be00780090007e
:10252000d1c2b300e00f5200e08f5a00e00f5b0011
:10253000e08f5b0008003500881090000118a300b0
:1025400002003200b1c2b300030037000108a3004b
:102550005100320001c2b300017578004c00370011
:1025600028609000c2c6b300824f500008003a00b5
:102570001103780064005300800878001002be0048
:102580006033b8000400be000601be00140037002e
:1025900012c7b300824f500003003a009102780046
:1025a0006880520005003700a2c6b300824f500079
:1025b00006003a0011037800680053008008780094
:1025c0005001be004000be00050037001180e90048
:1025d00080087800100078008000eb006011b800df
:1025e000009cbe000294be002862900085c6b30025
:1025f000854f52000d00320025c6b300854f5200b2
:1026000004003a000080fb008000eb006011b8007d
:102610000800370045c7b300854f52000300320061
:10262000e6c24200854f520004003a008000eb00f1
:102630006011b800009cbe000294be00081090001b
:102640000038a300140032003800be002801be008c
:10265000e00f5000e08f5800e00f5900e08f590064
:102660000d00320080c7b30080cf54000300320059
:1026700080c5b30080cf540007003a007800900076
:1026800001c3b300017578000000e8000975780007
:102690000000e800700498007800900000054500f4
:1026a0006a0498008940780069003700286190002a
:1026b000c0c4b300804f510006003a009103780077
:1026c00068805300800878005001be004000be00c2
:1026d000050037001101780064005100800878007f
:1026e0001000be00d0050700009cbe000294be0092
:1026f000b8009000780090000100e00002003d006a
:10270000d1c2b30008003700881090000118a30060
:1027100002003200b1c2b300030037000108a30079
:102720000400320001c2b300017578000000e80027
:102730007004980078009000000545006a04980035
:102740008900fb0008007800530007004e003700a6
:1027500028619000c3c6b3001180e900834f510087
:10276000240032000a003c00e4c15100834f5100b4
:102770002700320083c1e800834f5100150032006a
:1027800020c6b300804f510020003a000a003700f5
:1027900043c7b300834f51001d003200e6c1410022
:1027a000834f51001a00320010c7b300804f510010
:1027b00016003a00060037001180e9008008780012
:1027c00010007800485c9000084878002e00370020
:1027d0001180e9008008780010007800680a9000f5
:1027e000cfa2de00612bb9000498be000690be00a7
:1027f00025003700800878001000780068099000f4
:10280000cf91de000288be001f0037001180e90072
:102810008008780010007800680c900008087800a4
:10282000190037001181e90082087800120278004f
:10283000cfa2de00612bb900049cbe000694be004e
:10284000f8009000010545006a0498008040780077
:1028500008007800920207000b0037007800900013
:1028600009757800060037007800900000054500e3
:102870000904e00001003a0059c2b300094d780094
:102880000000e800700498000000eb004f0578009d
:102890004f04be00000006002f04b000889fbe0059
:1028a0008a9fbe008c9fbe008e1f780000077800b4
:1028b00081f79f003e04be002e05be005e0890001a
:1028c0000000e00002003d0060002000500f980072
:1028d0008e00780020fb2f000f004000460207000a
:1028e000e20f50000a003a0030002000100f98005c
:1028f000b1c9b3000ff0970081404000a0862000ce
:10290000e1cf50000d003e00608620000b00370034
:102910000000e0000f00340030002000100f98008d
:10292000b1c9b3000ff1970081404100208720001a
:10293000e1cf500001003e00e0862000ee00900054
:10294000b0487800b0687800104078009040980057
:10295000f30037000000e00005003a0022fb2f00e2
:102960000f014100001978008001eb00e7003700fb
:102970006022b8006033b8000800be000a01be0043
:10298000800407000000e00001003d000bf0a20001
:10299000705927009f9897000088b900026a2800a4
:1029a0001300200079fb0700640650009c9f9f00e5
:1029b00013003b0063061600c0ff2f0000066600f0
:1029c0008c01ea00939f9f006d8720000800be00e5
:1029d0000a01be00070037000c08a3000300320004
:1029e0003d02be002d03be005d0507000c86d10030
:1029f000e88646000c00e000f7ff3c0018003700b6
:102a00000c00e00018003200c0ff2f000006660036
:102a10009c9f9f006d8720006000b800020020008e
:102a200003ff2300070037000c08a3000300320057
:102a30003d02be002d03be00490507000c86d100f3
:102a4000e88646000c00e000f7ff3c000002be00f4
:102a50000203be000800be000a01be0053040700c6
:102a60000004be000205be00de08900060c6b30090
:102a70000ff29700804f52000400320060002000e7
:102a800062c4b300824f520002003a009f9a97003e
:102a90006a80420081004000f1b79f000103780086
:102aa000f30f53000200340037012000f7b79f00f6
:102ab00000c3b300c0779f0056fb2f000f034300f5
:102ac0000e007800a0b79f00060778003d00370091
:102ad0000800be000a01be00f20407000006be00a6
:102ae0007fb1970068015100f2b79f004240a900f2
:102af0000c003400170507000002be000203be00f0
:102b00000800be000a01be008b0507006022b80065
:102b100046782d0077192400110507000004be0037
:102b20000205be00e80047008e0020000802be003b
:102b30000a03be00b4b79f00c5b79f00d6b79f0079
:102b4000e7b79f000c01be00010478000c003700bd
:102b5000a400200005002000c0fd2f000f00400051
:102b6000840107006fa89700ffa897000fb1970096
:102b70009fb1970005c3b300056441000001be008a
:102b8000e00f5100e08f5900030034000e07e90008
:102b9000e10f4700eeff3a00880078003fb497004d
:102ba000cfb497005fb59700efb5970002003700ec
:102bb00000c3b300806078000e07e900fcff3b0013
:102bc000688740007fb397000600e00007003400ec
:102bd0006022b8006033b8000800be000a01be00e1
:102be000ed0307000000e000b9ff3c000e03780091
:102bf0002fb7970051fb2f008f8040000103530037
:102c00009f9b970067804300909f9f0002003700c2
:102c10000603e9000000e900010178008200780065
:102c200003c3b300b1cf1100f9ff3200909f9f00a2
:102c3000de09900061c6b3000ff29700814f520089
:102c40000300320061c4b300814f520002003a0019
:102c50000000e8000a0037001000200051c6b30051
:102c60008ff2970081cf52000500320005407800b6
:102c700050c4b2000080fb000000e9004f00de00fd
:102c800083014000868f51000100340086017800e6
:102c90000300e0001d00350000c3b300868f510023
:102ca00006003d0062c279006940400041c3b300a4
:102cb000814f520001003c00694050008300e90050
:102cc0008100410001003700840178000302e9001f
:102cd00001037800a142780080cf5200faff320051
:102ce00091c3b300814f500001003a00054be8004a
:102cf0000400e00005003d000201e9008301e80056
:102d00001f9b97000603e800969f9f008ff3970094
:102d10008700fb001f9a97000e007800060007004e
:102d20004f0778004f06be004f05be004f04be009f
:102d30002f04b10000000600f0874700889fbe0006
:102d40008a9fbe008c9fbe008e1f78000004780012
:102d5000814478000205be00040678000b00e00004
:102d600002003c001b002000aa8f200060c6b300b8
:102d700080cf54000e00320060c4b30080cf5400f6
:102d80000b00320070c6b30080cf54000300320045
:102d900070c4b30080cf540081003a00e40f4600b5
:102da0007f00350058089000800f56007c003d00e1
:102db0000c06e80060c6b30080cf5400100032005b
:102dc00060c4b30080cf54000d00320008109000a2
:102dd0000038a30004003a0058089000808f550086
:102de00001003d005b0c9800580890000c0050005a
:102df000500c980002003b000000eb00500c9800c3
:102e000018089000e80090000c00e00026003c004c
:102e100002c3b300827078000000e800100c980034
:102e2000d80890000100e00003003c0088109000ea
:102e30000138a30005003200e8009000e2c2b300b0
:102e4000827078000000e800100c9800580890008c
:102e50008c00ea00810f500001003d000006ea00ee
:102e60008c00ea00210c9800000646005c0c9800db
:102e70008b0f5600010034000b0678003c0c9800c4
:102e8000e800900018089000008040000c017800d5
:102e90008a00780058fc0700580890000c06500083
:102ea0004c0c9800900037008c8f550018003d00a6
:102eb000008040000b0178008a0078004efc07007b
:102ec0001808900000804500100c98008b055600f3
:102ed0002b0c9800d80890000100e00003003c0093
:102ee000881090000138a30006003200e80090002e
:102ef000e2c2b30082707800380890000000e80059
:102f0000300c980058089000400c9800760037006c
:102f1000008040000c0178008a00780036fc070031
:102f20001808900000004600100c98008c85550091
:102f3000d80890000100e00003003c0088109000d9
:102f40000138a30005003200e8009000e2c2b3009f
:102f5000827078000000e800100c9800580890007b
:102f6000808f55000100340080057800e800900053
:102f700018089000008040008c0045000b0178008c
:102f80001dfc0700180890000b004000100c980072
:102f9000580890008b0550002b0c98005200370009
:102fa00018089000e80090009a7078000000e8008f
:102fb000100c9800d80890000100e00003003c00cd
:102fc000881090000138a30005003200e80090004e
:102fd000e2c2b300827078000000e800100c980094
:102fe000580890000000e000100034008b05e90054
:102ff000808f55000100340080057800e8009000c3
:1030000018089000008040008a00e8000b0178005a
:10301000f9fb0700180890000b004000100c980006
:10302000580890008b0550002b0c9800e800900089
:103030001808900000804000095878000007e80058
:103040000c00e00004003500b1c2b3000148780074
:103050008e04780004003700d1c2b3000148780024
:103060008e0478000c06ea007d8557008006eb0090
:1030700009003700a20020008c0078007280570001
:10308000310007007fb097008fb89700016d78007e
:10309000000678008d06e8000c00e000f5ff3c001b
:1030a0000d00e00009003a008e04780000c3b30070
:1030b000805c7800050037008d06e900fc80570031
:1030c00061c07e0002c3b300825c40000d00e000de
:1030d000f9ff3c00e80090001808900000804000d4
:1030e00080845400390c980008109000740060002f
:1030f000f00f50000e003a00980890007800900001
:1031000000804000a808900001004000b80890002e
:1031100001004000c808900001004000f80890003d
:10312000810f500002003d0000805000000c98000c
:103130004f0778004f06be004f05be004f04be008b
:103140000f01b10000000600800278000103780042
:10315000110009000203d80080017800830a78007a
:103160000299b9000201530092029800050078000c
:1031700000000600881f78008a9fbe008c9fbe005a
:10318000000478000205be000406be000401be0073
:103190000a00be007df90700008cbe000c01be00d5
:1031a000ea0307000005550081855d002a049800a8
:1031b0003b049800080078004f06be004f05be0093
:1031c0004f04780000000600020037000304e0000e
:1031d000060032000001780002007800b04178005b
:1031e00081cf5100f9ff3a00010037000001eb00e8
:1031f0000200780000000600889fbe0000047800ee
:10320000e68440001900d0004500de00f27f200077
:10321000820f500010003a00000ceb009904780077
:103220006f816400200020001b003a002101900003
:103230000200e00018003a00110190000200e000d6
:1032400015003a00100020001100e00012003200ca
:1032500020002000100037000000e00004003a00c9
:1032600001007800fb0107000000e00008003c00be
:10327000f20028001901610001fe2300810c710099
:1032800021c02f00010c40000080eb00020037003d
:10329000000ceb000000eb004f04be000000060035
:1032a000fc874700889fbe008a9fbe008c9fbe009f
:1032b0008e1f78000006780080c5b30080cf5000d4
:1032c0000a0032007740400080cf50000a003200f0
:1032d0006940400080cf50000b003200f08c20008d
:1032e00080bf9f00ae0020000a003700e28b200064
:1032f00082bf9f0006003700f38c200083bf9f0031
:103300008e00200003003700f48c200084bf9f0053
:103310000e0120003c02be002c03be000605be00cc
:103320000404be0040c6b30080cf5000030032004a
:103330006540400080cf50000b003a00e00f520083
:10334000e08f5a00e00f5b00e08f5b0006003d005d
:103350006000b8006011b800040450008584580073
:103360000605590087855900e80f57000400320010
:1033700040002000f00f570038003a0001003700ed
:1033800030002000e00f5400e08f5c00e00f5d0093
:10339000e08f5d0004003a00dc0890008d01200001
:1033a0000100e000060032008e00e9008880600025
:1033b0008fba9700e5c07800f1ef9f007d012000f3
:1033c000800078008100e900050033008b05d10002
:1033d0000a85d3008984d3000884d300f9ff37001d
:1033e000089ebe000a96be00120037008d06e90056
:1033f0008e00e900848060000fb99700e2c1780078
:1034000082fd2f000f01410003f17e008000780053
:103410008100e900050033008783d1000683d300d3
:103420008582d3000482d300f9ff3700049ebe00da
:103430000696be003c02be002c03be00e00f520008
:10344000e08f5a00e00f5b00e08f5b008b003400e0
:103450000d00e000e5ff3c00880037002c60900084
:1034600081c6b300814f50000b00320006003c00c3
:103470000004e00008003200e6c05000814f500018
:103480004e003a0004003700c1c6b300814f50001f
:103490004a003a00210037000800e00004003a002a
:1034a0005c0890008d0120000000e0000600320062
:1034b000110009000e84d8000fb99700e2c078000f
:1034c000f1ef9f007d012000110009000e84d8005b
:1034d0000a003700110009000e04d8008d06e9002b
:1034e0000e81b900020454008fb8970061417c003e
:1034f00081fd2f008f80400082f07e000004780064
:103500000800e000020032000d00e000f1ff3c0086
:10351000cfc4de00614db90025003700e00f540034
:10352000e08f5c0004003a005c0890008d012000f0
:103530000000e000070032006171b9000800be0021
:10354000ff0207008fb99700e3417800f3ef9f0077
:103550007d0120006171b9000800be00ebf9070091
:103560000b0037006171b9000800be0087f8070042
:103570008d06e90000f1b900020454000fba97006b
:10358000e4427c0084fd2f000f02420005f27e0021
:103590000004be00e00f5000e08f5800020032002f
:1035a0000d00e000efff3c004fcdde008a05780003
:1035b000089ebe000a96be0030003700e00f54009f
:1035c000e08f5c00e00f5d00e08f5d0004003a00da
:1035d0005c0890008d0120000000e000090032002e
:1035e0006172b900612bb9000800be000a01be007b
:1035f0007c0307000fba970064427800f4ef9f0045
:103600007d0120006172b900612bb9000800be0085
:103610000a01be006c0307000d0037006172b9009b
:10362000612bb9000800be000a01be00710307004b
:103630008d06e90000f2b900040454008fba970027
:1036400065427c0085fd2f008f82420084f27e005f
:10365000009ebe000296be003c04be002c05be00cb
:10366000e00f5400e08f5c00e00f5d00e08f5d0034
:10367000020034000d00e000e8ff3c00e80f5700b6
:1036800010003a000c1090000038a3000d0032002a
:10369000f78f560006003e0085fd2f008f82420006
:1036a000e5c07e0000c3b30080cf500005003200ab
:1036b0008d06e90002c3b30081fd2f008f8040001a
:1036c00082f07e0078811600120e98006c00900047
:1036d00083fd2f008f8141008d80410046fa070055
:1036e0001c089000dc089000810f500006003d008f
:1036f00000805000000e98000c1090000040a100c7
:10370000001698000f0037000100e0000d003d009a
:103710008c109000f4806000f08f500009003a0097
:103720007c099000fc009000810051000c09900081
:1037300082805000008050004240a9000100340007
:10374000000e98004f0778004f06be004f05be00e0
:103750004f04be00cf01b100000006000400fa00d3
:10376000889fbe008a9fbe008c1f780000047800ee
:1037700001067800f80d90007800900080855500d3
:103780000808900080855500180890008085550035
:1037900028089000808555003808900080855500e5
:1037a00048089000808555000002220090bf9f00cd
:1037b00000032300a0bf9f00081090000028a30072
:1037c00015003a000b00e000130034000b057800f0
:1037d0008a047800e20f550001003600290020001d
:1037e000c801900009017800ee8057005800900051
:1037f00003000100500498000000e0008c0032003b
:103800006808900009004000600c98000905550008
:103810004240a900eeff3c00780190000200e00069
:103820000c003400c80190008c0078005800900013
:1038300003000100500498008080eb000000e000cd
:103840007c003200e8089000780090000080400082
:10385000600c9800880c90000900e0001100340012
:1038600009057800e28f5400010036002a0020008c
:10387000c80190000a017800ec80570058009000c1
:1038800003000100500498000000e00068003200ce
:10389000680890000a004000600c98008a84540078
:1038a000edff3700180990000200e0000c00340022
:1038b000c8019000e800900058009000030001004b
:1038c000500498008080eb000000e00059003200b6
:1038d000e80890001808900000804000600c9800f4
:1038e000a80c90000900e0001100340009057800e0
:1038f000e28f5400010036002a002000c801900029
:103900000a017800ec805700580090000300010085
:10391000500498000000e000450032006808900064
:103920000a004000600c98008a845400edff3700c4
:10393000380990000200e0000e003400e80090001a
:103940001808900080804000c80190005800900046
:1039500003000100500498008080eb000000e000ac
:1039600034003200e80890003808900000804000e1
:10397000600c9800c80c90000900e00011003400b1
:1039800009057800e28f5400010036002a0020006b
:10399000c80190000a017800ec80570058009000a0
:1039a00003000100500498000000e00020003200f5
:1039b000680890000a004000600c98008a84540057
:1039c000edff3700081090008000eb000028a300f6
:1039d000180032000b00e000160034008b04780061
:1039e00009057800e28f5400010036002a0020000b
:1039f000c80190000a017800ee805700580090003e
:103a000003000100500498000000e00008003200ac
:103a1000680890000a004000600c98008a845400f6
:103a20004240a900eeff3c008000eb00010037009f
:103a30008080eb00010078004f0678004f05be0043
:103a40004f04be000080fa00000006000108780064
:103a500000000600e6004000110178000500280083
:103a6000850261006f016100820878000200320067
:103a70001200200011003700a00190001200200069
:103a80000300e0000d003a00900190000300e00008
:103a90000a003a001000e00008003a003600370043
:103aa000640340009608780080017800530b78008a
:103ab0009009780004087800700151001102780024
:103ac0000400e000f6ff32001300370064024000fb
:103ad000140378004f33de008381410083087300b4
:103ae00080017800d3037800cf3bde001403780018
:103af00006034300068a73001302780004024200a2
:103b0000100378004f33de008609720090017800c0
:103b1000038841000201e90091017800ef8f510014
:103b2000eaff360010003700800178005303780068
:103b30004f33dd001002d10004087300640240001e
:103b400094037800cf3bdd001303d1008689730016
:103b5000110378004f33dd009401d100030a730094
:103b60009108d1000201e80091017800ff8f510017
:103b7000edff3e00ef88610091887200020078003e
:103b8000000006008f1fd100f70207008f87e900b1
:103b90000000e00000000600809feb00f20207003a
:103ba0008f87e9000000e000000006002800fa000e
:103bb000889fbe008a9fbe008c9fbe0003866b005c
:103bc000800007006400e100440032006408e10066
:103bd0004a0032006100e100460032006108e10065
:103be00049003200ec0647006000b8003d02be000c
:103bf0003d03be00f48657006011b8003d04be00ce
:103c00003d05be007d0320000b0037000000a00032
:103c10008d06e900130032000402420085824a004a
:103c200006034b0087834b00000040008180480062
:103c300002014900838149000802520089825a002a
:103c40000a035b008b835b00f0ff3b00080242002d
:103c500089824a000a034b008b834b008d06e900e2
:103c6000edff3a008482720086827200f707b2008c
:103c70008782720001003200150020001e049000af
:103c80003e0b900006035400e63fb0000368a3001b
:103c9000070032000000a7000500a0008301d1004a
:103ca0000281d3008180d3000080d3000603e800a6
:103cb0008301d1000281d3008180d3000080d30032
:103cc0000002eb000482d2001200070003f0a10002
:103cd0000cf0a70003f0a0004e003700640247007c
:103ce0006408e100480032003400be003401be0028
:103cf000f6ff37006108e100430032006011b800b0
:103d00006000b800f1ff370003ff27000200200029
:103d1000fbff370018002000570020000804530064
:103d20000d003d000600200097fc2f000740e10039
:103d30001e00340084827200610260008301d100a1
:103d40000281d3008180d3000080d3000804e80002
:103d5000f8ff3a0047002000610460000504740089
:103d6000040464000d00320061004000e08048005f
:103d700060014900e081490003b8a5000700320056
:103d80000603e8006538e10004003a008301d10031
:103d90000281d3008180d3000080d300f87f20000f
:103da0000830e10003003500080378006000b80027
:103db0006011b8004433dd00f300b20083017300ea
:103dc00000000600680447000294be000094be0094
:103dd000fc0447008694be008494be00090078006d
:103de000aa02070008007800a802070099007800de
:103df000814f70000b003b000800be0083020700eb
:103e00004f00b10003003700f3ff2700f2ff2f003f
:103e10006110b9004f06be004f05be004f04be0042
:103e20000080fa000000060081037800b6f6070063
:103e30000001be006000b8000478a30013003a003f
:103e40006220e10015003e000d0039008301d10021
:103e50000281d3008180d3008301d1000281d3008d
:103e60008180d3008301d1000281d3008180d300ff
:103e70000538b000c42add00f300b200838172006f
:103e800007f0a70003f0a00000000600f3ff2700e2
:103e9000f2ff2f006110b900fbff370003ff27007e
:103ea000f7ff37001400fa00889fbe008a9fbe000b
:103eb0008c9fbe000004be000205be0068004700e3
:103ec0000a90be000890be00700207000070a700b4
:103ed0000bf0a100304320009e029000808252002f
:103ee000b0fe2f000028e10011003d00b0fc2f00c3
:103ef0000028e100150034001e0990008e08900093
:103f00007e0090000501b0000201d1008180d30045
:103f10000080d3008502e800fbff3a000b00e000c0
:103f2000bcff3b0060001000e0801800b9ff3700c4
:103f3000f0ff2f00f1ff27000b00e000b5ff3b0072
:103f40000100280000002000b2ff37006000b80028
:103f5000b0ff37004f89de0082017800720237001f
:103f60002800fa00889fbe008a9fbe008c9fbe007a
:103f700003866b0093ff07000028a30064003a004b
:103f80000128a30067003a000008a30062003a007d
:103f90000108a30065003a001e009000be089000d2
:103fa00081064000ed3fb100f4805700ee01900023
:103fb000111ab8008e099000311bb8009e099000bc
:103fc000311cb800511db800f485570046000700a9
:103fd000fe0190003a0007008b85e8003e000700d4
:103fe0008e09900040000700ee01900034000700a9
:103ff0008b85e800380007008e099000400007001c
:104000009e0990001b18b800890440000a854800ea
:10401000fe019000340007008b85e800380007009f
:10402000ee019000300007008e0990001b18b800c8
:10403000890440000a8548000a98a30008003a0055
:104040000402420085824a0006034b0087834b002e
:1040500008044c0089844c000a054d008d06e900d7
:1040600084827200850273004c3add008502720082
:104070000100320015002000443ade001400b200b6
:104080004538de00cb45dd000b007000c540de008a
:10409000cb4ddd008b8070004549de00cb55dd0047
:1040a0000b017100c551de000d03780019ff0700f8
:1040b00003f0a1000cf0a70003f0a00055ff3700ab
:1040c0001b18b8008502400006834800e0834b00bf
:1040d00060044c00070037001b18b80006034000be
:1040e00087834800faff37001b18b8008703400099
:1040f00008844800e0844c0060054d000000060084
:104100001b18b8000804400089844800faff3700f3
:104110000108a3003cff3a005800be005801be0051
:10412000e3ff37000008a30037ff3a0009047800d6
:10413000f9ff37000000000007f0a2000c01370073
:10414000f2f607000400be0000000600020ab900f3
:10415000001bb9000200b80081004200810043004a
:1041600000000600889fbe008a9fbe003004420007
:10417000b0844a0030054b0090854b006000b100d0
:104180000898be000a90be000440e10005c8e100a6
:1041900006d0e10007d8e1000200310068004000cd
:1041a0001008e8004f05be004f04be0000000600e6
:1041b000889fbe008a9fbe003004be002005be005e
:1041c0000418540005985c0006185d0007985d000f
:1041d000110020000440e10005c8e10006d0e10024
:1041e00007d8e100010039008000eb0010881000c2
:1041f0004f05be004f04be00000006001200fa008a
:10420000889fbe008a9fbe008c9fbe00e0b79f00c3
:10421000f1b79f0082bf9f0093bf9f000605be00bd
:104220000404be000000eb00d0b79f00c0b79f00a1
:10423000b0b79f00a0b79f0090b79f000006eb00ab
:104240005fb19700cfb09700820141003fb0970067
:104250000200e00004003d00370007007e805700a8
:10426000c0ff070003003700330007007e805700bf
:10427000cfff0700dfb697000d00e0000c0035000f
:104280006fb29700ffb297000fbb97009fbb9700dc
:1042900010002000010020006011b8000002720030
:1042a0008182720002037300838373001b00070086
:1042b0000c06e80001042000810f5600e0ff3a00e0
:1042c0000d00e00004003d000802be000a03be002d
:1042d0007e805700a3ff07005fa897000000e00062
:1042e00005003a001fb29700afb297003fb39700a6
:1042f000cfb39700090007006fb09700ffb0970099
:104300000fb997009fb997004f06be004f05be003a
:104310004f04be000080fa00000006000100070004
:1043200000000600a4b79f00b5b79f00c6b79f0066
:10433000d7b79f00000006004f09de0082817100a0
:10434000b3b79f004f01de00818040008280700083
:10435000a1b79f008fb097004f09de00000040001a
:104360000200700090b79f007fa897004f01de0009
:10437000818040008280700081b79f000d0007009f
:104380004f3ade000000400004007000f0af9f00d4
:10439000080007000402420085824a0006034b0021
:1043a00087834b00dfff07000802be000a03be0040
:1043b000000006002fb29700bfb297004fb39700de
:1043c000dfb3970000000600881f78001800200067
:1043d000881f780089ff07008f87e9004f04780065
:1043e00000000600801feb0084ff07008f87e900b4
:1043f00000000600889fbe008a9fbe00e00f5000ac
:10440000e08f5800e00f5900e08f59000c003d008c
:104410006044b8006055b8000000540081805c0022
:1044200002015d0083815d00180020001500070077
:1044300008003d00180007000004eb0005003700ed
:104440000004eb000f00070002003d00120007000f
:1044500018002000dcff07000800e0000600320022
:104460006022b8006033b8000000520081805a001a
:1044700002015b0083815b004f05be004f04be005c
:1044800000000600e00f5200e08f5a00e00f5b00d2
:10449000e08f5b00000006006044b8006055b80083
:1044a0000402540085825c0006035d0087835d0082
:1044b00000000600889fbe008a9fbe008c1f780007
:1044c000e00f5000e08f5800e00f5900e08f5900d6
:1044d0000d003d006044b8006055b8000000540075
:1044e00081805c0002015d0083815d001c00200072
:1044f0000820e10009a8e1000ab0e1000bb8e100e2
:104500000d003d00080037000006eb00e00f5200f0
:10451000e08f5a00e00f5b00e08f5b0006003d007b
:104520006044b8006055b8000402540085825c0005
:1045300006035d0087835d00aaff07000c00e00012
:10454000060032006022b8006033b800000052005c
:1045500081805a0002015b0083815b004f06780076
:104560004f05be004f04be00000006000000000022
:104570002800fa00889fbe008a9fbe008c9fbe0064
:1045800007067800878669000c003b00030478006a
:104590008704780008f0a10009f0a100840f500002
:1045a000858f5800860f5900890f5c000300330087
:1045b0000cf0a20001003a000cf0a10001fe07007f
:1045c0006400e1005f003200780147006408e10008
:1045d000610032006c014700748557003200be0054
:1045e0001201be003a04be001a05be001e03900070
:1045f000be0a90008503530006003d000004fd0044
:104600008104fd000205fd008305fd008703ea002b
:10461000050378000df8a3000400320060041400c4
:10462000e0841c0060051d00e0851d006022b800cc
:104630007d0320000d38e1008006eb000b003900ff
:104640004433dd00f300b20083017300390037000a
:10465000848272000d027800e10664008b85d1002f
:104660000a85d3008984d3000884d3008703e90036
:10467000f7ff3b0008004000898048000a0149001c
:104680008b81490004003b0060001000e0801800ae
:1046900060011900e08119000358a30009003200ed
:1046a0008d82720084827200610260008301d100f9
:1046b0000281d3008180d3000080d3000603e8008c
:1046c0001b0037000348a30017003a000600e00073
:1046d000170034000603e9000d00a30000004800a5
:1046e0008180480002014900838149000348a300fa
:1046f0000f003a000600e000090034000603e9005c
:104700000000400081804800020149008381490087
:1047100001003a000003eb000348a300f5ff32005c
:104720006022b80002003700848272006182660055
:1047300078fd070003f0a1000cf0a70003f0a00033
:10474000b4fd3700640147006408e10002003a004c
:104750000df8a300acfd3a003200be001201be000d
:10476000acfd370000000000889fbe008a9fbe009d
:104770008c9fbe000404be000605be00809fbe00e4
:10478000829fbe002f000700040678000800be00cc
:104790000a01be002b000700840678004f03be000c
:1047a0004f02be008d4f76007fb09700130033009c
:1047b000f0ff2f008b8f6b0006003b000d0666009c
:1047c0000c00a7000a00370007f0a6001000200028
:1047d0000a003700880f5200898f5a008a0f5b0049
:1047e0008b8f5b00030039001000200001003e00a9
:1047f0000000200007f0a7000000ea004f06be00fe
:104800004f05be004f04be0000000600e4824000d9
:104810001078a30007003200640240001178a30062
:104820003400be001401be00040032000330a700b3
:10483000000006003500be001501be000330a000d8
:104840000000060005ff2700058261000700320016
:104850000428e100010032002400050006000700e2
:1048600001003a00440005000408050002000700aa
:10487000f9ff3a00140005006f82610081027000a8
:104880008502710085027200000006008000780039
:104890005002be005003be004439de00f700b200f3
:1048a000f37f200003016100090032000218e100db
:1048b00016003a0085017200830173008381730042
:1048c0000008200015003a004000200013003700c7
:1048d00085017200830173008381730005003a0033
:1048e00004a8be0006a8be00100020000b00370080
:1048f0000201e9000402420085824a0006034b00df
:1049000087834b000748a300f9ff32000740a0004f
:1049100004a8be0006a8be00200020008000980069
:104920009200980000000600881f780003047800b9
:104930000300e00007003d0060001000e080180068
:1049400060011900e081190002003b0001f02d0018
:10495000030037000400070008f0a70003f0a000e0
:104960004f04780000000600889fbe00008270009f
:1049700004027100048271002400320036432000da
:10498000c50020008383cf000a0039000541b10033
:104990008283cf00070039000541b1008183cf0039
:1049a000040039000541b1008083cf0001003900c7
:1049b0000541b10085c353006022b80012003200e7
:1049c0000a003b0084827200610260008301d10012
:1049d0000281d3008180d3000080d3000603e80069
:1049e0008743e800f7ff3a00070037000000400067
:1049f0008180480002014900838149000603e900e3
:104a00008743e900f9ff3a00c2fc07004f04be00eb
:044a1000000006009c
:020000040000fa
:104a140025660000202500006620000020250000f7
:104a24006c64000020200000256c0000640000007d
:104a340025660000202000002566000020200000dc
:104a4400256c000064200000202500006c64000038
:104a5400007300007461000074650000203d0000d4
:104a64002031000020000000737400006174000015
:104a7400652000003d20000032200000007300008b
:104a84007461000074650000203d000020330000c4
:104a940020000000737400006174000065200000b1
:104aa4003d20000034200000007300007461000009
:104ab40074650000206500007874000072610000d5
:104ac40020000000636f00006d7000006c65000042
:084ad400746500000000000001
:020000040000fa
:104adc000000fa00f0032000303a8800213a8000f0
:104aec0000fe2f00008060000000a000203a88002b
:104afc00213a8000f0f32f0000806000203a8800fb
:104b0c004827ef001200200080072000a109200098
:104b1c0033742000804978008149780082497800fc
:104b2c001200200060042000710520002374200076
:104b3c0080497800814978008249780000000000a3
:104b4c00113a8000000027008080600000002100e6
:104b5c00808f5000faff3a0000000000113a8000ec
:104b6c0000022000008060000000e000fbff32002b
:104b7c000080fa00000006000000fa000080eb0044
:104b8c0060198800c842a800c862a800c8e2a80042
:104b9c00c902a800c922a800c942a800c982a9005c
:104bac00c9a2a900c9c2a900c9e2a900c002a900f2
:104bbc00c022a9000080fa00000006000400fa00e0
:104bcc00000f7800110798001e0078000000e0002c
:104bdc0005003a0081088000f0fc2f000080600086
:104bec00800888001b0037001e007800e80f50007a
:104bfc0006003a0081088000f0fc2f000080600065
:104c0c000040a0008008880012003700000420003b
:104c1c009e007800808f500006003a0081088000ca
:104c2c00f0fc2f00008060000050a000800888007d
:104c3c0008003700001020009e007800808f500084
:104c4c0004003a008108800000032000010070007d
:104c5c00800888001e0078008000eb000001be0078
:104c6c0000a0250021262000c5f207000002be008e
:104c7c001e0090008000eb000001be000400be008e
:104c8c00bff2070000007800600888008021ef0068
:104c9c008621ef00210c800080ff2f000080600037
:104cac00200c88008461a900210c800080ff2f005b
:104cbc00008060006000b300200c8800510c800064
:104ccc0080ff2f0000806000500c88008a61a900d2
:104cdc00510c800080ff2f00008060006000b3004a
:104cec00500c8800113a8000f00b2000008160000d
:104cfc006004200071052000237420008049780096
:104d0c0081497800824978006136800000fe2f00ce
:104d1c00008060002001b30060368800713680008e
:104d2c0000fe2f00008060003001b3007036880058
:104d3c00103a8000000178000260a000600420009e
:104d4c007105200023742000804978008149780087
:104d5c00824978000080fa00000006000000fa008a
:104d6c0021088000f0fc2f00008060000050a000a3
:104d7c0020088800801a2600100888009460a8007b
:104d8c0021058000f0ff28000080600000e0a000fa
:104d9c00200588000080fa00000006000200fa00de
:104dac00004f7800114798001e409000674060004b
:104dbc000080fb00670060002205800081ff2f004f
:104dcc008100610001007000200588009e40780081
:104ddc0061c060000080fb00610060001104800075
:104dec000100a10001007000100488009400a800cc
:104dfc000080fa00000006000400fa00004f780062
:104e0c001147980022479800113a8000f00b2000bf
:104e1c0000816000600420007105200023742000d4
:104e2c008049780081497800824978009e4078005a
:104e3c007fc060000080fb007f0060004800dd0048
:104e4c0002348000f10f2e0081006100010070001f
:104e5c0000348800103a8000000178000260a00045
:104e6c006004200071052000237420008049780024
:104e7c0081497800824978002e409000674060009c
:104e8c000080fb00670060007205800081ff2f002e
:104e9c008100610001007000700588001e409000c8
:104eac00614060000080fb00610060000000400079
:104ebc00110480000110a100010070001004880092
:104ecc009680a8000080fa00000006000400fa009a
:104edc00004f78001147980022479800113a800043
:104eec00f00b2000008160006004200071052000a0
:104efc002374200080497800814978008249780029
:104f0c009e4078007fc060000080fb007f00600046
:104f1c001234800001fe2f0081006100010070003e
:104f2c0010348800103a8000000178000260a00064
:104f3c006004200071052000237420008049780053
:104f4c0081497800824978002e40900067406000cb
:104f5c000080fb00670060004400dd0092058000cb
:104f6c00f1f82f00810061000100700090058800ad
:104f7c001e409000614060000080fb0061006000fa
:104f8c004200dd00110480000120a100010070002e
:104f9c001004880097a0a8000080fa00000006000a
:104fac000000fa00113a8000f00b20000081600034
:104fbc0060042000710520002374200080497800d3
:104fcc008149780082497800e134800000fe2f008e
:104fdc00008060007000b300e0348800e134800091
:104fec00f00f2e000080600000b0a000e0348800bc
:104ffc000135800000fe2f0000806000a000b3008f
:10500c000035880001358000f00f2e008080600094
:10501c00009020000100700000358800103a8000dc
:10502c00000178000260a0006004200071052000df
:10503c0023742000804978008149780082497800e7
:10504c00010f8000f08f2f0000806000000f88009f
:10505c00e0c1a900010f8000f08f2f00808060005c
:10506c000050200001007000000f8800810f8000ac
:10507c00f08f2f0000806000800f8800f0c1a90025
:10508c00810f8000f08f2f00808060000050200086
:10509c0001007000800f88000080fa0000000600fc
:1050ac000000fa002002a9000111800090ff2f00df
:1050bc00008060000011880020a2a900400120009f
:1050cc004011880023a2a90023e2a900111180003d
:1050dc00f0f32f00008060001011880021e2a8007e
:1050ec002342a8009c20a9000080fa0000000600c2
:1050fc000000fa003002a9008111800090ff2f00ff
:10510c00008060008011880030a2a90040012000be
:10511c00c011880033a2a90033e2a90091118000cc
:10512c00f0f32f00008060009011880031e2a8009d
:10513c003342a8000080fa00000006000000fa00cc
:10514c00c0002000101c880040222000401c880059
:10515c00011c8000f0fc2f0000806000001c880007
:10516c00011c8000c0ff2f00008060000000a00028
:10517c00001c880081a3a80081c3a8001000200097
:10518c00501c8800c0792000201c88008480a90055
:10519c009480a8000080fa00000006000000fa00cd
:1051ac00b0002000701c880060222000a01c880029
:1051bc00611c8000f0fc2f0000806000601c8800e7
:1051cc00611c8000c0ff2f0000806000601c880004
:1051dc008da3a9008dc3a800a0002000b01c8800de
:1051ec00e07c2000801c880085c0a90095c0a80028
:1051fc008de3a8000080fa00000006000000fa0011
:10520c00f0012000d01c880040232000001d8800e5
:10521c00c11c8000f0fc2f0000806000c01c8800c6
:10522c00c11c8000c0ff2f00008060000000a000a7
:10523c00c01c880099a3a80099c3a80050002000a6
:10524c00101d880080732000e01c88008700a900d6
:10525c009700a8000080fa00000006000000fa0089
:10526c00e0012000301d880060232000601d8800b4
:10527c00211d8000f0fc2f0000806000201d8800a4
:10528c00211d8000c0ff2f0000806000201d8800c1
:10529c00a5a3a900a5c3a800a0002000701d88002c
:1052ac00a0762000401d88008880a9009880a80066
:1052bc00a5e3a8000080fa00000006000000fa0038
:1052cc0003fe0700411f2000800020003bfe07006a
:1052dc00a2fe070072c0b30011c0b30020c0b3001f
:1052ec00c5fe070072c0b30011c0b30030c0b300dc
:1052fc00f6fe07002aff07001ffe070005e1a900c4
:10530c000080fa00000006000200fa00004f78004e
:10531c00114798001e407800e14f40000d003a0004
:10532c00c402a900c422a80060088000c200de00ec
:10533c00b04721000008b8008100d1001e40900049
:10534c000000fb000088b90000007800000c880009
:10535c00160037001e4078000004e00004003a00fc
:10536c00c402a800c422a8008021ef000f0037005f
:10537c001e407800e14f50000c003a00c402a80017
:10538c00c422a90060088000c200de00b0472100e2
:10539c000008b8008100d1001e4090000000fb0006
:1053ac000088b90000007800000c88000080fa002a
:1053bc00000006000200fa00004f78001147980028
:1053cc001e407800e14f40000d003a00cda2a9002c
:1053dc00cde2a80060088000c200de00b0472100ca
:1053ec000008b8008100d1001e4090000000fb00b6
:1053fc000088b90000007800300c880016003700d7
:10540c001e4078000004e00004003a00cda2a80081
:10541c00cde2a8008621ef000f0037001e40780077
:10542c00e14f50000c003a00cda2a800cde2a9003b
:10543c0060088000c200de00b04721000008b80000
:10544c008100d1001e4090000000fb000088b900d4
:10545c0000007800300c88000080fa000000060084
:10546c000000fa00c0792000201c8800c0792400bc
:10547c00e5f207000000e900501c880081e3a80059
:10548c0083e3a8000080fa00000006000000fa0088
:10549c0080732000e01c880080732400daf207007f
:1054ac000000e900101d880099e3a8009be3a80008
:1054bc000080fa00000006000200fa00004f78009d
:1054cc001e80fb00a01188000080fa00000006007e
:1054dc000200fa00004f78001e80fb0020118800ab
:1054ec000080fa00000006000200fa00004f78006d
:1054fc000000000040c8bf009e4f5000fdff3a0066
:10550c000080fa00000006000200fa00004f78004c
:10551c000000000041c8bf009e4f5000fdff3a0044
:10552c000080fa00000006000200fa000040eb00c8
:10553c00004f78000040eb001047980005e1a900ef
:10554c003dc8bf00e14f50000e003a001e407800ed
:10555c000004e0000b003a00f1c0b30010c0b3002f
:10556c0069ff070081b82200800c200001000100b7
:10557c008040eb000040eb0063ff070010c0b3005d
:10558c00004f78003cc8bf00e14f50001f003a00ac
:10559c001e4090000004e0001e003a0041c1b30020
:1055ac0010c0b30083ff070081b82200800c2000dc
