:020000040000fa
:080000000002040000000000f2
:020000040000fa
:04000800fc070000f1
:020000040000fa
:04000c00fc070000ed
:020000040000fa
:04001000fc070000e9
:020000040000fa
:04001400fc070000e5
:020000040000fa
:04001800fc070000e1
:020000040000fa
:04001c00fc070000dd
:020000040000fa
:04002000fc070000d9
:020000040000fa
:04002400fc070000d5
:020000040000fa
:04002800d002000002
:020000040000fa
:04002c00fc070000cd
:020000040000fa
:04003000fc070000c9
:020000040000fa
:04003400fc020000ca
:020000040000fa
:04003800aa05000015
:020000040000fa
:04003c00fc070000bd
:020000040000fa
:04004000fc070000b9
:020000040000fa
:04004400fc070000b5
:020000040000fa
:04004800fc070000b1
:020000040000fa
:04004c00fc070000ad
:020000040000fa
:04005000fc070000a9
:020000040000fa
:04005400fc070000a5
:020000040000fa
:04005800fc070000a1
:020000040000fa
:04005c00fc0700009d
:020000040000fa
:04006000b2050000e5
:020000040000fa
:04006400fc07000095
:020000040000fa
:04006800fc07000091
:020000040000fa
:04006c00fc0700008d
:020000040000fa
:04007000fc07000089
:020000040000fa
:04007400fc07000085
:020000040000fa
:04007800d8020000aa
:020000040000fa
:04007c00fc0700007d
:020000040000fa
:04008000fc07000079
:020000040000fa
:04008400fc07000075
:020000040000fa
:04008800d00700009d
:020000040000fa
:04008c00fc0700006d
:020000040000fa
:04009000fc07000069
:020000040000fa
:04009400fc07000065
:020000040000fa
:04009800fc07000061
:020000040000fa
:04009c00ea02000074
:020000040000fa
:0400a000fc07000059
:020000040000fa
:0400a400fc07000055
:020000040000fa
:0400a800fc07000051
:020000040000fa
:0400ac00fc0700004d
:020000040000fa
:0400b000fc07000049
:020000040000fa
:0400b400fc07000045
:020000040000fa
:0400b800d807000065
:020000040000fa
:0400bc00fc0700003d
:020000040000fa
:0400c000fc07000039
:020000040000fa
:0400c400fc07000035
:020000040000fa
:0400c800fc07000031
:020000040000fa
:0400cc00fc0700002d
:020000040000fa
:0400d000fc07000029
:020000040000fa
:0400d400fc07000025
:020000040000fa
:0400d800fc07000021
:020000040000fa
:0400dc00fc0700001d
:020000040000fa
:0400e000fc07000019
:020000040000fa
:0400e400fc07000015
:020000040000fa
:0400e800fc07000011
:020000040000fa
:0400ec00fc0700000d
:020000040000fa
:0400f000fc07000009
:020000040000fa
:0400f400fc07000005
:020000040000fa
:0400f800fc07000001
:020000040000fa
:0400fc00fc070000fd
:020000040000fa
:04010000fc070000f8
:020000040000fa
:04010400fc070000f4
:020000040000fa
:04010800fc070000f0
:020000040000fa
:04010c00fc070000ec
:020000040000fa
:04011000fc070000e8
:020000040000fa
:04011400fc070000e4
:020000040000fa
:04011800fc070000e0
:020000040000fa
:04011c00fc070000dc
:020000040000fa
:04012000fc070000d8
:020000040000fa
:04012400fc070000d4
:020000040000fa
:04012800fc070000d0
:020000040000fa
:04012c00fc070000cc
:020000040000fa
:04013000fc070000c8
:020000040000fa
:04013400fc070000c4
:020000040000fa
:04013800fc070000c0
:020000040000fa
:04013c00fc070000bc
:020000040000fa
:04014000fc070000b8
:020000040000fa
:04014400fc070000b4
:020000040000fa
:04014800fc070000b0
:020000040000fa
:04014c00fc070000ac
:020000040000fa
:04015000fc070000a8
:020000040000fa
:04015400fc070000a4
:020000040000fa
:04015800fc070000a0
:020000040000fa
:04015c00fc0700009c
:020000040000fa
:04016000fc07000098
:020000040000fa
:04016400fc07000094
:020000040000fa
:04020800fc070000ef
:020000040000fa
:04020c00fc070000eb
:020000040000fa
:04021000fc070000e7
:020000040000fa
:04021400fc070000e3
:020000040000fa
:04021800fc070000df
:020000040000fa
:04021c00fc070000db
:020000040000fa
:04022000fc070000d7
:020000040000fa
:04022400fc070000d3
:020000040000fa
:04022800fc070000cf
:020000040000fa
:04022c00fc070000cb
:020000040000fa
:04023000fc070000c7
:020000040000fa
:04023400fc070000c3
:020000040000fa
:04023800fc070000bf
:020000040000fa
:04023c00fc070000bb
:020000040000fa
:04024000fc070000b7
:020000040000fa
:04024400fc070000b3
:020000040000fa
:04024800fc070000af
:020000040000fa
:04024c00fc070000ab
:020000040000fa
:04025000fc070000a7
:020000040000fa
:04025400fc070000a3
:020000040000fa
:04025800fc0700009f
:020000040000fa
:04025c00fc0700009b
:020000040000fa
:04026000fc07000097
:020000040000fa
:04026400fc07000093
:020000040000fa
:04026800fc0700008f
:020000040000fa
:04026c00fc0700008b
:020000040000fa
:04027000fc07000087
:020000040000fa
:04027400fc07000083
:020000040000fa
:04027800fc0700007f
:020000040000fa
:04027c00fc0700007b
:020000040000fa
:04028000fc07000077
:020000040000fa
:04028400fc07000073
:020000040000fa
:04028800fc0700006f
:020000040000fa
:04028c00fc0700006b
:020000040000fa
:04029000fc07000067
:020000040000fa
:04029400fc07000063
:020000040000fa
:04029800fc0700005f
:020000040000fa
:04029c00fc0700005b
:020000040000fa
:0402a000fc07000057
:020000040000fa
:0402a400fc07000053
:020000040000fa
:0402a800fc0700004f
:020000040000fa
:0402ac00fc0700004b
:020000040000fa
:0402b000fc07000047
:020000040000fa
:0402b400fc07000043
:020000040000fa
:0402b800fc0700003f
:020000040000fa
:0402bc00fc0700003b
:020000040000fa
:0402c000fc07000037
:020000040000fa
:0402c400fc07000033
:020000040000fa
:0402c800fc0700002f
:020000040000fa
:0402cc00fc0700002b
:020000040000fa
:0402d000fc07000027
:020000040000fa
:0402d400fc07000023
:020000040000fa
:0402d800fc0700001f
:020000040000fa
:0402dc00fc0700001b
:020000040000fa
:0402e000fc07000017
:020000040000fa
:0402e400fc07000013
:020000040000fa
:0402e800fc0700000f
:020000040000fa
:0402ec00fc0700000b
:020000040000fa
:0402f000fc07000007
:020000040000fa
:0402f400fc07000003
:020000040000fa
:0402f800fc070000ff
:020000040000fa
:0402fc00fc070000fb
:020000040000fa
:04030000fc070000f6
:020000040000fa
:04030400fc070000f2
:020000040000fa
:04030800fc070000ee
:020000040000fa
:04030c00fc070000ea
:020000040000fa
:04031000fc070000e6
:020000040000fa
:04031400fc070000e2
:020000040000fa
:04031800fc070000de
:020000040000fa
:04031c00fc070000da
:020000040000fa
:04032000fc070000d6
:020000040000fa
:04032400fc070000d2
:020000040000fa
:04032800fc070000ce
:020000040000fa
:04032c00fc070000ca
:020000040000fa
:04033000fc070000c6
:020000040000fa
:04033400fc070000c2
:020000040000fa
:04033800fc070000be
:020000040000fa
:04033c00fc070000ba
:020000040000fa
:04034000fc070000b6
:020000040000fa
:04034400fc070000b2
:020000040000fa
:04034800fc070000ae
:020000040000fa
:04034c00fc070000aa
:020000040000fa
:04035000fc070000a6
:020000040000fa
:04035400fc070000a2
:020000040000fa
:04035800fc0700009e
:020000040000fa
:04035c00fc0700009a
:020000040000fa
:04036000fc07000096
:020000040000fa
:04036400fc07000092
:020000040000fa
:100400004f8620008e7224000e018800000000003c
:10041000000020000000e000020032000001200087
:100420002002880014000700f50207000000e00029
:1004300003003a002069210001002000020037007b
:100440000000200001002000810f70000100320038
:1004500014000700000020000000e000020032004d
:10046000000002000000000026150200000000004d
:100470000040da000000fe004440a900e005200032
:100480000000e0000300320000002000a00188000e
:100490004440a800000006008a1f78008b1f7800e7
:1004a0000000060091018800800478000000eb0045
:1004b0001a003700e284440032a0b4009905ba0063
:1004c000e284440032a0b4009906ba00e2844400f9
:1004d00032a0b4000006eb00476fde00fd07b2005b
:1004e000636ce10003003a00ebff07000000eb0043
:1004f0000a003700606ce10004003a00005deb0088
:100500008b05e900fdff3e00040037006168e10053
:10051000010032000086eb000b00070019c7ba008b
:100520001905ba000e04e00003003a000a00e000da
:10053000e0ff3a0000000600fe07b2009e018800be
:100540008a047800f5ff3700395dba008b05e900b1
:100550000c003200295dba008b05e900080032006a
:100560000c00e00003003a00e284440032a0b40032
:10057000f5ff370019ddba008b05e900faff3a00f4
:100580008904e800e184440032a0b40000000600c1
:10059000000000000000000000000000000000005b
:1005a0000000fa008400a9000080fa000040060064
:1005b000801f78000000fa003cc8bf000004a200c1
:1005c0003ce8b7008680a9000080fa004f00780060
:1005d00000400600801f78000000fa003dc8bf0000
:1005e0000004a2003de8b70087a0a9000080fa003f
:1005f0004f007800004006003600f800809fbe00e3
:10060000829fbe00849fbe00869fbe00889fbe0062
:100610001800fa003ec8bf00e54f500068003a00dd
:10062000c07924005200200061e92800b2050700cb
:10063000c03b210000000100e4408000f540800044
:1006400080408000914080000001be000400be0098
:100650001a0407000002be00c0408000d1408000a4
:100660000001be000400be00670207000004be00d7
:10067000244180003541800080408000914080000e
:100680000001be000400be000c0407000002be0012
:1006900080408000914080000001be000400be0048
:1006a000060407000001be000800be005602070055
:1006b0000004be004441800055418000804080001d
:1006c000914080000001be000400be00fb03070053
:1006d0000002be0080408000914080000001be000a
:1006e0000400be00f50307000002be008040800049
:1006f000914080000001be000400be00ef0307002f
:100700000001be000800be003f02070060418800f3
:1007100071418800a0418000b14180008f03070033
:100720000004be00a0408000b14080001503070017
:100730000002be0060418000714180000001be00e7
:100740000400be00dd0307000001be000800be007b
:100750002d0207000040880011408800c041800041
:10076000d14180007d0307000004be00a04080004e
:10077000b14080006e0407000002be0060418000ae
:10078000714180000001be000400be00cb030700e1
:100790000001be000800be001b02070020408800c8
:1007a000314088008040800091408000a2702d0080
:1007b00033ba23001402070080408800914088006b
:1007c0006000b800008fbe006000b80020079800ed
:1007d000310798000840800019408000200f8000f9
:1007e0008000eb00600307000001be000800be00af
:1007f00004020700380307004007980051079800db
:100800002840800039408000a00f80008000eb006d
:10081000550307000001be000800be00f9010700f3
:100820002d0307006007980071079800924280002e
:10083000a34280004e009000de00900002004000c5
:100840008380480090428800a1428800b042800026
:10085000c14280004e019000de0190000000510076
:1008600081805900000f9800110f98004e019000f0
:10087000de019000b2428800c34288004e00900022
:10088000de0090000000400081804800008fbe0024
:10089000d2428000e34280006e009000fe00900093
:1008a0000200400083804800d0428800e142880076
:1008b000f0428000014380006e019000fe01900034
:1008c0000000510081805900200f9800310f9800de
:1008d0004e019000de019000b2428800c3428800c1
:1008e0006e009000fe0090000000400081804800f3
:1008f0002007980031079800600880008000eb0016
:10090000be0f5000ae8f580021003c004e009000fa
:10091000de009000e00f5000e08f5800050034002a
:10092000c402a800c422a90060088000000c88004e
:10093000370037004e019000de019000c0e02f002c
:10094000f1ff2f00800f5100818f59000b003500ff
:100950004e019000de019000401f200001002000a9
:10096000800f5100818f590004003c00c402a80090
:10097000c422a8008021ef0025003700c402a9008e
:10098000c422a80060088000000c88002000370006
:100990004e009000de009000e00f5000e08f580005
:1009a00005003400c402a800c422a9001e0078007b
:1009b000000c8800160037004e019000de01900008
:1009c000c0e02f00f1ff2f00800f5100818f5900f0
:1009d0000b0035004e019000de019000401f20000a
:1009e00001002000800f5100818f590004003c005d
:1009f000c402a800c422a8008021ef000400370030
:100a0000c402a900c422a8001e007800000c8800bf
:100a1000600880006101b8002e009000be009000c8
:100a2000800f5100818f590021003c006e00900022
:100a3000fe009000e00f5000e08f580005003400e9
:100a4000cda2a800cde2a90060088000300c88008b
:100a5000370037006e019000fe019000c0e02f00cb
:100a6000f1ff2f00800f5100818f59000b003500de
:100a70006e019000fe019000401f20000100200048
:100a8000800f5100818f590004003c00cda2a800c6
:100a9000cde2a8008621ef0025003700cda2a900f5
:100aa000cde2a80060088000300c880020003700ec
:100ab0006e009000fe009000e00f5000e08f5800a4
:100ac00005003400cda2a800cde2a9002e009000c0
:100ad000300c8800160037006e019000fe01900077
:100ae000c0e02f00f1ff2f00800f5100818f5900cf
:100af0000b0035006e019000fe019000401f2000a9
:100b000001002000800f5100818f590004003c003b
:100b1000cda2a800cde2a8008621ef000400370096
:100b2000cda2a900cde2a8002e009000300c8800d4
:100b30008460a9000080fa004f04be004f03be008d
:100b40004f02be004f01be004f00be003600f9004c
:100b5000004006000000fa008480a9000080fa002e
:100b6000004006003600f800809fbe00829fbe0055
:100b7000849fbe00869fbe00889fbe000000fa00d2
:100b800022032000e17c2400807324005a04070023
:100b900080732000e01c880099e3a8009be3a80074
:100ba000214f210040062000010001002203200007
:100bb000e17c2400807324004f0407008073200030
:100bc000e01c880099e3a8009be3a800e07c2400d7
:100bd00010407800e14f4000e8003a00f07c24002b
:100be00010407800f04f400002003a003e68ef00ed
:100bf000e2003700f07c240010407800ef4f400006
:100c000003003a0010c0b3003ee8b700db00370035
:100c1000f07c240010407800ee4f400003003a00c2
:100c200020c0b3003ee8b700d4003700f07c2400b9
:100c300010407800ed4f400003003a0030c0b30090
:100c40003ee8b700cd003700f07c2400104078006b
:100c5000ec4f400015003a00007d24001040780061
:100c60000080fb00c800dd00107d240010407800eb
:100c70000080fb000080400040408800207d240070
:100c8000104078000080fb00c800dd00307d2400ab
:100c9000104078000080fb00008040005040880039
:100ca00040c0b3003ee8b700b4003700f07c240039
:100cb00010407800eb4f4000aa003a00007d24006d
:100cc000104078000080fb00c800dd00107d24008b
:100cd000104078000080fb0000804000cf80de00e4
:100ce000104288002142880010428000214280008a
:100cf000620920000289b900020178006002b9008f
:100d00008401780003014100630920000300b8005a
:100d100001014100820078001042880021428800d1
:100d2000207d2400104078000080fb00c800dd001a
:100d3000307d2400104078000080fb0000804000df
:100d4000cf80de003042880041428800304280007f
:100d500041428000620920000289b9000201780046
:100d60006002b9008401780003014100630920009a
:100d70000300b80001014100820078003042880081
:100d8000414288001242800023428000a04180003e
:100d9000b14180000000510081805900504288001c
:100da000614288003242800043428000c04180009e
:100db000d1418000000051008180590070428800bc
:100dc000814288005242800063428000504280008d
:100dd00061428000009ab90004027800028bb900d9
:100de00086027800050242000011b80003024200aa
:100df0008401780074428000854280007042800047
:100e00008142800000abb90006037800048cb90071
:100e100088037800070343000020b8000103430063
:100e2000860078000200400083804800cb01070064
:100e3000c102070080418800914188005042800033
:100e400061428000c50107000004be0070428000be
:100e500081428000c10107000801be00c7000700f1
:100e6000a0408800b140880080418000914180000e
:100e700002002000031a240044010700604088009b
:100e8000714088006000b800c0408800d1408800f0
:100e90006000b800e0408800f140880064408000b5
:100ea0007540800060408000714080000001be00fd
:100eb0000400be00010207000001be000000200087
:100ec00001042400310107000002be0080418000bf
:100ed000914180000001be000400be00f701070040
:100ee00020418800314188006440800075408000c6
:100ef00060408000714080000001be000400be0020
:100f0000ee0107000002be006040800071408000da
:100f10000001be000400be00e80107000001be00a1
:100f20000000200001002c00180107000002be0094
:100f300080418000914180000001be000400be009d
:100f4000de01070040418800514188006000b80080
:100f5000804088009140880050c0b3003ee8b70050
:100f600006003700f07c240010407800e14f40007c
:100f700002003a0000c0eb003ee8b70085c0a900bf
:100f80000080fa004f04be004f03be004f02be00b7
:100f90004f01be004f00be003600f90000400600c1
:100fa0000000fa008700a9000080fa000040060057
:100fb000809fbe000000fa00a07624001040780058
:100fc000e14f400008003a00b076240090407800dd
:100fd000a0cab30080cf500003003a00c0762400be
:100fe0001040780040e8b7008880a9000080fa002f
:100ff0004f00be00004006000040da000000fe0086
:101000000000050003f0a200889fbe008a9fbe007a
:101010008c1f780091010700980133006450e100b3
:101020004f0032006420e1005200320003826c0065
:1010300007003b000905d0000306d000820f5400d2
:101040000c065d00020039000200320089017800c0
:10105000030678008582550004003d000003fd0072
:101060008103fd008502ea008b854200840f720037
:1010700002003b0060001000e08018006011b80022
:101080000005eb007a28e1000a003900060078002c
:10109000c75ddd00f707b200878075002d003700bf
:1010a000828171000a017800610560008180d100b1
:1010b0000080d3008502e900f9ff3b0006044000f0
:1010c0008784480002003b0060041400e0841c0098
:1010d0000988a300070032008a81710082817100b3
:1010e000610164008904d1000884d3008b05e80005
:1010f000170037000978a30013003a000b00e00046
:10110000130034008b05e9000804440089844c0076
:101110000a4474000978a3000d003a000b00e000b7
:10112000070034008b05e9000804440089844c0062
:1011300001003a000b0020000978a300f7ff3200fd
:101140000001eb0002003700828171000a01780083
:10115000070107000cf0a70001f0a00050013700c4
:101160006420e10002003a00838f6c0050013300dc
:101170000801be000200be0049013700889fbe0082
:101180008a9fbe008c1f78003401070010022000e7
:1011900002003b0010438800380137008a006200db
:1011a0006408e10002003a00104388004001370063
:1011b0006108e100fcff32000800be000304780073
:1011c0007200070001f0a1000900070008f0a60066
:1011d000040037000001be0091042400b0fd20008f
:1011e00088ff070009f0a70001f0a2002c013700da
:1011f000889fbe008a9fbe008c9fbe000004be0078
:10120000010107000800be00890678006420e100a3
:1012100008003900040032000160a0001202200022
:10122000124388005300370091fc2300b0fd2000da
:101230004e0037000006eb0009f0a10003f8230080
:10124000020020000800be00a100070006003400d4
:1012500001f82300000020000801be004b00070039
:101260000004be002c0020000800be0093e823000c
:10127000320a230096000700120034000801be0065
:10128000d1fd2300703d2b005fff07000005be006d
:10129000b3f32300f27a26000800be00070107001e
:1012a00003f823000200200056ff07000801be00db
:1012b00055ff07000a01be00340007000004be000d
:1012c0000c06e8000800be0001f0a10002002000aa
:1012d000039823007e0007000800be0016003500ba
:1012e0000801be00f50007000005be0032cd2c004d
:1012f00043fb230044ff0700809fbe0012692800c3
:1013000003d52b000a00be00ec000700620f21008d
:1013100013ef2b003cff07000a01be00e7000700a7
:101320004f01be00190007000801be00e3000700de
:101330000801be0034ff07000c00e0000b00320083
:101340000c10a70001f0a200b2fd200093fc2300c6
:101350006260e1000400320022a9200063f0230053
:101360000c10a70063f8230027ff07000df0a7006b
:1013700001f0a2004f06be004f05be004f04be00a4
:10138000000006000081eb0000013700889fbe00ce
:101390008a9fbe008c1f7800b0000700b7003300a2
:1013a00003866c006450e1002e0032006420e100ee
:1013b000330032006150e1002f0032006120e10073
:1013c0003100320085855500eb07b0000900200090
:1013d00008042000050037000804440089844c00fc
:1013e0000a0031000603430087834b0000015300cd
:1013f00081815b00f8ff33000203be000800a000fb
:101400000804440089844c00f6ff3900c639dd0029
:101410008301730001003200130020008904d10011
:101420000884d3000998a300050032000800a70033
:101430000300a0008904d1000884d3008b05e800d4
:101440008904d1000884d3000001eb000281d2009e
:101450004700070001f0a1000cf0a70001f0a00078
:101460008f0037006420e100910032000801be00c7
:101470000200be00f7ff37006120e1008c0032005f
:101480006000b800f3ff37000000200001f82700db
:10149000f0ff3700839f68000100e00002003d007c
:1014a00060001000e08018000300e00002003d0032
:1014b00060011100e0811900540107004f00e000b5
:1014c00002003b0060001000e080180000000600f1
:1014d000140020005d0137000001be004a00070033
:1014e0000470a70003f0a1006509b10016003200e6
:1014f0000d0035006828e10006003500f0ff2f00e0
:10150000f1ff27000300e00013003b00010028006a
:101510000000050000004000818048008502e900cd
:10152000fcff3a0008003700f88f420002003c0040
:101530008000eb00000005008100d1000080d30096
:101540008502e800fcff3a000300e00002003b00d7
:1015500060001000e0801800000006004f89de00e7
:1015600082017800540137006011b8006201370031
:1015700081002000618055000b003d000b00200021
:1015800061fe2f000100e1001d0034008281710026
:10159000610164008904d1000884d3000000e800e0
:1015a000faff3a007100200061006400030070003f
:1015b000020060000900320061044400e0844c0035
:1015c0000988a500050032008b05e8006808e100e5
:1015d00002003a008904d1000884d300f20f2000f1
:1015e0000258e10005003d00c75ddd00f907b200cb
:1015f0008980750008007800000006000bf82700bd
:101600008b00780000000500c70ade00f107b20079
:10161000f50fb20008003200e1cf420002003200b4
:101620000170a00024000500810f7000010032004d
:101630000408050044000500810f700002003a0014
:10164000140005008502e9000000400081c0480048
:10165000fcff3b000170a000240005000004be0058
:10166000e9ff07000003be000405be000200be0043
:10167000e5ff0700844f7500000006000200be0071
:101680006450e100050036006420e10002003600ed
:101690000968a30001003a000800be000160a00034
:1016a0004f0678004f05be004f04be000000060044
:1016b000f0ff2f00f1ff2700f9ff3700889fbe00e1
:1016c0008a9fbe008c1f7800e4ff0700ebff330009
:1016d00003866c006450e100240032006420e100c5
:1016e000270032006150e100220032006120e10059
:1016f000210032008b854200eb07b1000134b800b5
:10170000003ab8000804420089844a00013ab8004f
:101710000030b8008880400009014a00040033000e
:101720000000400081804800020149008b05e9006b
:10173000c909dd00830170000100320013002000a0
:10174000c814de004814dd004709de001200b200b4
:10175000c808de000884700085ff070001f0a100c2
:101760000cf0a70001f0a000cdff37006120e100e0
:10177000cfff32000801be000200be00f7ff3700b5
:101780006150e100fcff3a00c9ff3700889fbe00ae
:101790008a9fbe008c9fbe00820578000004be00b8
:1017a00099ff07000800be006420e100070039002f
:1017b00002003a00f1ff2700f0ff2f000160a000b7
:1017c0001202200012438800550037006120e1001a
:1017d00003003a000b00a70001f823005000370077
:1017e00001f0a100020021009364240038ff0700eb
:1017f0000800be0004003500b2fd2000930c240058
:10180000ec0007000004be000005eb000b00a60082
:101810004f0dde0001f0a1000004be0032982f0041
:1018200023ea2300a5ff07000001eb0003f02300db
:101830000b00a70003f82300f3fd070026ff0700b5
:101840000000a7000a00a20044ff07000b00e00010
:10185000030032000200200003f02300e9fd07002e
:1018600001f0a2000006be00020020009304240044
:1018700092ff07000801be00e3fd0700809fbe0045
:101880000c00be0022a22a00d3a723008bff070072
:101890004f01be00dcfd07000004be0001f0a10006
:1018a000020020000398230009ff07000800be0083
:1018b000190035000001be0080ff07000006be00d1
:1018c000b2c52900e36223007cff070022222b001f
:1018d000f3942b00ccfd07000c01be0077ff07003e
:1018e000e273280083c02300c7fd07000c01be007f
:1018f00072ff070042aa2a00a3e22b00c2fd0700e4
:101900000c01be006dff07000801be006bff070061
:101910000801be00bcfd07000a00a70001f0a200fc
:101920004f06be004f05be004f04be00000006007b
:101930000001eb0095ff3700889fbe008a9fbe0024
:101940008c1f78000004be002fff07000478a3005e
:1019500026003a006120e1002500320009f8a300ca
:1019600025003a006420e10021003200f507b100b3
:101970000508a300020032000000400081804800fa
:101980006044b80003102000020020000000400066
:10199000818048000805440089854c000a05410003
:1019a0008b8549000a0550008b85580003003300e1
:1019b0000a00be0002047400838474008301d10015
:1019c0000281d300830f7100f0ff3a008904d10037
:1019d0000884d3006001490082017800c1adde00b7
:1019e000fb07b000e2fe07002dff37000960a000f2
:1019f0000800be002aff37001202200012438800b0
:101a0000f0ff2f00f1ff270025ff37006022b8000c
:101a1000060220000000d0008180d2000482d200a3
:101a20008582d2000000a0000202520083825a0088
:101a3000030031000202420083824a000000a1003c
:101a40000603e900f3ff3a0000000600889fbe008d
:101a50008a9fbe00841f780000ff07004f007800b7
:101a600011003300f0ff2f00838f6c0006003b0055
:101a7000040565000a00a7000800370009f0a60069
:101a80001000200008003700820f5400838f5c0094
:101a9000030039001000200001003e00000020007b
:101aa00009f0a7000000ea004f05be004f04be0089
:101ab0000000e00000000600881f780003047800a2
:101ac0000300e00007003d0060001000e080180007
:101ad00060011900e081190002003b0001f02d00b7
:101ae000030037000400070008f0a70001f0a00081
:101af0004f04780000000600889fbe008a9fbe0049
:101b0000008270000402710004827100260032001d
:101b10000004be000200be006011b8006b09200086
:101b2000950220000182cf000a0039000541b10072
:101b30000082cf00070039000541b1000982cf00c3
:101b4000040039000541b1000882cf0001003900ce
:101b50000541b10005425200120032000a003b006c
:101b600082817100610164008100d1000080d30096
:101b70008984d3000884d3008b05e8000442e80080
:101b8000f7ff3a00070037000804440089844c003e
:101b900000004800818048008b05e9000442e9000c
:101ba000f9ff3a0072fe07004f05be004f04be0069
:101bb000000006000400200000003700889fbe00df
:101bc0008a9fbe008c1f78004f26dd00a3fe070011
:101bd000aafe33006120e100430032006250e100c0
:101be00041003e003e0039006420e1003c0032002c
:101bf000058255000f003b000402e80038003a005f
:101c0000800f5300818f5b00350034000800be0058
:101c100003f0a10001f0a60003f0a0000cf0a70063
:101c2000f9fc07009efe37000603430087834b0044
:101c30000c4646000005530081855b00020033001e
:101c40000a03be000c00a0000402e900f6ff3b00fe
:101c5000850578000602430087824b0004003a00a5
:101c60006000b80009f0a70001f0a0008cfe37006a
:101c70000002520081825a000704e0000400330091
:101c80000603430087834b008b05e900faff37000a
:101c9000090578000604be000203be006011b8000a
:101ca00033fe0700e00f5200e08f5a0007003500b6
:101cb00002003c000c08a300040032000601be0034
:101cc00003f0a0000cf0a700cffc07000a85680015
:101cd00001f0a1000af0a70001f0a00070fe37009b
:101ce0000800be006efe3700100220000cf0a600b7
:101cf000104388006efe3700800178000200370034
:101d0000b15978000201e9000200e000fcff3a004e
:101d10000000060080007800010178003104e00036
:0c1d2000fdff3a0000005100000006002a
:020000040000fa
:101d2c006b610000726e00000073000074610000b3
:101d3c0074650000203d00002030000020000000f1
:101d4c007374000061740000652000003d200000e9
:101d5c003120000000730000746100007465000005
:101d6c00203d0000203200002000000073740000b1
:101d7c0061740000652000003d200000332000004d
:101d8c00007300007461000074650000203d0000c9
:101d9c002034000020000000737400006174000007
:101dac00652000003d20000035200000007300007d
:101dbc0074610000746500002065000078740000f8
:101dcc007261000020000000636f00006d70000065
:0c1ddc006c650000746500000000000051
:020000040000fa
:101de8000000fa00f0032000303a8800213a800011
:101df80000fe2f00008060000000a000203a88004c
:101e0800213a8000f0f32f0000806000203a88001b
:101e18004827ef001200200080072000a1092000b9
:101e2800337420008049780081497800824978001d
:101e38001200200060042000710520002374200097
:101e480080497800814978008249780000000000c4
:101e5800113a800000002700808060000000210007
:101e6800808f5000faff3a0000000000113a80000d
:101e780000022000008060000000e000fbff32004c
:101e88000080fa00000006000000fa000080eb0065
:101e980060198800c842a800c862a800c8e2a80063
:101ea800c902a800c922a800c942a800c982a9007d
:101eb800c9a2a900c9c2a900c9e2a900c002a90013
:101ec800c022a9000080fa00000006000400fa0001
:101ed800000f7800110798001e0078000000e0004d
:101ee80005003a0081088000f0fc2f0000806000a7
:101ef800800888001b0037001e007800e80f50009b
:101f080006003a0081088000f0fc2f000080600085
:101f18000040a0008008880012003700000420005c
:101f28009e007800808f500006003a0081088000eb
:101f3800f0fc2f00008060000050a000800888009e
:101f480008003700001020009e007800808f5000a5
:101f580004003a008108800000032000010070009e
:101f6800800888001e0078008000eb000001be0099
:101f780000a025002126200044fd07000002be0025
:101f88001e0090008000eb000001be000400be00af
:101f98003efd070000007800600888008021ef00ff
:101fa8008621ef00210c800080ff2f000080600058
:101fb800200c88008461a900210c800080ff2f007c
:101fc800008060006000b300200c8800510c800085
:101fd80080ff2f0000806000500c88008a61a900f3
:101fe800510c800080ff2f00008060006000b3006b
:101ff800500c8800113a8000f00b2000008160002e
:1020080060042000710520002374200080497800b6
:1020180081497800824978006136800000fe2f00ef
:10202800008060002001b3006036880071368000af
:1020380000fe2f00008060003001b3007036880079
:10204800103a8000000178000260a00060042000bf
:1020580071052000237420008049780081497800a8
:10206800824978000080fa00000006000000fa00ab
:1020780021088000f0fc2f00008060000050a000c4
:1020880020088800801a2600100888009460a8009c
:1020980021058000f0ff28000080600000e0a0001b
:1020a800200588000080fa00000006000200fa00ff
:1020b800004f7800114798001e409000674060006c
:1020c8000080fb00670060002205800081ff2f0070
:1020d8008100610001007000200588009e407800a2
:1020e80061c060000080fb00610060001104800096
:1020f8000100a10001007000100488009400a800ed
:102108000080fa00000006000400fa00004f780082
:102118001147980022479800113a8000f00b2000e0
:1021280000816000600420007105200023742000f5
:102138008049780081497800824978009e4078007b
:102148007fc060000080fb007f0060004800dd0069
:1021580002348000f10f2e00810061000100700040
:1021680000348800103a8000000178000260a00066
:102178006004200071052000237420008049780045
:1021880081497800824978002e40900067406000bd
:102198000080fb00670060007205800081ff2f004f
:1021a8008100610001007000700588001e409000e9
:1021b800614060000080fb0061006000000040009a
:1021c800110480000110a1000100700010048800b3
:1021d8009680a8000080fa00000006000400fa00bb
:1021e800004f78001147980022479800113a800064
:1021f800f00b2000008160006004200071052000c1
:102208002374200080497800814978008249780049
:102218009e4078007fc060000080fb007f00600067
:102228001234800001fe2f0081006100010070005f
:1022380010348800103a8000000178000260a00085
:102248006004200071052000237420008049780074
:1022580081497800824978002e40900067406000ec
:102268000080fb00670060004400dd0092058000ec
:10227800f1f82f00810061000100700090058800ce
:102288001e409000614060000080fb00610060001b
:102298004200dd00110480000120a100010070004f
:1022a8001004880097a0a8000080fa00000006002b
:1022b8000000fa00113a8000f00b20000081600055
:1022c80060042000710520002374200080497800f4
:1022d8008149780082497800e134800000fe2f00af
:1022e800008060007000b300e0348800e1348000b2
:1022f800f00f2e000080600000b0a000e0348800dd
:102308000135800000fe2f0000806000a000b300af
:102318000035880001358000f00f2e0080806000b5
:10232800009020000100700000358800103a8000fd
:10233800000178000260a000600420007105200000
:102348002374200080497800814978008249780008
:10235800010f8000f08f2f0000806000000f8800c0
:10236800e0c1a900010f8000f08f2f00808060007d
:102378000050200001007000000f8800810f8000cd
:10238800f08f2f0000806000800f8800f0c1a90046
:10239800810f8000f08f2f008080600000502000a7
:1023a80001007000800f88000080fa00000006001d
:1023b8000000fa002002a9000111800090ff2f0000
:1023c800008060000011880020a2a90040012000c0
:1023d8004011880023a2a90023e2a900111180005e
:1023e800f0f32f00008060001011880021e2a8009f
:1023f8002342a8009c20a9000080fa0000000600e3
:102408000000fa003002a9008111800090ff2f001f
:10241800008060008011880030a2a90040012000df
:10242800c011880033a2a90033e2a90091118000ed
:10243800f0f32f00008060009011880031e2a800be
:102448003342a8000080fa00000006000000fa00ed
:10245800c0002000101c880040222000401c88007a
:10246800011c8000f0fc2f0000806000001c880028
:10247800011c8000c0ff2f00008060000000a00049
:10248800001c880081a3a80081c3a80010002000b8
:10249800501c8800c0792000201c88008480a90076
:1024a8009480a8000080fa00000006000000fa00ee
:1024b800b0002000701c880060222000a01c88004a
:1024c800611c8000f0fc2f0000806000601c880008
:1024d800611c8000c0ff2f0000806000601c880025
:1024e8008da3a9008dc3a800a0002000b01c8800ff
:1024f800e07c2000801c880085c0a90095c0a80049
:102508008de3a8000080fa00000006000000fa0031
:10251800f0012000d01c880040232000001d880006
:10252800c11c8000f0fc2f0000806000c01c8800e7
:10253800c11c8000c0ff2f00008060000000a000c8
:10254800c01c880099a3a80099c3a80050002000c7
:10255800101d880080732000e01c88008700a900f7
:102568009700a8000080fa00000006000000fa00aa
:10257800e0012000301d880060232000601d8800d5
:10258800211d8000f0fc2f0000806000201d8800c5
:10259800211d8000c0ff2f0000806000201d8800e2
:1025a800a5a3a900a5c3a800a0002000701d88004d
:1025b800a0762000401d88008880a9009880a80087
:1025c800a5e3a8000080fa00000006000000fa0059
:1025d80003fe0700411f2000800020003bfe07008b
:1025e800a2fe070072c0b30011c0b30020c0b30040
:1025f800c5fe070072c0b30011c0b30030c0b300fd
:10260800f6fe07002aff07001ffe070005e1a900e4
:102618000080fa00000006000200fa00004f78006f
:10262800114798001e407800e14f40000d003a0025
:10263800c402a900c422a80060088000c200de000d
:10264800b04721000008b8008100d1001e4090006a
:102658000000fb000088b90000007800000c88002a
:10266800160037001e4078000004e00004003a001d
:10267800c402a800c422a8008021ef000f00370080
:102688001e407800e14f50000c003a00c402a80038
:10269800c422a90060088000c200de00b047210003
:1026a8000008b8008100d1001e4090000000fb0027
:1026b8000088b90000007800000c88000080fa004b
:1026c800000006000200fa00004f78001147980049
:1026d8001e407800e14f40000d003a00cda2a9004d
:1026e800cde2a80060088000c200de00b0472100eb
:1026f8000008b8008100d1001e4090000000fb00d7
:102708000088b90000007800300c880016003700f7
:102718001e4078000004e00004003a00cda2a800a2
:10272800cde2a8008621ef000f0037001e40780098
:10273800e14f50000c003a00cda2a800cde2a9005c
:1027480060088000c200de00b04721000008b80021
:102758008100d1001e4090000000fb000088b900f5
:1027680000007800300c88000080fa0000000600a5
:102778000000fa00c0792000201c8800c0792400dd
:1027880062fd07000000e900501c880081e3a800f2
:1027980083e3a8000080fa00000006000000fa00a9
:1027a80080732000e01c88008073240057fd070018
:1027b8000000e900101d880099e3a8009be3a80029
:1027c8000080fa00000006000200fa00004f7800be
:1027d8001e80fb00a01188000080fa00000006009f
:1027e8000200fa00004f78000000000040c8bf0057
:1027f8009e4f5000fdff3a000080fa0000000600de
:102808000200fa000040eb00004f78000040eb00a7
:102818001047980005e1a9003dc8bf00e14f5000ee
:102828000e003a001e4078000004e0000b003a0059
:10283800f1c0b30010c0b30077ff0700214f21009b
:10284800800c2000010001008040eb000040eb00fc
:1028580071ff070010c0b300004f78003cc8bf00ec
:10286800e14f50001f003a001e4090000004e000b5
:102878001e003a0041c1b30010c0b30091ff070029
:10288800214f2100800c2000010001008040eb0056
:102898000040eb008bff070010c0b3001047980002
:1028a80013003700a1c0b30000c0eb005aff0700b7
:1028b800050037008040eb000040eb0056ff0700a2
:1028c80010c0b300004f78003dc8bf000004e0000e
:1028d800070032001e4078000004e000f5ff3200d7
:1028e800030037000000000001003700000000006e
:1028f8003dc8bf000004e000eaff32001e40780037
:102908000004e000e7ff32000e003700f1c0b3001a
:1029180000c0eb006bff07003cc8bf00e14f500050
:1029280008003a001e4090000004e00005003a004c
:102938008040eb000040eb0062ff070010c0b300ce
:10294800104798003cc8bf000004e000efff3200c9
:102958001e4090000004e000ecff32001e407800aa
:10296800e14f50001a003a001e409000e14f50001d
:1029780017003a00a1c0b30010c0b30026ff07003b
:10298800f1c0b30010c0b3004eff0700214f210073
:1029980040062000010001008040eb000040eb00f1
:1029a8001dff07008040eb000040eb0045ff0700db
:1029b800214f2100803e200001000100e421ef00aa
:1029c800f421ef00214f2100400620000100010002
:1029d80005e1a8000080fa00000006000600fa00e1
:1029e800200798000000eb00000f78000000eb00c3
:1029f800100798000000eb00000f78000b0037006c
:102a08000000eb0010079800030037001e0090003c
:102a18000000e800100798009e00900000fa2000cf
:102a2800808f5000f9ff34001e0fe8002e00900040
:102a38009e007800808f5000f1ff34000080fa007b
:102a4800000006000000fa000600fc0012028000e8
:102a5800020eb30012028800dcfe0700113a800063
:102a6800f00b200000816000600420007105200048
:102a780023742000804978008149780082497800d1
:102a880021368000f00f2e0080806000003020008a
:102a980001007000203688002135800000fe2f00dc
:102aa800008060006000b300203588002136800077
:102ab80000fe2f00008060005000b3002036880020
:102ac8003135800000fe2f0000806000b000b300a8
:102ad80030358800103a8000000178000260a000bc
:102ae80060042000710520002374200080497800cc
:102af80081497800824978000600fc0011028000b4
:102b0800f141b2001102880050fe07007ffe070065
:102b180066fe070095fe070025fe070038fe070041
:102b28000100370000000000e18320009140780098
:102b38003fc8bf0080cf5000faff32003ec8bf0038
:102b48000004e00006003a00c0792400b20020002a
:102b5800b1e9280066fc070005ff07006c00370094
:102b68003ec8bf00e14f50000b003a00c079240076
:102b7800b200200061ea28005dfc0700fcfe0700a7
:102b880010cbb30016ff07001dff07004068ef00d9
:102b98003e68ef005e0037003ec8bf00e24f5000bd
:102ba80007003a00c0792400b200200011eb280089
:102bb8004ffc0700eefe07003e68ef0054003700a8
:102bc8003ec8bf00e34f500007003a00c079240018
:102bd800b2002000c1eb280045fc0700e4fe070016
:102be8003e68ef004a0037003ec8bf00e44f50007f
:102bf80017003a00c0792400b200200071ec2800c8
:102c08003bfc0700dafe0700414080006009200015
:102c18000088b900000078008000eb004dfa07003a
:102c28000040880011408800514080006009200061
:102c38000088b900000078008000eb0045fa070022
:102c480020408800314088003e68ef00300037009f
:102c58003ec8bf00e54f50001a003a00c079240072
:102c6800b200200021ed280021fc0700c0fe07006b
:102c78008440800095408000604080007140800062
:102c88000001be000400be000ffa07000000e000cb
:102c98001f003a0000408000114080000cfa070035
:102ca800a0418800b1418800204080003140800068
:102cb80007fa0700c0418800d14188003e68ef004c
:102cc800130037003ec8bf00e14f400010003a0033
:102cd800c0792400d2002000d1ed280004fc0700b0
:102ce800a3fe0700803e20003cff0700c0ccb300d5
:102cf800b5fe0700c079240092002000a1ee28004c
:102d0800fbfb07009afe07004068ef003e68ef00f3
:0c2d18003ec8bf003fe8b70083ff370053
:020000040000fa
:102d2400000800006200000000000000ce47000020
:102d340032000000000000009c4700003200000048
:102d4400000000006a47000032000000000000009c
:102d54003847000032000000000000006208000054
:0c2d640002000000000000000000000061
:020000040000fa
:0200000401f009
:04000000ffff0000fe
:020000040000fa
:0200000401f009
:04000400ffff0000fa
:020000040000fa
:0200000401f009
:04000800ffff0000f6
:020000040000fa
:0200000401f009
:04000c008000000070
:020000040000fa
:0200000401f009
:0400100007000000e5
:020000040000fa
:0200000401f009
:040014005f00000089
:020000040000fa
:0200000401f009
:04001800f7000000ed
:020000040000fa
:0200000401f009
:04001c00dfff000002
:00000001FF
